:020000040800F2
:10000000E011002001010008892100088B2100086F
:100010008F210008932100089721000800000000AC
:100020000000000000000000000000009B2100080C
:100030009D210008000000009F210008A121000868
:100040001B0100081B0100081B0100081B01000820
:100050001B0100081B0100081B0100081B01000810
:100060001B0100081B0100081B0100081B01000800
:100070001B0100081B0100081B0100081B010008F0
:100080001B0100081B0100081B0100081B010008E0
:100090001B0100081B0100081B010008CF210008FC
:1000A0001B0100081B0100081B0100081B010008C0
:1000B0001B0100081B0100081B0100081B010008B0
:1000C0001B0100081B0100081B0100081B010008A0
:1000D0001B0100081B0100081B0100081B01000890
:1000E0001B0100081B0100081B010008DFF80CD0F1
:1000F0000BF0A2FA004800470B1D0008E011002099
:100100000648804706480047FEE7FEE7FEE7FEE7B1
:10011000FEE7FEE7FEE7FEE7FEE7FEE70302000874
:10012000ED0000080CB50020019000906C480068BC
:1001300040F480306A49086000BF6948006800F4F4
:10014000003000900198401C0190009818B9019867
:10015000B0F5A06FF1D16248006800F4003010B132
:100160000120009001E0002000900098012843D178
:100170005C48006840F010005A4908600846006872
:1001800020F0030008600846006840F002000860A4
:1001900053484068524948600846406848600846ED
:1001A000406840F4806048600846406820F47C1055
:1001B00048600846406840F4E81048600846006817
:1001C00040F08070086000BF4548006800F0007093
:1001D0000028F9D04248406820F0030040494860B8
:1001E0000846406840F00200486000BF3C48406854
:1001F00000F00C000828F9D10CBD10B5FFF792FFF4
:1002000010BD10B53648006840F001003449086060
:10021000084640683449084031494860084600684B
:10022000324908402E4908600846006820F48020C2
:1002300008600846406820F4FE0048604FF41F0044
:100240008860FFF7DAFF4FF000602949086010BDB1
:1002500010B5002100200022214B5B6803F00C0147
:1002600021B1042906D0082928D107E0214B224CCE
:10027000236027E01F4B204C236023E0184B5B6872
:1002800003F47010164B5B6803F48032022303EB17
:10029000904022B9194B4343174C23600DE0104B9B
:1002A0005B6803F4003323B1144B4343124C2360C7
:1002B00003E0104B4343104C236003E00D4B0E4C06
:1002C000236000BF00BF064B5B68C3F303130C4CF5
:1002D000E15C094B1B68CB40074C236010BD00005C
:1002E00000100240002002400000FFF8FFFFF6FE71
:1002F00008ED00E000127A000000002000093D0037
:100300000400002031490143314A1160704770B543
:10031000002100230F22C47804B32D4C246804F478
:10032000E064C4F5E064210AC1F10403CA404478E2
:1003300004FA03F18478144021430901254C06781E
:10034000A155047804F01F050124AC4005786D1117
:10035000AD0005F1E025C5F8004109E0047804F09E
:100360001F050124AC401C4D0678761145F8264047
:1003700070BD1A4A0A400243154B1B1F1A60704792
:1003800039B1134A121D12680243114B1B1D1A602A
:1003900006E00F4A121D126882430D4B1B1D1A60A6
:1003A0007047042808D14FF0E021096941F00401A9
:1003B0004FF0E022116107E04FF0E021096921F0E0
:1003C00004014FF0E0221161704700000000FA05BF
:1003D0000CED00E000E400E080E100E080FFFF1FA2
:1003E000002044490860091D0860091D0860091DB6
:1003F000086041483F4914310860704700213D4979
:100400008279002A3AD00A46126803689A430B465A
:100410001A600A1D126803689A430B1D1A6002795C
:1004200011440A6803681A430A60324A08321268A3
:1004300003689A432F4B08331A601A1D1268036829
:100440009A432C4B0C331A604279102A0ED11A1F92
:10045000126803681A43274B08331A601A1D126882
:1004600003681A43234B0C331A600DE0214942798B
:1004700011440A6803681A430A6005E002791144CE
:100480000A6803689A430A6070470021016001719D
:100490000C214171002181717047164910310968A2
:1004A0000143144A10321160704701460020114A7E
:1004B000143212680A400AB1012000E0002070479F
:1004C0000C49143108607047014600200022094B96
:1004D0001B6803EA0102074B14331B680B4013B17E
:1004E0000AB1012000E00020704702491431086081
:1004F0007047000000040140FFFF0F0010B50446E4
:10050000CC48844208D10121042000F02DFB0021B9
:10051000042000F029FB46E0C748844208D10121AD
:10052000082000F021FB0021082000F01DFB3AE02C
:10053000C248844208D10121102000F015FB00219F
:10054000102000F011FB2EE0BD48844208D10121AB
:10055000202000F009FB0021202000F005FB22E014
:10056000B848844208D10121402000F0FDFA002162
:10057000402000F0F9FA16E0B348844208D1012186
:10058000802000F0F1FA0021802000F0EDFA0AE06E
:10059000AE48844207D10121801500F0E5FA002120
:1005A000A01500F0E1FA10BD10B50121084600F0D9
:1005B000DBFA0021012000F0D7FA10BD2DE9F0414F
:1005C000024600250026002000230024002791F881
:1005D00003C00CF00F0591F803C00CF0100CBCF137
:1005E000000F03D091F802C04CEA050591F800C055
:1005F000BCF1000F31D0146800202BE04FF0010C4B
:100600000CFA00F3B1F800C00CEA03069E4220D1B8
:1006100083004FF00F0C0CFA03F7BC4305FA03FC00
:100620004CEA040491F803C0BCF1280F06D14FF046
:10063000010C0CFA00FCC2F814C00AE091F803C0E7
:10064000BCF1480F05D14FF0010C0CFA00FCC2F8C8
:1006500010C0401C0828D1D31460B1F800C0BCF110
:10066000FF0F34DD546800202EE000F1080C4FF03D
:10067000010808FA0CF3B1F800C00CEA03069E4228
:1006800021D183004FF00F0C0CFA03F7BC4305FA9D
:1006900003FC4CEA040491F803C0BCF1280F05D117
:1006A00000F1080C08FA0CF8C2F8148091F803C0A5
:1006B000BCF1480F07D100F1080C4FF0010808FA0F
:1006C0000CF8C2F81080401C0828CED35460BDE856
:1006D000F0814FF6FF710180022181700421C17009
:1006E00070470246002093680B400BB1012000E0E8
:1006F000002070470146886880B27047024600209B
:10070000D3680B400BB1012000E000207047014688
:10071000C86880B2704701617047416170470AB193
:10072000016100E041617047C16070474FF4803261
:100730000A438261816182618269826970470246EF
:100740000020434B18684FF68073184040EA0210AF
:1007500008433F4B186070473E49C8617047F0B589
:100760000A46002300240021002500F00046B6F1CF
:10077000004F02D1364EF16901E0354E7168C0F389
:10078000034583B200F44016B6F5401F08D121F0AE
:1007900070612F4E766826F070662D4F7E6012E0F5
:1007A00000F48016B6F5801F06D1032606FA05F47C
:1007B000A14341F0706106E0460D360103FA06F6EA
:1007C000B14341F0706122B1460D360103FA06F6DD
:1007D000314300F00046B6F1004F02D11C4EF161EA
:1007E00001E01B4E7160F0BD30B500228B071C0F7D
:1007F0000F2303FA04F2164B08338C1053F82430FD
:100800009343134C08348D1044F8253023468C1044
:1008100053F824308C07240F00FA04F423430C4CC3
:1008200008348D1044F8253030BD0A49DC310860A9
:100830007047000000080140000C0140001001401A
:100840000014014000180140001C0140002001403C
:100850000000014000002042DF48006840F0010035
:10086000DD49086008464068DC490840DA494860CC
:1008700008460068DA490840D74908600846006819
:1008800020F4802008600846406820F4FE0048609C
:100890004FF41F0088607047CF49096821F4803108
:1008A000CD4A11601146096821F480211160B0F52C
:1008B000803F03D0B0F5802F0ED106E0C64909680D
:1008C00041F48031C44A116007E0C349096841F42A
:1008D000A021C14A116000E000BF00BF704710B501
:1008E00001460022002300204A11012A02D1BA4CFD
:1008F000236806E0022A02D1B74C236A01E0B64C15
:10090000636A01F01F02012494401C400CB10120D5
:1009100000E0002010BD38B5002000900024002524
:1009200000BF3120FFF7DBFF05460098401C009018
:100930000098B0F5A06F01D0002DF2D03120FFF764
:10094000CEFF08B1012400E00024204638BD014656
:100950000020A14A106820F0F80040EAC1001060B1
:100960007047A04908607047024600209A4B5868BB
:1009700020F47C1042EA01031843974B58607047FB
:1009800098490866704701460020934A506820F055
:1009900003000843506070478F48406800F00C0027
:1009A0007047014600208C4A506820F0F000084350
:1009B0005060704701460020874A506820F4E0608C
:1009C00008435060704701460020834A506820F475
:1009D000605040EAC1005060704729B17E4A527AA7
:1009E00002437D4B5A7204E07B4A527A82437A4B2F
:1009F0005A7270477B49D831086070470146002021
:100A0000754A506820F44040084350607047002108
:100A1000714A20321170704A82F82010012802D0E9
:100A200004280AD104E001216B4A2032117005E04C
:100A30000521694A2032117000E000BF00BF7047F5
:100A40006949086070476449096A0143624A116252
:100A50007047654944390860704730B5002100226D
:100A6000002400235C4D6D6805F00C0121B10429C0
:100A700005D0082923D105E05C4D056022E05B4DDF
:100A800005601FE0544D6D6805F47012524D6D689D
:100A900005F48034022505EB92421CB9544D5543B0
:100AA00005600BE04C4D6D6805F400351DB1504DEF
:100AB0005543056002E04D4D5543056002E04B4D46
:100AC000056000BF00BF444D6D6805F0F0010909E5
:100AD000484D6B5C0568DD4045603F4D6D6805F431
:100AE000E061090A434D6B5C4568DD4085603A4D25
:100AF0006D6805F46051C90A3E4D6B5C4568DD4088
:100B0000C560354D6D6805F44041890B3A4D6B5C0D
:100B1000C568B5FBF3F5056130BD29B12E4A5269B0
:100B200002432D4B5A6104E02B4A526982432A4BFF
:100B30005A61704729B1284A92690243264B9A614B
:100B400004E0254A92698243234B9A61704729B198
:100B5000214AD2690243204BDA6104E01E4AD2697D
:100B600082431D4BDA61704729B11B4AD2680243A8
:100B7000194BDA6004E0184AD2688243164BDA60F7
:100B8000704729B1144A12690243134B1A6104E0F9
:100B9000114A12698243104B1A6170471249403959
:100BA000086070470F49C86470470B49C8717047A7
:100BB0000948406A40F08070074948627047014622
:100BC0000020054A92680A400AB1012000E0002096
:100BD0007047014988727047001002400000FFF81A
:100BE000FFFFF6FE000042428004424200127A00FB
:100BF00000093D00140000202400002010B5044628
:100C0000FB48844209D101218803FFF7ADFF002191
:100C10004FF48040FFF7A8FF32E0F648844209D144
:100C200001214804FFF7ADFF00214FF40030FFF72A
:100C3000A8FF25E0F048844209D101218804FFF78C
:100C4000A0FF00214FF48020FFF79BFF18E0EB4846
:100C5000844209D10121C804FFF793FF00214FF41A
:100C60000020FFF78EFF0BE0E548844208D1012108
:100C70000805FFF786FF00214FF48010FFF781FF82
:100C800010BD2DE9F04786B005460E460024A24669
:100C900000BFA1460027B08900B100BF2F462C8AB3
:100CA0004CF6FF700440F08804432C82AC894EF669
:100CB000F3100440B0883189084371890843044324
:100CC000AC81AC8A4FF6FF400440B0890443AC824B
:100CD00001A8FFF7C2FEC648874202D1DDF810A086
:100CE00001E0DDF80CA0A88900F4004040B10AEB57
:100CF000CA0000EB0A1031684900B0FBF1F807E0C8
:100D00000AEBCA0000EB0A1031688900B0FBF1F869
:100D10006420B8FBF0F004012009642101FB108974
:100D2000A88900F4004040B1322000EBC900B0FBBC
:100D3000F1F000F00700044308E0322000EB091056
:100D40006421B0FBF1F000F00F0004432C8106B0E9
:100D5000BDE8F0874FF41651016000218180C18009
:100D600001810C21418100218181704710B502462B
:100D70000020108A4FF2FF0318400B884C88234351
:100D80008C882343CC8823431843108210BD002154
:100D9000018041808180C180704721B1828942F405
:100DA0000052828104E082894DF6FF731A408281ED
:100DB0007047F0B50346002400260025002040F6C9
:100DC0006A17B94200D100BF1846C1F3421401F0BE
:100DD0001F06012707FA06F5012C01D10C3004E0AB
:100DE000022C01D1103000E014301AB107682F43F3
:100DF000076002E00768AF430760F0BD1AB1838A5D
:100E00000B43838202E0838A8B4383827047028A8A
:100E10004FF6F0731A400282028A0A430282704738
:100E200082894FF2FF731A40828182890A4382814C
:100E3000704721B1828942F00202828104E08289F6
:100E40004FF6FD731A4082817047028A4FF6DF73B6
:100E50001A400282028A0A430282704721B1028A42
:100E600042F48042028204E0028A4BF6FF731A4089
:100E700002827047C1F30802828070470146888869
:100E8000C0F308007047818941F0010181817047FA
:100E9000028BD2B20283028B42EA012202837047A4
:100EA000028B02F47F420283028B0A430283704763
:100EB00021B1828A42F02002828204E0828A4FF6C7
:100EC000DF731A408282704721B1828A42F0100299
:100ED000828204E0828A4FF6EF731A408282704762
:100EE00021B1828A42F00802828204E0828A4FF6AF
:100EF000F7731A408282704721B1828942F400421E
:100F0000828103E08289C2F30E028281704721B19F
:100F1000828A42F40062828204E0828A4FF2FF7386
:100F20001A4082827047828A4FF6FB731A4082828F
:100F3000828A0A438282704721B1828A42F0020289
:100F4000828204E0828A4FF6FD731A4082827047E3
:100F500002460020B1F5007F00D100BF13880B408E
:100F60000BB1012000E00020704701F40072B2F5DF
:100F7000007F00D100BFCA430280704770B50246AF
:100F8000002400230025002040F66A16B14200D15B
:100F900000BFC1F3421501F01F03012606FA03F357
:100FA000012D02D19689334006E0022D02D1168A26
:100FB000334001E0968A33400C12012606FA04F40D
:100FC0001688344013B10CB1012000E0002070BD40
:100FD00010B50022002340F66A14A14200D100BFE0
:100FE0000A1201249440A3B2DC43048010BD000027
:100FF000003801400044004000480040004C0040E0
:101000000050004010B5044600BF8021FE48FFF7A5
:101010009FFF0028F9D02146FB48FFF72BFF10BDAA
:101020002DE9F0478EB081460E4617460025002474
:10103000A046AA222146641C0DF801202146641C0A
:101040000DF8012001222146641C0DF80120002228
:101050002146641C0DF80120EC49304609F019FEC8
:1010600082460AF066F80D909DF835202146641CF2
:101070000DF801209DF834202146641C0DF8012054
:10108000E249484609F005FE82460AF052F840421D
:101090000D909DF835202146641C0DF801209DF827
:1010A00034202046611CCCB20DF80020D7493846C8
:1010B00009F0EFFD82460AF03CF80D909DF83520CE
:1010C0002046611CCCB20DF800209DF8342020464B
:1010D000611CCCB20DF8002000200D909DF8372047
:1010E0002046611CCCB20DF800209DF83620204629
:1010F000611CCCB20DF800209DF835202046611C03
:10110000CCB20DF800209DF834202046611CCCB2F2
:101110000DF80020A0222046611CCCB20DF8002062
:10112000201FC0B28DF8030000BF06E01DF80500C7
:10113000404400F0FF08681CC5B2A542F6DB20461B
:10114000611CCCB20DF80080002505E01DF80500FB
:10115000FFF758FF681CC5B2A542F7DB0EB0BDE82B
:10116000F0872DE9F0418EB005460E460027002499
:10117000A046AA222146641C01A842542146641CB0
:10118000425402222146641C425400222146641C1F
:10119000425472782146641C425432782146641CC1
:1011A0004254F2782146641C4254B2782046611CB5
:1011B000CCB201A90A5472792046611CCCB201A9B3
:1011C0000A5432792046611CCCB201A90A546A78CB
:1011D0002046611CCCB201A90A542A782046611C21
:1011E000CCB201A90A54EA782046611CCCB201A90C
:1011F0000A54AA782046611CCCB201A90A546A7923
:101200002046611CCCB201A90A542A792046611CEF
:10121000CCB201A90A5400222046611CCCB201A91B
:101220000A542046611CCCB201A90A542046611C14
:10123000CCB201A90A542046611CCCB201A90A54BF
:101240002046611CCCB201A90A542046611CCCB2D4
:1012500001A90A54201FC0B28DF8070000BF06E0A4
:1012600001A8C05D404400F0FF08781CC7B2A74247
:10127000F6DB2046611CCCB201A901F800800027F2
:1012800005E001A9C85DFFF7BDFE781CC7B2A74203
:10129000F7DB0EB0BDE8F0812DE9F04794B00020F7
:1012A00006900790089000BF00BF09AA0AA90BA8E2
:1012B00004F0F0FA58B10BA804F08DF95448007E00
:1012C00000F0040018B10BA9032004F0E1F9504824
:1012D000007E00F0010048B109AA0AA90BA804F099
:1012E000A3FA18B10BA9002004F0D2F94848007EF7
:1012F00000F0020048B109AA0AA90BA804F0A6FA56
:1013000018B10BA9012004F0C3F94148007E00F098
:10131000100048B109AA0AA90BA804F023FB18B1D0
:101320000BA9042004F0B4F905AA0AA90BA804F03B
:1013300019FB002842D00B9809F0EAFE80460022F3
:10134000344B09F0C9FD06460022334B09F036FE46
:10135000044609F09FFF314908600C9809F0D8FE57
:10136000064600222B4B09F0B7FD044600222A4B0B
:1013700009F024FE804609F08DFF294908600D9888
:1013800009F0C6FE80460022224B09F0A5FD064664
:101390000022214B09F012FE044609F07BFF21498F
:1013A0000860084602681E4801681C480068FFF78C
:1013B00037FE1D49A1F14400FFF7D3FE05A800F058
:1013C00083FF1348C068059988420AD2059800F542
:1013D0007A700F49C86004A803F044FD03A803F025
:1013E00077FD0B48007E00F0200048B109AA0AA949
:1013F0000BA804F0C3FB18B10BA9052004F048F9B1
:101400000348007E12E00000003801400000C8429E
:10141000B00000200000F03F0000F040400000203D
:1014200044000020480000209402002000F040000A
:1014300048B109AA0AA90BA804F03CFA18B10BA9F3
:10144000062004F025F9FE48008B00F48070D8B126
:1014500009AA0AA906A805F0B3FAA8B1089809F0E4
:10146000D5FE04460D46079809F0D0FE8046894611
:10147000069809F0CBFEF3A28DE80303CDE90445FD
:101480000021042004F043F8ED48008B00F40070C4
:10149000D8B109AA0AA906A805F0C9FAA8B10898FE
:1014A00009F0B4FE04460D46079809F0AFFE064663
:1014B0000F46069809F0AAFEEBA28DE8C300CDE91D
:1014C00004450021042004F022F8DD48007E00F0ED
:1014D0008000E0B105A800F0F7FED948C068059982
:1014E000884213D2059800F57A70D549C86004A8DF
:1014F00003F0B8FC03A803F0EBFC03980090E3A210
:1015000000210420049B04F002F800BF00BF032068
:1015100005F084FD8246BAF1000F10D00AF00100F8
:1015200028B1E5A20021042003F0F1FF07E00AF052
:10153000020020B1E3A20021042003F0E8FF14B070
:10154000BDE8F087F8B50024002500BF00BFBC4807
:10155000407800F0010008B144F00804B848407831
:1015600000F0020020B144F07004B5480078054353
:10157000204601F051FA204601F042FC75B10020EE
:10158000AF490870684602F059F9BDF80000D0492B
:1015900091FBF0F6304604F041FC00BFF8BD70B599
:1015A00004460D4600BF00BF072C29D2DFE804F037
:1015B00028040A10161C2200C6A20021042003F0F1
:1015C000A6FF1EE0C5A20021042003F0A0FF18E042
:1015D000C4A20021042003F09AFF12E0C3A200215C
:1015E000042003F094FF0CE0C2A20021042003F0C9
:1015F0008EFF06E0C1A20021042003F088FF00E076
:1016000070BD00BF2B46BFA20021042003F07FFF66
:1016100000BFF5E710B5044600BF00BF34B1012C90
:101620000AD0022C0ED0032C18D111E0B7A2002151
:10163000042003F06CFF12E0B7A20021042003F0A5
:1016400066FF0CE0B7A20021042003F060FF06E073
:10165000B9A20021042003F05AFF00E010BD00BF32
:1016600000BFFBE72DE9F04F8FB000BF00BF09A915
:101670000CA802F098FE8246BAF1070F7DD1B3A202
:101680000021042003F043FF0B9809F01DFD4FF0EB
:101690008F41069009F02FFB834609F0B7FD044601
:1016A0000D460A9809F010FD4FF08F41069009F0A1
:1016B00022FB834609F0AAFD06460F46099809F069
:1016C00003FD4FF08F41069009F015FB834609F0AA
:1016D0009DFDA1A28DE8C300CDE9044500210420B1
:1016E00003F015FF0E9809F0EFFC4FF08F410690C4
:1016F00009F001FB834609F089FD804689460D9873
:1017000009F0E2FC4FF08F41069009F0F4FA8346AD
:1017100009F07CFD04460D460C9809F0D5FC4FF00D
:101720008F41069009F0E7FA834609F06FFD91A218
:101730008DE833030021042003F0E9FE08A802F03D
:10174000B2F8BDF82010099848430990BDF8201060
:101750000A9848430A90BDF820100B9848430B9014
:10176000032109A804F09AFC07A802F07FF80C985E
:1017700009F0AAFC0546079900E020E009F089FA83
:10178000044609F0D6FC0C900D9809F09DFC054626
:10179000079909F07EFA044609F0CBFC0D900E98EB
:1017A00009F092FC0546079909F073FA044609F01E
:1017B000C0FC0E9003210CA804F0D5FC17E00AF041
:1017C000010020B972A20021062003F0A0FE0AF059
:1017D000020020B972A20021062003F098FE0AF050
:1017E000040020B972A20021062003F090FE0FB081
:1017F000BDE8F08F38B57348FFF740FBC5B200BFB6
:1018000000BF642D14D014DC352D13D00ADCA5F1F3
:101810002C0009280FD2DFE800F0FE0EFD0E0EFCB2
:10182000FBFAF900382D07D007DC362D06D0CBE0C7
:1018300041E1D1E0C0E13DE1DDE0C8E0DEE10000F2
:10184000B00000204C696E65617220416363656C75
:101850003A2025372E35662025372E356620253748
:101860002E35660D0A000000477261766974792092
:10187000566563746F723A2025372E3566202537FA
:101880002E35662025372E35660D0A0057616C6BA4
:10189000656420256C64207374657073206F7665B1
:1018A0007220256C64206D696C6C697365636F6E62
:1018B00064732E2E0A0000004D6F74696F6E210A4A
:1018C000000000004E6F206D6F74696F6E210A007A
:1018D00040420F0054617020582B2000546170204A
:1018E000582D200054617020592B20005461702025
:1018F000592D2000546170205A2B20005461702013
:101900005A2D20007825640A00000000506F727480
:10191000726169740A0000004C616E6473636170E7
:10192000650A00005265766572736520506F7274A7
:10193000726169740A0000005265766572736520F1
:101940004C616E6473636170650A0000506173736B
:101950006564210A00000000616363656C3A20251C
:10196000372E34662025372E34662025372E3466F0
:101970000A0000006779726F3A2025372E346620FE
:1019800025372E34662025372E34660A00000000E5
:101990004779726F206661696C65642E0A000000E9
:1019A000416363656C206661696C65642E0A0000A2
:1019B000436F6D70617373206661696C65642E0A94
:1019C0000000000000380140372D73D11DE1392D92
:1019D00028D0612DF9D135E0A5F16500122869D232
:1019E000DFE800F03EF737535A686868F668616CC4
:1019F0004C45688868F5F648407880F00100F44965
:101A00004870FFF79FFDF248407805E0BDE0A5E093
:101A10008DE078E0EEE0E9E000F0010008B904F0C4
:101A20000FFD67E1EA48407880F00200E84948701D
:101A3000FFF788FDE648407800F0020008B904F09E
:101A40000DFD57E1E248806980F00100E0498861BE
:101A500050E1DF48806980F00200DD49886149E19A
:101A6000DB48806980F01000D949886142E1D8489C
:101A7000806980F02000D64988613BE1D4488069C4
:101A800080F00400D249886134E1D148806980F057
:101A90004000CF4988612DE1CD48806980F4807095
:101AA000CB49886126E1CA48806980F40070C84942
:101AB00088611FE11DE100F02EFF1BE1C448807822
:101AC00000B117E1142001F00FFA002000F071FFBF
:101AD000BF48407820F00600BD494870084640786D
:101AE00040F0010048700120087004F0B7FC04F0D9
:101AF000ABFCFFE0FFF7B6FD04F0A2FC04F0AEFC87
:101B000004F0A2FCF6E0B248807830B10A2002F07E
:101B1000FAFFB04804F0B5F902E00A2001F051FAEA
:101B2000AC4804F06BF9AB4804F078F9E2E0A8485F
:101B3000807838B1142002F0E6FF4CF2503004F007
:101B4000A0F902E0142001F03CFA4CF2503004F00D
:101B500055F94CF2503004F061F9CBE09C488078A4
:101B600038B1282002F0CFFF46F2A81004F089F91E
:101B700002E0282001F025FA46F2A81004F03EF910
:101B800046F2A81004F04AF9B4E09148807838B1E0
:101B9000322002F0B8FF44F6206004F072F902E04F
:101BA000322001F00EFA44F6206004F027F944F6E2
:101BB000206004F033F99DE08548807850B16420BE
:101BC00002F0A1FF42F2107004F05BF905E074E04E
:101BD00072E021E0642001F0F4F942F2107004F0A8
:101BE0000DF942F2107004F019F983E0012003F0BE
:101BF00050FB7FE0022003F04CFB7BE074488069DF
:101C000080F080007249886174E0002003F04BF995
:101C1000002003F081F96DE06D48007800B138BD17
:101C20006B48807860B3002400206949887002F016
:101C300075FB6748407800F0010008B144F00804E3
:101C40006348407800F0020008B144F07004604836
:101C5000407800F0040008B144F00104204601F08F
:101C6000CFF8684602F094FFBDF8000001F0A9F932
:101C700004F0EFFB58A20021042003F048FC1AE016
:101C8000012053498870684601F0D8FDBDF8000076
:101C900002F039FFBDF80000534991FBF0F42046F3
:101CA00004F0EFF8012002F039FB50A200210420DB
:101CB00003F02DFC00BF1DE01CE04548808B80F048
:101CC000100043498883888B03F0A5F94048007FC2
:101CD00000F0100038B904F0BCFB48A20021042039
:101CE00003F015FC04E04CA20021042003F00FFCDB
:101CF00000E000BF00BF0021354880F8211000BF80
:101D00008DE7012032490871704796B0002500F038
:101D10009DFA4FF0E020006940F001004FF0E02113
:101D2000086100F061FA40204149086080200860A5
:101D300002204049086000F045FB00F0F9FA00F08D
:101D4000C5FB3DA009F08AFC11A801F00AFA04467F
:101D50008CB140203649091D08608020091F0860A9
:101D600002203449091F0860234638A200210620BA
:101D700003F0CDFB09E040202D4908608020091DBB
:101D8000086002202B49091F086006F0FBF8044692
:101D900024B138A20021062003F0B9FB08F0BBFBF8
:101DA00007F083FC07F086F907F00DFF03F08DFFC5
:101DB00006F022F90446322C06D104E034A20021B8
:101DC000062003F0A4FBF9E704B16BE06FE000002C
:101DD000B0000020A0860100444D5020646973616A
:101DE000626C65642E0A000040420F00444D502092
:101DF000656E61626C65642E0A0000004C502071B3
:101E000075617465726E696F6E2064697361626C6E
:101E100065642E0A000000004C50207175617465E5
:101E2000726E696F6E20656E61626C65642E0A0069
:101E300010080140140C01406D70752036303530AB
:101E4000207465737420737461727400436F756CD1
:101E500064206E6F7420696E697469616C697A655B
:101E6000206779726F2E726573756C74203D202027
:101E700025640A00436F756C64206E6F7420696E70
:101E8000697469616C697A65204D504C2E0A0000B6
:101E90004E6F7420617574686F72697A65642E0A7A
:101EA00000000000ABA20021062003F030FB7820E8
:101EB00000F0B2FD782000F0A3FF142001F081F8BB
:101EC00014A801F0BBFC13A801F04FFC15A801F009
:101ED0006CFCBDF85000A64991FBF0F6304603F0CB
:101EE0008DFFBDF85000A24991FBF0F6304603F09B
:101EF00095FFA04805F0A9FE0646BDF84C00C103B9
:101F0000304603F072FF9B4805F09FFE06469DF8A1
:101F10005400C103304604F00CF803209649487081
:101F20000020887088610021934880F821100020EB
:101F30009149C8604861086112A800F0C5F902F033
:101F40001DFC8C4805F081FE064602F021FC8B4802
:101F500003F0C1FA8A4803F0C3FA40F273108649CD
:101F60008883888B03F057F8142002F0CCFD012001
:101F700002F0D4F9012080498870EAE0002620218F
:101F80008048FEF7E5FF28B120217E48FEF7EDFFEF
:101F9000FFF730FC12A800F097F977480069129912
:101FA000884205D2129800F5FA707349086101253C
:101FB00071484079D0B1052201214FF4FA7002F046
:101FC00067FB04F03DFA04F049FA04F03DFA04F02E
:101FD00040FA00BF684800790028FBD00022114673
:101FE000104602F055FB0020634948716248407872
:101FF00010B16148007900B9ABE05F480079C8B121
:102000005D480078B0B110A90EA801F05DF9BDF9E6
:1020100038000B90BDF93A000C90BDF93C000D90D2
:1020200000210BA8109A04F000F901260020524963
:10203000087188E050480079002847D04E488078E1
:10204000002843D00AA80BA910AB03AACDE90010C1
:102050000CA90EA803F03EF99DF8280010B9002045
:1020600045490871BDF82C0000F0700070B10EA851
:10207000109904F01AF9012645B1002510A902A80B
:1020800001F059F91099029804F0ABF9BDF82C0051
:1020900000F0080070B1BDF930000790BDF93200C2
:1020A0000890BDF934000990002107A8109A04F0A7
:1020B000BCF80126BDF82C0000F4807028B1002186
:1020C00003A8109A04F0A0F901263CE02A48007900
:1020D000C8B30020284908710AA80BAB10AA0CA9A4
:1020E00000900EA801F037FC9DF8280010B10120E7
:1020F000214908719DF82C0000F0700070B10EA805
:10210000109904F0D2F8012645B1002510A906A8BF
:1021100001F011F91099069804F063F99DF82C006C
:1021200000F0080070B1BDF930000790BDF9320031
:102130000890BDF934000990002107A8109A04F016
:1021400074F8012600BF1EB104F0C9FAFFF7A4F825
:1021500000BF13E7436F756C64206E6F7420737457
:1021600061727420746865204D504C2E0A00000086
:1021700040420F0034000020B00000209F150008EE
:102180001516000800380140704700BFFEE700BF89
:10219000FEE700BFFEE700BFFEE7704770477047ED
:1021A00010B500F097F800F09EF800240CE00D4800
:1021B00050F8240030B10B4850F82400401E094963
:1021C00041F82400601CC4B2022CF0DB10BD10B535
:1021D0002020FEF779F920B1FFF793FD2020FEF7CC
:1021E00084F910BD4C00002008B501210C20FEF739
:1021F000A1FC4020ADF8000010208DF80300032062
:102200008DF8020069460F48FEF7D8F98020ADF836
:10221000000069460B48FEF7D1F90220ADF8000036
:1022200069460948FEF7CAF940210648FEF773FAE5
:1022300080210448FEF76FFA02210348FEF76BFA8B
:1022400008BD000000080140000C014030B52948DD
:1022500000684FF47A72B0FBF2F1B1F1807F01D3E4
:1022600001201DE021F07F40401E4FF0E022506130
:1022700050170F22002807DA13071D0E1E4B00F01F
:102280000F04241F1D5503E013071C0E1B4B1C5489
:1022900000BF00204FF0E022906107201061002075
:1022A00008B100BFFEE74FF0E020006920F0010018
:1022B0004FF0E021086130BD1149086000BF1049AE
:1022C00009680029FBD1704701460E480068086084
:1022D000002070470A48006820B109480068401E85
:1022E00007490860704707480068401C05490860B6
:1022F000704700000000002018ED00E000E400E05E
:10230000580000205400002008B54FF4C060FDF7CD
:10231000F9FF17208DF8000000208DF801008DF8DE
:10232000020001208DF803006846FDF7F0FF08BDAC
:102330000EB501210920FEF7FDFBFFF7E5FF202088
:10234000ADF8080004208DF80B0002A91C48FEF728
:1023500035F905210120FEF747FA202000900020E2
:102360008DF8040008208DF8050001208DF8060086
:102370006846FEF743F80EBD1CB5202000900020F3
:102380008DF8040008208DF8050001208DF8060066
:102390006846FEF733F81CBD1CB5202000900020D5
:1023A0008DF8040008208DF8050000208DF8060047
:1023B0006846FEF723F82020FEF797F81CBD0000C2
:1023C000000C014000B585B001210420FEF7B2FBEE
:1023D00001218803FEF7AEFB4FF40070ADF810004A
:1023E00018208DF8130003208DF8120004A922484C
:1023F000FEF7E4F84FF48060ADF8100004208DF88B
:10240000130004A91C48FEF7D9F84FF4E1300090FE
:102410000020ADF80400ADF80600ADF80800ADF8F6
:102420000C000C20ADF80A0069461448FEF729FCA0
:1024300001211248FEF7B1FC05B000BD70B504469D
:102440000D46E1B20D48FEF715FD00BF80210B4897
:10245000FEF77EFD0028F9D0204670BD10B5044679
:1024600000BF20210548FEF773FD0028F9D003487E
:10247000FEF704FD10BD00000008014000380140D7
:1024800000BF411E081EFCD1704708B5012108207D
:10249000FEF750FBC020ADF8000002208DF80200CE
:1024A00014208DF803006946F548FEF787F84021AF
:1024B000F348FEF730F98021F148FEF72CF9F14896
:1024C000FFF7DEFF08BDF0490880704710B5052012
:1024D000FFF7F9FF00BF00BFFFF7D7FF10BD10B532
:1024E0008021E748FEF719F90A20FFF7C9FF4021CC
:1024F000E348FEF710F90A20FFF7C2FF8021E04809
:10250000FEF709F90A20FFF7BBFF10BD10B5002444
:102510008021DB48FEF7FFF80A20FFF7B1FF4021DA
:10252000D748FEF7F8F80A20FFF7AAFF07E0601C7B
:10253000C4B2FA2C03DDFFF7D2FF022010BD8021C8
:10254000CF48FEF7CEF80028F1D14021CC48FEF765
:10255000E4F80020F2E770B504464021C848FEF7D1
:10256000DCF8002520E004F0800020B18021C44880
:10257000FEF7D1F803E08021C148FEF7CEF86006EF
:10258000040E0A20FFF77CFF4021BD48FEF7C3F888
:102590000A20FFF775FF4021B948FEF7BEF80A2070
:1025A000FFF76EFF681CC5B2082DDCDBFFF7AEFF3E
:1025B00070BD10B58021B248FEF7ADF80A20FFF7D4
:1025C0005FFF4021AE48FEF7A6F80A20FFF758FF4C
:1025D0008021AB48FEF785F808B9012010BD8021A5
:1025E000A748FEF79AF80A20FFF74AFF4021A448BF
:1025F000FEF793F80A20FFF743FF8021A048FEF77B
:1026000070F808B10220E9E70020E7E72DE9F0477C
:1026100006460F46904699460025FFF7CAFF00215F
:1026200041EA4601C8B2FFF796FF054615B12846B4
:10263000BDE8F0873846FFF78EFF05460DB1284606
:10264000F6E7002409E019F80400FFF784FF0546C7
:102650000DB12846ECE7601CC4B24445F3DBFFF73C
:102660003EFF0020E4E78848008870472DE9F047E6
:1026700007468846144699464FF0000A0025FFF7A2
:10268000F2FF064600BF0025E2B24B4641463846FF
:10269000FFF7BCFF05466DB166B15046411C01F025
:1026A000FF0A042802DD2846BDE8F0873046FFF720
:1026B00003FEE8E72846F7E710B580217048FEF7EB
:1026C0002CF80A20FFF7DCFE40216D48FEF723F8C6
:1026D0000A20FFF7D5FE40216948FEF71EF80A20C0
:1026E000FFF7CEFE10BD70B580216548FEF713F8E8
:1026F00040216348FEF711F80024002518E040212E
:102700005F48FEF708F80A20FFF7BAFE6006040EDD
:1027100080215B48FDF7E5FF08B144F0010440214A
:102720005748FDF7FAFF0A20FFF7AAFE681CC5B25A
:10273000082DE4DBFFF7C0FF204670BD10B58021F7
:102740004F48FDF7E8FF0A20FFF79AFE40214C486A
:10275000FDF7E1FF0A20FFF793FE40214848FDF70F
:10276000DCFF0A20FFF78CFE10BD70B580214448C5
:10277000FDF7D1FF40214248FDF7CFFF002400259F
:1027800018E040213E48FDF7C6FF0A20FFF778FE1B
:102790006006040E80213A48FDF7A3FF08B144F01B
:1027A000010440213648FDF7B8FF0A20FFF768FE14
:1027B000681CC5B2082DE4DBFFF7C0FF204670BDE2
:1027C0002DE9F0410746884614461D46FFF7F1FE05
:1027D000002141EA4701C8B2FFF7BDFE064616B127
:1027E0003046BDE8F0814046FFF7B5FE06460EB123
:1027F0003046F6E7FFF7DDFE012101EB4701C8B2E5
:10280000FFF7A9FE06460EB13046EAE70BE0012CC1
:1028100003D1FFF7AAFF287002E0FFF764FF2870DA
:102820006D1C601EC4B2002CF1D1FFF758FE0020D1
:10283000D7E72DE9F04707468846144699464FF0FA
:10284000000A0025FFF70FFF064600BF0025E2B291
:102850004B4641463846FFF7B3FF05466DB166B1BA
:102860005046411C01F0FF0A042802DD2846BDE85D
:10287000F0873046FFF720FDE8E72846F7E700003D
:10288000000C0140A08601006000002038B504461D
:10289000F84890F82400C0B114B10220009001E083
:1028A00000200090F34A1268517CF24A5268107876
:1028B0006B460122FFF7DAFE10B14FF0FF3038BD52
:1028C0009DF80010EB48417423E0EA48807A10B983
:1028D0004FF0FF30F3E724B1E648407C08B1002018
:1028E000EDE714B10120009001E000200090E14AE2
:1028F0001268517CDF4A526810786B460122FFF75C
:10290000B5FE10B14FF0FF30D9E79DF80010D9485F
:1029100041740020D3E71CB5002422E0D5480068AC
:10292000407BA04204D0D3480068007EA04200D182
:1029300015E0D0494968087801AB01222146FFF72C
:1029400078FF10B14FF0FF301CBD9DF80400234606
:10295000C9A200210090042002F0D9FD00BF601C34
:10296000C4B2C44840680079A042D7DC0020EBE73D
:1029700070B504460D46BF480068407BA04204D0B5
:10298000BC480068007EA04202D14FF0FF3070BD0D
:10299000B84840680079A04202DC4FF0FF30F6E70B
:1029A000B449496808782B4601222146FFF741FFC8
:1029B000EDE738B50446AF4890F82300A04201D1B6
:1029C000002038BD14B13020009001E000200090BC
:1029D000A848807C20B19DF8000040F002000090E3
:1029E000A44890F8220020B19DF8000040F080003B
:1029F0000090A04A1268D17D9E4A526810786B46BA
:102A00000122FFF733FE10B14FF0FF30D9E79948AC
:102A100080F823400020D4E738B5044604F0700065
:102A200010B10120009005E014B10020009001E0F9
:102A3000402000908F4A1268517D8E4A526810786B
:102A40006B460122FFF712FE20B1002189488172F6
:102A5000481E38BD9DF8000020F0400185480173F4
:102A60000020009004F0400020B99DF8000040F0E4
:102A70000400009004F0200020B99DF8000040F010
:102A80000200009004F0100020B99DF8000040F012
:102A90000100009004F0080020B99DF8000040F00B
:102AA00038000090734A1268917D724A526810781B
:102AB0006B460122FFF7DAFD20B100216D488172DB
:102AC000481EC6E724B1082C02D00020FFF771FF92
:102AD00068488472002101753220FFF7EDFB002069
:102AE000B7E738B504466348807CA04201D1002096
:102AF00038BD002C46D05F4A126811795D4A526891
:102B000010786B460122FFF794FE10B14FF0FF30B2
:102B1000EEE79DF8000020F020000090554A126872
:102B20001179544A526810786B460122FFF79EFDD6
:102B300010B14FF0FF30DBE70320FFF7BDFB0220B1
:102B400000904C4890F8220020B19DF8000040F021
:102B500080000090474890F8230020B19DF80000C5
:102B600040F030000090434A1268D17D414A5268DB
:102B700010786B460122FFF779FD002851D04FF005
:102B8000FF30B5E73B4A126811793A4A526810782B
:102B90006B460122FFF74DFE10B14FF0FF30A7E763
:102BA0003448807A00F0010028B19DF8000040F020
:102BB0002000009004E09DF8000020F0200000902C
:102BC0002C4A126811792B4A526810786B46012200
:102BD000FFF74CFD10B14FF0FF3089E70320FFF7FE
:102BE0006BFB244890F8220010B18020009001E097
:102BF000002000901F4890F8230020B19DF80000AD
:102C000040F0300000901B4A1268D17D194A52688A
:102C100010786B460122FFF729FD10B14FF0FF300D
:102C200066E714488474002062E708B51148807A8A
:102C300010B94FF0FF3008BD002000900D4A126817
:102C4000517C0C4A526810786B460122FFF70EFD4A
:102C500010B14FF0FF30EEE7064A12685179054A8D
:102C6000526810786B460122FFF700FD60B14FF00B
:102C7000FF30E0E764000020252335783A20252343
:102C800035780D0A00000000F84A12681179F74AF9
:102C9000526810786B460122FFF7E8FC10B14FF044
:102CA000FF30C8E7F14890F82400002853D00C20EA
:102CB0000090EE4A12681179EC4A526810786B461F
:102CC0000122FFF7D3FC10B14FF0FF30B3E7322001
:102CD000FFF7F2FAC0200090E448807A00F001008B
:102CE00020B19DF8000040F020000090DF4A1268FB
:102CF0001179DE4A526810786B460122FFF7B6FC64
:102D000010B14FF0FF3096E7D848407C10B1022058
:102D1000009001E000200090D44A1268517CD34A10
:102D2000526810786B460122FFF7A0FC10B14FF0FB
:102D3000FF3080E700200090CC4A12685179CB4ADE
:102D4000526810786B460122FFF790FC002855D09E
:102D50004FF0FF306FE704200090C44A12681179E9
:102D6000C24A526810786B460122FFF77FFC10B10F
:102D70004FF0FF305FE7BD48807C20B9BB48807AC8
:102D800000F0010010B94020009001E060200090A8
:102D9000B64A12681179B54A526810786B4601221A
:102DA000FFF764FC10B14FF0FF3044E73220FFF72B
:102DB00083FAAE48407C10B10120009001E0002071
:102DC0000090AA4A1268517CA84A526810786B4653
:102DD0000122FFF74BFC10B14FF0FF302BE7A34A65
:102DE00012685179A14A52681078A04B1033012221
:102DF000FFF73CFC10B14FF0FF301CE700201AE752
:102E000070B50446002624F00104984890F8240088
:102E100008B1002070BD9548807A10B94FF0FF309E
:102E2000F8E79248057C807A20409049087408466B
:102E3000007CA04202D04FF0FF3600E0002614B91B
:102E40008A48007D18B10120FFF720FD02E0002034
:102E5000FFF71CFD3CB1FFF7E8FE20B18348057485
:102E60004FF0FF30D6E73046D4E738B504467F4808
:102E7000807A10B94FF0FF3038BDBC2C02DB012046
:102E8000009015E0622C02DB0220009010E02A2C5A
:102E900002DB032000900BE0142C02DB04200090E6
:102EA00006E00A2C02DB0520009001E006200090DD
:102EB0006E48C07A9DF80010884201D10020DBE7FF
:102EC0006A4A12689178694A526810786B46012202
:102ED000FFF7CCFB10B14FF0FF30CDE79DF80010AD
:102EE0006248C1720020C7E738B50446282C02DDCD
:102EF0004FF0FF3038BDDCB90020FFF75AFD00204D
:102F00008DF8000007208DF80100584A1268517DA5
:102F1000564A526810786B460222FFF7A7FB10B1A1
:102F20004FF0FF30E6E70021504801750020E1E74F
:102F30000120FFF73EFD20208DF80000012C06D176
:102F400000208DF801000520FFF78FFF17E0052C0A
:102F500006DC01208DF801000520FFF786FF0EE05A
:102F6000142C06DC02208DF801000A20FFF77DFFFB
:102F700005E003208DF801001420FFF776FF9DF88F
:102F80000100072101EB8010C0B28DF80100374A23
:102F90001268517D354A526810786B460222FFF75D
:102FA00065FB10B14FF0FF30A4E708212F48817274
:102FB00000210173012101750020FFF721FF00208E
:102FC00098E738B504462948807A10B94FF0FF30A9
:102FD00038BD264890F8240010B14FF0FF30F7E7D5
:102FE0002248007D50B134B1282C04DC2046FFF784
:102FF0007BFF0020ECE70020FFF776FF042C01DACE
:10300000042404E0B4F57A7F01DD4FF47A744FF4C0
:103010007A7090FBF4F0401EC0B20090134A126820
:103020005178124A526810786B460122FFF71EFB56
:1030300010B14FF0FF30CBE79DF80000401C4FF47B
:103040007A7191FBF0F081B20848C1810146C989CB
:103050004810FFF70AFF0020BAE738B504460348D6
:10306000807A28B94FF0FF3038BD0000640000209E
:10307000022C06D0042C07D0082C08D0102C0CD120
:1030800008E0002000900BE00820009008E01020ED
:10309000009005E01820009002E04FF0FF30E3E7D9
:1030A00000BFF748407A9DF80010B0EBE10F01D166
:1030B0000020D9E7F24A1268D179F14A52681078B3
:1030C0006B460122FFF7D2FA10B14FF0FF30CBE789
:1030D0009DF80000C110EA4841720020C4E738B5ED
:1030E0000446E748807A10B94FF0FF3038BDFA2C1B
:1030F00009D0B4F5FA7F09D0B4F57A7F09D0B4F5D8
:10310000FA6F0CD108E0002000900BE0082000903E
:1031100008E01020009005E01820009002E04FF039
:10312000FF30E3E700BFD648007A9DF80010B0EB0F
:10313000E10F01D10020D9E7D14A12689179D04A34
:10314000526810786B460122FFF790FA10B14FF0E9
:10315000FF30CBE79DF80000C010C949087200207D
:10316000C4E71CB5044680208DF80000C44A1268EC
:10317000517DC34A526810786B460122FFF776FAF8
:1031800010B14FF0FF301CBD6420FFF795F8002010
:103190008DF80000BA4A1268517DB94A5268107819
:1031A0006B460122FFF762FA10B14FF0FF30EAE7F9
:1031B0000021B348C174FF218172FF20B049087219
:1031C000FF21AF484172C1724FF6FF71C181FF21EB
:1031D000017481740121017380F82210002180F8AC
:1031E0002310417501751630016041608160163809
:1031F00080F8241080F82510C1844FF4FA60FFF79E
:103200006EFF10B14FF0FF30BDE70220FFF725FF42
:1032100010B14FF0FF30B6E72A20FFF726FE10B1BD
:103220004FF0FF30AFE73220FFF7CBFE10B14FF089
:10323000FF30A8E70020FFF7E3FD10B14FF0FF30AB
:10324000A1E70020FFF74DFC10B14FF0FF309AE7E7
:103250000020FFF7E1FB002095E77CB504460D4612
:103260008748807A00F0700010B94FF0FF307CBDC5
:10327000834A1268917B824A526810786B46062214
:10328000FFF7D7FA10B14FF0FF30F0E79DF80100DB
:103290009DF8001040EA012000B220809DF8030054
:1032A0009DF8021040EA012000B260809DF8050000
:1032B0009DF8041040EA012000B2A08015B1284614
:1032C000FFF702F80020D2E77CB504460D466C48B3
:1032D000807A00F0080010B94FF0FF307CBD684ADA
:1032E0001268D17B664A526810786B460622FFF757
:1032F000A0FA10B14FF0FF30F0E79DF801009DF803
:10330000001040EA012000B220809DF803009DF8E3
:10331000021040EA012000B260809DF805009DF88F
:10332000041040EA012000B2A08015B12846FEF743
:10333000CBFF0020D2E72DE9FE4F05460C46504852
:10334000807A18B94FF0FF30BDE8FE8F4C4A126802
:10335000117C4B4A5268107802AB0222FFF769FADF
:1033600010B14FF0FF30EFE79DF809009DF808100D
:1033700040EA012006B214B12046FEF7A5FF4049FD
:103380004968C88807F0A9FE3D4901904968B1F92C
:10339000080007F099FE8346304607F095FE59462F
:1033A000009007F070FC8246019907F0A4FC81466A
:1033B000344907F016FC80464FF08F4107F069FC56
:1033C000074607F0B6FE28600020BDE71CB504469E
:1033D0002B49496808786B4602227721FFF729FAC2
:1033E00010B14FF0FF301CBD2549496808780DF138
:1033F000020302227A21FFF71CFA10B14FF0FF30CE
:10340000F1E71F494968087801AB02227D21FFF7E7
:1034100010FA10B14FF0FF30E5E79DF801009DF87C
:10342000001040EA012020609DF803009DF8021082
:1034300040EA012060609DF805009DF8041040EA14
:103440000120A0600020CEE71CB504460C49496865
:1034500008786B4602220621FFF7EBF910B14FF016
:10346000FF301CBD0649496808780DF102030222AD
:103470000821FFF7DEF938B14FF0FF30F1E7000027
:103480006400002000000C42F7494968087801AB4D
:1034900002220A21FFF7CDF910B14FF0FF30E0E72B
:1034A0009DF801009DF8001040EA012020609DF881
:1034B00003009DF8021040EA012060609DF80500BD
:1034C0009DF8041040EA0120A0600020C9E71CB567
:1034D0000446E549496808786B4602221321FFF744
:1034E000A8F910B14FF0FF301CBDDF4949680878DA
:1034F0000DF1020302221521FFF79BF910B14FF0E5
:10350000FF30F1E7D8494968087801AB022217215A
:10351000FFF78FF910B14FF0FF30E5E79DF801009C
:103520009DF8001040EA012020609DF803009DF8FE
:10353000021040EA012060609DF805009DF804102B
:1035400040EA0120A0600020CEE77CB504460020C0
:1035500000900190002500BF05E054F8250040428E
:1035600044F825006D1C032DF7DB2088000A8DF838
:10357000000020788DF80100A088000A8DF8020074
:1035800020798DF803002089000A8DF80400207A44
:103590008DF80500B449496808786B46022213216A
:1035A000FFF764F810B14FF0FF307CBDAE494968B9
:1035B00008780DF1020302221521FFF757F810B128
:1035C0004FF0FF30F1E7A8494968087801AB0222C3
:1035D0001721FFF74BF810B14FF0FF30E5E700205F
:1035E000E3E710B586B004460020049005900190F2
:1035F0000290039001A8FFF727FF18B14FF0FF30AA
:1036000006B010BD0198216821F00101401A019017
:103610000298616821F00101401A02900398A168A4
:1036200021F00101401A03900198000A8DF8100062
:103630000198C0B28DF811000298000A8DF81200AE
:103640000298C0B28DF813000398000A8DF8140098
:103650000398C0B28DF8150083494968087804AB17
:1036600002220621FFF702F810B14FF0FF30C7E742
:103670007D49496808780DF1120302220821FEF7FE
:10368000F5FF10B14FF0FF30BAE777494968087885
:1036900005AB02220A21FEF7E9FF10B14FF0FF301F
:1036A000AEE70020ACE710B586B0044600200490D9
:1036B000059001900290039001A8FFF787FE18B1D2
:1036C0004FF0FF3006B010BD0198216821F00101D4
:1036D000401A01900298616821F00101401A02909D
:1036E0000398A16821F00101401A03900198000A93
:1036F0008DF810000198C0B28DF811000298000AF0
:103700008DF812000298C0B28DF813000398000AD9
:103710008DF814000398C0B28DF81500524949681D
:10372000087804AB02227721FEF7A0FF10B14FF01A
:10373000FF30C7E74C49496808780DF112030222AF
:103740007A21FEF793FF10B14FF0FF30BAE74649F8
:103750004968087805AB02227D21FEF787FF10B18A
:103760004FF0FF30AEE70020ACE701463E48007A5C
:1037700030B1012807D0022809D003280FD10AE070
:10378000FA2008800EE04FF4FA7008800AE04FF447
:103790007A70088006E04FF4FA60088002E00020AA
:1037A000088000BF00BF0020704701462E48407AC5
:1037B00030B1012807D0022808D003280CD108E036
:1037C000022008700BE00420087008E00820087050
:1037D00005E01020087002E04FF0FF30704700BF96
:1037E0002148C07C18B108784006000E08700020FF
:1037F000F4E701461C48C07A082817D2DFE800F039
:103800001704070A0D101318BC20088013E062206B
:10381000088010E02A2008800DE0142008800AE0CB
:103820000A20088007E00520088004E000BF00BFF0
:103830000020088000BF00BF0020704701460A48F2
:1038400090F8240010B14FF0FF3070470648C0894F
:1038500008800020F9E7014600200880401E7047DC
:1038600001464FF0FF307047640000200146FE48DB
:10387000007A30B1012807D0022808D003280CD1E3
:1038800008E0FA4808600BE0F948086008E0F948E9
:10389000086005E0F848086002E04FF0FF3070472C
:1038A00000BF0020FBE70146EF48407A30B1012815
:1038B00008D002280AD0032810D10BE04FF4804032
:1038C00008800EE04FF4005008800AE04FF480506A
:1038D000088006E04FF40060088002E04FF0FF30FF
:1038E000704700BFE048C07C10B1088840100880D5
:1038F0000020F5E70146DC48007C08700020704796
:103900000146D948807A10B10120087001E00020FA
:1039100008700020704738B50446D348807A10B943
:103920004FF0FF3038BDD04A1268917CCE4A5268C1
:1039300010786B460222FEF77CFF10B14FF0FF308B
:10394000F0E79DF801009DF8001040EA012000B268
:1039500020800020E6E72DE9FE4F07468846924684
:103960001D46DDF830B000260024BF4890F8240042
:1039700010B1601EBDE8FE8F00202870BA48807A22
:1039800010B94FF0FF30F5E7B748007C10B94FF0A1
:10399000FF30EFE7B448007C00F0400008B1B01CF5
:1039A000C6B2B148007C00F0200008B1B01CC6B21D
:1039B000AD48007C00F0100008B1B01CC6B2AA48A7
:1039C000007C00F0080008B1B01DC6B2A64A12681B
:1039D000117BA54A526810786B460222FEF729FF38
:1039E00010B14FF0FF30C5E79DF801009DF80010C1
:1039F00040EA0129B14501DA0020BBE79A48406856
:103A00004088B9EB600F17DD974A1268D17C964A5F
:103A1000526810786B460122FEF70BFF10B14FF091
:103A2000FF30A7E79DF8000000F0100020B1FFF77D
:103A3000FCF86FF001009DE75046FEF745FC8A4A0E
:103A40001268517B884A526810786B463246FEF7FE
:103A5000F0FE10B14FF0FF308CE799FBF6F0401EFE
:103A60008BF8000000202870B4422AD07E48007CE9
:103A700000F0080028B3601C1DF800001DF80410B9
:103A800040EA012000B2A8F80000E01C1DF8001078
:103A9000A01C1DF8000041EA002000B2A8F80200B6
:103AA000601D1DF80010201D1DF8000041EA0020D7
:103AB00000B2A8F80400287840F008002870A01D83
:103AC00084B2B44213D06848007C00F0400070B16A
:103AD000601C1DF800001DF8041040EA012000B22F
:103AE0003880287840F040002870A01C84B2B4428E
:103AF00013D05D48007C00F0200070B1601C1DF800
:103B000000001DF8041040EA012000B278802878F7
:103B100040F020002870A01C84B2B44213D0524858
:103B2000007C00F0100070B1601C1DF800001DF852
:103B3000041040EA012000B2B880287840F010005C
:103B40002870A01C84B2002014E7F8B504460F4684
:103B50001646454890F8240010B94FF0FF30F8BDE4
:103B60004148807A10B94FF0FF30F8E73E4A1268BA
:103B7000117B3D4A526810786B460222FEF759FECF
:103B800010B14FF0FF30EAE79DF801009DF80010FA
:103B900040EA0125A54203DA00203070401EDEE72E
:103BA000314840684088B5EB600F17DD2E4A126837
:103BB000D17C2D4A526810786B460122FEF739FEFF
:103BC00010B14FF0FF30CAE79DF8000000F0100080
:103BD00020B1FFF72AF86FF00100C0E7224A12680F
:103BE000517B214A526810783B462246FEF721FE5F
:103BF00010B14FF0FF30B2E795FBF4F0401E30708B
:103C00000020ACE70146184880F8221000207047D9
:103C10007CB5054614494968087801AB04220D219A
:103C2000FEF707FE08B107207CBD9DF80700C0F332
:103C300001109DF8041001F0E00140EAE1008DF868
:103C400000009DF80700C0F381009DF8051001F009
:103C5000E00140EAE1008DF801009DF8070000F066
:103C600003009DF8061009E06400002000000343F3
:103C700000008342333303423333834101F0E001D8
:103C800040EAE1008DF8020000241CE01DF8040069
:103C900018B9002045F8240013E0FC4845F824003A
:103CA00006E055F82400FA4906F0F3FF45F8240031
:103CB0001DF80400401EC0B20DF804000028F0D129
:103CC00000BF601CC4B2032CE0DB0020ACE72DE990
:103CD000F04F85B006468946002502A8FFF798FFF9
:103CE00000244BE056F8240059F82410471A002FFE
:103CF00001DB394600E07942084607F0E5F98046E5
:103D00004FF08F4106F0F7FF824602A951F82400D8
:103D1000002107F0DBFA21D002A850F82410504609
:103D200006F0E9FF07464FF07E5106F0ACFF8346F0
:103D3000D849486A07F06AFA07468846584607F0A5
:103D400065FA21F000413A464346CDE9000107F00B
:103D500089FA12D20120A04005430EE0CD48C16986
:103D6000504607F0B3FA05D3CA48016A504607F037
:103D7000B7FA02D20120A0400543641C032CB1DB3A
:103D8000284605B0BDE8F08F2DE9F04F85B0064616
:103D90000F460025C0494968087804AB03220D216D
:103DA000FEF747FD18B1072005B0BDE8F08F9DF87C
:103DB000100000F01F008DF810009DF8110000F0B9
:103DC0001F008DF811009DF8120000F01F008DF803
:103DD0001200002461E056F8240057F82410A0EBEC
:103DE000010BBBF1000F01DB594601E0CBF10001F3
:103DF000084607F069F94FF08F41039006F07BFF0A
:103E0000814604A8005DB8B3A249086807F065F9C7
:103E100083465946A14806F06EFF804604E0A0495B
:103E2000404606F036FF804604A8005D401EC0B242
:103E300004A908550028F2D14146484606F05BFF28
:103E400083464FF07E5106F01EFF824691498869F5
:103E500007F0DCF9CDE90201504607F0D7F921F06F
:103E60000041CDE90001DDE9022307F0FBF913D29F
:103E70000120A04005430FE0FFE78648016948465E
:103E800007F024FA05D383484169484607F028FA29
:103E900002D20120A0400543641C032C9BDB284672
:103EA00082E72DE9F04F87B005460C469146012088
:103EB0008DF8100000208DF81100774A1268517DAE
:103EC000754A5268107804AB0222FEF7CFFB20B18E
:103ED0004FF0FF3007B0BDE8F08FC820FEF7ECF9D7
:103EE00000208DF810006C4A1268517C6A4A5268B2
:103EF000107804AB0122FEF7B9FB10B14FF0FF3090
:103F0000E8E7654A12685179634A5268107804AB51
:103F10000122FEF7ABFB10B14FF0FF30DAE75E4A4B
:103F20001268517D5C4A5268107804AB0122FEF79A
:103F30009DFB10B14FF0FF30CCE7574A1268917EDD
:103F4000554A5268107804AB0122FEF78FFB10B17E
:103F50004FF0FF30BEE7504A126811794E4A52685E
:103F6000107804AB0122FEF781FB10B14FF0FF3057
:103F7000B0E70C208DF81000474A12681179464AC4
:103F80005268107804AB0122FEF770FB10B14FF0BD
:103F9000FF309FE70F20FEF78FF93F48806A407A95
:103FA0008DF810003C4A126891783B4A52681078AC
:103FB00004AB0122FEF75AFB10B14FF0FF3089E746
:103FC0003548806A007A8DF81000334A12685178BB
:103FD000314A5268107804AB0122FEF747FB10B15A
:103FE0004FF0FF3076E7B9F1000F07D02A48806A1A
:103FF000807A40F0E0008DF8100004E02648806AE6
:10400000807A8DF81000244A12689179224A526809
:10401000107804AB0122FEF729FB10B14FF0FF30FE
:1040200058E7B9F1000F07D01B48806AC07A40F00A
:10403000E0008DF8100003E01648C07A8DF81000FB
:10404000154A1268D179144A5268107804AB0122DB
:10405000FEF70CFB10B14FF0FF303BE7B9F1000F5A
:1040600002D0C820FEF728F940208DF810000A4A37
:1040700012681179084A5268107804AB0122FEF7E1
:10408000F5FA78B14FF0FF3024E700007B14AE3E24
:104090001D5A843FB0CC00086400002000B04C459D
:1040A00054E3853F78208DF81000FE4A126851795C
:1040B000FC4A5268107804AB0122FEF7D7FA10B11F
:1040C0004FF0FF3006E7F8498889FEF7F5F8002041
:1040D0008DF81000F34A12685179F24A526810784C
:1040E00004AB0122FEF7C2FA10B14FF0FF30F1E647
:1040F000EC4A1268117BEB4A5268107804AB02223A
:10410000FEF797FB10B14FF0FF30E3E69DF811008A
:104110009DF8101040EA012B0C209BFBF0F0C6B27A
:104120000020A86068602860A0606060206082460F
:1041300065E0DC4A1268517BDA4A5268107804ABB9
:104140000C22FEF776FB10B14FF0FF30C2E69DF86F
:1041500011009DF8101040EA012000B2ADF80800EF
:104160009DF813009DF8121040EA012000B2ADF84E
:104170000A009DF815009DF8141040EA012000B2D5
:10418000ADF80C00BDF90810206808442060BDF9A6
:104190000A10606808446060BDF90C10A06808440B
:1041A000A0609DF817009DF8161040EA012000B2AB
:1041B000ADF800009DF819009DF8181040EA0120A4
:1041C00000B2ADF802009DF81B009DF81A1040EAFD
:1041D000012000B2ADF80400BDF9001028680844C1
:1041E0002860BDF90210686808446860BDF90410D1
:1041F000A8680844A8600AF1010000F0FF0AB2456F
:1042000097DBA948D0F800C02868C117090441EA23
:104210001041070462460023384606F051FC32463E
:104220000023CDE9020106F04BFC28609E48D0F83F
:1042300000C06868C117090441EA104107046246DA
:104240000023384606F03CFC32460023CDE902014B
:1042500006F036FC68609448D0F800C0A868C11722
:10426000090441EA1041070462460023384606F07B
:1042700027FC32460023CDE9020106F021FCA860AC
:104280008948D0F804C02168C817000440EA1148E2
:104290000F04624600233846414606F011FC3246C0
:1042A0000023CDE9020106F00BFC20607E48D0F827
:1042B00004C06068C117090441EA1041070462465E
:1042C0000023384606F0FCFB32460023CDE902010C
:1042D00006F0F6FB60607448D0F804C0A068C1170F
:1042E000090441EA1041070462460023384606F0FB
:1042F000E7FB32460023CDE9020106F0E1FBA060B6
:10430000A068002804DDA068A0F58030A06003E06C
:10431000A06800F58030A0600020DBE538B50446D9
:10432000604890F82400A04201D1002038BD24B399
:104330005C4890F8250010B94FF0FF30F6E70020F8
:10434000FEF7A4FA0020FEF7CCFB5649C88CFEF716
:1043500038FE002000905349496808786B460122D6
:104360002321FEF783F901214E4880F82410012013
:10437000FEF78CFAFEF759FC13E00020FEF786FAF0
:104380004848007C00904749496808786B460122FC
:104390002321FEF76BF90021424880F82410FEF734
:1043A00044FC0020C2E72DE9F04F8DB083460F4654
:1043B00002200C903B4890F8240020B10020FFF729
:1043C000ADFF012600E0002603A8FFF7CEF905A8FF
:1043D000FFF7EBF901A8FFF70CFA02A8FFF72EFA96
:1043E000304890F80AA004A8FFF784FA002407E0F8
:1043F000002239465846FFF754FD00B902E0641C1C
:10440000022CF5DB00BF022C01D100252AE000249C
:1044100007E0012206A909A8FFF743FD00B902E061
:10442000641C022CF5DB00BF022C01D1002519E031
:1044300006A93846FFF74BFC00F0FF0809A95846CB
:10444000FFF7A2FC00F0FF090025B9F1000F01D130
:1044500045F00105B8F1000F01D145F0020545F026
:10446000040500BFFF200F490872FF210D4841726B
:10447000C1724FF6FF71C181FF2181720174012168
:104480000173BDF80C00FEF72AFE9DF81400FEF73C
:10449000E4FDBDF80400FEF7E8FCBDF80800FEF7F7
:1044A00090FD03E064000020B0CC00085046FEF709
:1044B000B3FA9DF81000FEF7A3FC16B10120FFF738
:1044C0002DFF28460DB0BDE8F08FF8B504460D4627
:1044D000164616B94FF0FF30F8BDA748807A10B9DC
:1044E0004FF0FF30F8E720128DF80000E0B28DF8B1
:1044F00001009DF8010028449F4949684989884284
:1045000002DD4FF0FF30E7E79B4A1268D17E9A4AFE
:10451000526810786B460222FEF7A8F810B14FF0EF
:10452000FF30D9E7944A1268117E934A5268107896
:1045300033462A46FEF79AF810B14FF0FF30CBE72A
:104540000020C9E7F8B504460D46164616B94FF0E7
:10455000FF30F8BD8848807A10B94FF0FF30F8E797
:1045600020128DF80000E0B28DF801009DF80100E6
:104570002844814949684989884202DD4FF0FF306B
:10458000E7E77D4A1268D17E7B4A526810786B4615
:104590000222FEF76BF810B14FF0FF30D9E7764AF0
:1045A0001268117E744A5268107833462A46FEF724
:1045B00040F910B14FF0FF30CBE70020C9E72DE9FB
:1045C000F04385B005460E46904699466A4890F8F5
:1045D000250020B14FF0FF3005B0BDE8F08316B9DB
:1045E0004FF0FF30F8E7002423E0281B102801DDFE
:1045F000102000E0281B87B2321939462046FFF709
:1046000064FF10B14FF0FF30E6E701AA39462046BB
:10461000FFF798FF10B14FF0FF30DDE730193A4651
:1046200001A906F0D1FA10B16FF00100D4E7E0194A
:1046300084B2AC42D9DB4FEA28208DF8000008F0A4
:10464000FF008DF801004C4A1268517F4A4A5268B7
:1046500010786B460222FEF709F810B14FF0FF30D8
:10466000BAE70121444880F82510A0F826900020E0
:10467000B2E70146404890F82400087000207047D7
:1046800002464FF0FF30704701464FF0FF30704751
:1046900070B506460C46154665B304B90124364884
:1046A000407D002833D1344890F8240038B10020F0
:1046B000FFF734FE0121304880F8201003E000218C
:1046C0002D4880F820102C481630FFF74EF82A4865
:1046D0001830FFF76AF828481A30FFF78AF826489A
:1046E0001C30FFF7ABF82448817A81771F30FFF741
:1046F00001F90CE0204A1632002103E0505C00B1C1
:1047000006E0491C0C29F9D34FF0FF3070BD00BF03
:10471000FF2019490872FF2117484172C1724FF6F4
:10472000FF71C181FF218172017401210173014672
:10473000887FFEF771F91049C88AFEF7D0FC0E4950
:10474000087EFEF78AFC0C49488BFEF78EFB0A496F
:10475000888BFEF736FC0849C87FFEF751FB0648F8
:1047600090F8200010B10120FFF7D8FD0021024889
:1047700041750020CAE700006400002010B5C8237E
:104780004FF48062F84940F6F630FFF718FF10BD8D
:1047900010B586B00446F5A000680390F4A0006848
:1047A0000290F4A000680190F3A00068009004F06B
:1047B000030003A9085C8DF8140003A8C4F3C10129
:1047C000405C8DF8150003A8C4F38111405C8DF89E
:1047D000160004F0030002A9085C8DF8100002A87E
:1047E000C4F3C101405C8DF8110002A8C4F381112B
:1047F000405C8DF8120005AA032140F22640FFF725
:1048000064FE18B14FF0FF3006B010BD04AA0321BA
:1048100040F22A40FFF759FE10B14FF0FF30F3E7A6
:10482000019805900098049004F0040058B19DF898
:10483000140040F001008DF814009DF8100040F0C5
:1048400001008DF8100004F0200058B19DF815000B
:1048500040F001008DF815009DF8110040F00100B6
:104860008DF8110004F4807058B19DF8160040F0E6
:1048700001008DF816009DF8120040F001008DF83F
:10488000120005AA03214FF48860FFF71EFE10B145
:104890004FF0FF30B8E704AA032140F23140FFF7A0
:1048A00014FE10B14FF0FF30AEE7B4480481002091
:1048B000AAE71FB50446B148007A00F0030054F897
:1048C00020000190AD48007A00F0040010B101987A
:1048D00040420190A948007AC0F3C10054F820007A
:1048E0000290A648007A00F0200010B102984042E1
:1048F0000290A248007AC0F3811054F8200003907F
:104900009E48008900F4807010B1039840420390E3
:104910009B49019880FB0101800F40EA81000190D2
:104920009749029880FB0110820042EA9170029040
:104930009349039880FB0110820042EA9170039032
:104940000198000E8DF800000198000C8DF8010010
:104950000198000A8DF802000198C0B28DF803009A
:104960006A4604214FF47470FFF7AFFD18B14FF0A1
:10497000FF3004B010BD0298000E8DF800000298C0
:10498000000C8DF801000298000A8DF802000298D0
:10499000C0B28DF803006A4604214FF47570FFF72A
:1049A00094FD10B14FF0FF30E3E70398000E8DF84F
:1049B00000000398000C8DF801000398000A8DF8A0
:1049C00002000398C0B28DF803006A4604214FF438
:1049D0007670FFF77AFDCCE770B588B0064601A87F
:1049E000FEF761FFBDF804000021C90341EA50450C
:1049F000C40300BF6148007A00F0030056F82000AD
:104A000005905E48007A00F0040010B1059840421D
:104A100005905A48007AC0F3C10056F8200006906D
:104A20005648007A00F0200010B1069840420690E7
:104A30005248007AC0F3811056F8200007904F4882
:104A4000008900F4807010B10798404207900598E3
:104A5000C117A0FB042301FB043100FB05108100FA
:104A600041EA927005900698C117A0FB042301FB50
:104A7000043100FB0510810041EA9270069007980E
:104A8000C117A0FB042301FB043100FB05108100CA
:104A900041EA927007900598000E8DF8080005987D
:104AA000000C8DF809000598000A8DF80A00059899
:104AB000C0B28DF80B000698000E8DF80C00069819
:104AC000000C8DF80D000698000A8DF80E0006986F
:104AD000C0B28DF80F000798000E8DF810000798EF
:104AE000000C8DF811000798000A8DF81200079845
:104AF000C0B28DF8130002AA0C214FF42570FFF705
:104B0000E4FC08B070BD30B585B004461DA207CAEC
:104B100002AB07C3C82C03DD4FF0FF3005B030BD3A
:104B2000C82090FBF4F0401E85B2280A8DF80000E2
:104B3000E8B28DF801006A46022140F21620FFF724
:104B4000C4FC10B14FF0FF30E8E702AA0C2140F698
:104B5000C120FFF7BAFC10B14FF0FF30DEE7074885
:104B600084810020DAE70000D8CC00084CCD6C002E
:104B70000CC92C003656760026466600D40000206C
:104B800009E3CA02FEF2ABC4AAF1DFDFBBAFDFDF8D
:104B90000146FC4880890880002070472DE9FC47C9
:104BA00006460F4606F0070010B1B7F5C86F03DDE3
:104BB0004FF0FF30BDE8FC87384606F08EFA81469C
:104BC000F14906F098F880466846FEF7EEFD9DF83C
:104BD0000000022806D0042816D0082826D0102865
:104BE00048D135E04FF08D41404606F052F88146FD
:104BF00006F0B8FA84B2E549404606F04AF8814624
:104C000006F0B0FA85B238E04FF08C41404606F02D
:104C100040F8814606F0A6FA84B2DD49404606F027
:104C200038F8814606F09EFA85B226E04FF08B41B7
:104C3000404606F02EF8814606F094FA84B2D54933
:104C4000404606F026F8814606F08CFA85B214E05C
:104C50004FF08A41404606F01CF8814606F082FA81
:104C600084B2CD49404606F014F8814606F07AFA3F
:104C700085B202E04FF0FF309CE700BF20128DF8B4
:104C80000400E0B28DF8050028128DF80600E8B2A5
:104C90008DF8070006F00100A0B101AA02214FF42F
:104CA000EA70FFF712FC10B14FF0FF3082E70DF110
:104CB000060202214FF49270FFF707FC10B14FF08B
:104CC000FF3077E706F00200A0B101AA02214FF4FD
:104CD000EC70FFF7FAFB10B14FF0FF306AE70DF10F
:104CE000060202214FF49470FFF7EFFB10B14FF072
:104CF000FF305FE706F00400A0B101AA02214FF4E3
:104D0000EE70FFF7E2FB10B14FF0FF3052E70DF10C
:104D1000060202214FF49670FFF7D7FB10B14FF057
:104D2000FF3047E7002045E738B5044600200090F3
:104D300004F0010020B19DF8000040F03000009028
:104D400004F0020020B19DF8000040F00C0000903B
:104D500004F0040020B19DF8000040F00300009032
:104D60006A4601214FF4A470FFF7AFFB38BD38B598
:104D70000446012C01DA012402E0042C00DD0424A5
:104D8000601EC0B200906A46012140F24F10FFF74A
:104D90009CFB38BD38B50446052094FBF0F085B285
:104DA00028128DF80000E8B28DF801006A46022151
:104DB0004FF4EF70FFF789FB38BD38B50446052086
:104DC00094FBF0F085B228128DF80000E8B28DF85F
:104DD00001006A4602214FF4ED70FFF776FB38BD03
:104DE000F8B505460E464FF47A7095FBF0F000FBDF
:104DF00006F4200E8DF80000200C8DF80100200A2A
:104E00008DF80200E0B28DF803006A4604214FF4E9
:104E1000AE70FFF75AFBF8BD38B50446052094FB89
:104E2000F0F084B220128DF80000E0B28DF801009D
:104E30006A4602214FF4AD70FFF747FB38BD38B525
:104E40000446052094FBF0F084B220128DF8000097
:104E5000E0B28DF801006A4602214FF4AC70FFF712
:104E600034FB38BD38B5044614B94FF0FF3038BDB7
:104E70006A4604214FF45870FFF764FB10B14FF0FD
:104E8000FF30F4E79DF8000000069DF8011040EAAD
:104E900001409DF8021040EA01209DF803100843EC
:104EA00020600020E3E738B50446200E8DF80000AE
:104EB000200C8DF80100200A8DF80200E0B28DF878
:104EC00003006A4604214FF45870FFF7FEFA38BD1C
:104ED00038B5044614B94FF0FF3038BD6A46042196
:104EE0004FF47170FFF72EFB10B14FF0FF30F4E775
:104EF0009DF8000000069DF8011040EA01409DF871
:104F0000021040EA01209DF80310084300EB8000E6
:104F1000800020600020E0E738B504461420B4FB90
:104F2000F0F4200E8DF80000200C8DF80100200A0E
:104F30008DF80200E0B28DF803006A4604214FF4B8
:104F40007170FFF7C2FA38BD38B5044664B120204D
:104F50008DF8000028208DF8010030208DF8020027
:104F600038208DF8030004E0A3220421684605F0F0
:104F700019FE6A46042140F69E20FFF7A6FAFDF7C7
:104F800054FE38BDD40000200000484300004046D5
:104F90000000C045000040450000C04438B504464C
:104FA00064B1C0208DF80000C2208DF80100C4203B
:104FB0008DF80200C6208DF8030004E08B22042146
:104FC000684605F0EFFD6A46042140F69820FFF799
:104FD0007CFAFDF72AFE38BD3EB504466CB1FDA152
:104FE000D1E900208968CDE9002002916A460921B3
:104FF0004FF49760FFF769FA3EBDF9A2D2E90010BD
:105000009268CDE9010200916A4609214FF4976048
:10501000FFF75BFAF0E73EB5044602208DF800008A
:10502000CA208DF80100E3208DF8020009208DF8D8
:1050300003006A4604216820FFF747FAA3208DF891
:10504000000004F0400048B1C0208DF80100C820E5
:105050008DF80200C2208DF8030006E0A3208DF831
:1050600001008DF802008DF8030004F4C07048B10F
:10507000C4208DF80400CC208DF80500C6208DF8E2
:10508000060006E0A3208DF804008DF805008DF8D9
:105090000600A3208DF807008DF808008DF80900A0
:1050A0006A460A2140F6A720FFF70FFA04F0030032
:1050B00018B120208DF8000002E0D8208DF8000003
:1050C0006A46012140F6B620FFF7FFF904F0200000
:1050D00018B10120FFF780FF02E00020FFF77CFFFE
:1050E00004F4C07008B304F4807060B1B2208DF88D
:1050F00000008B208DF80100B6208DF802009B2067
:105100008DF803000BE0B0208DF8000080208DF8B2
:105110000100B4208DF8020090208DF803006A464B
:10512000042140F6A220FFF7D0F904F0010020B3DB
:10513000F8208DF800006A4601214FF40B60FFF75C
:10514000C4F9FA210720FFF729FD0720FFF7ECFD3E
:105150000120FFF70CFE6420FFF71CFE4FF4FA70ED
:10516000FFF72BFEC821A148FFF73AFE2820FFF7E2
:1051700053FE0A20FFF763FE08E0D8208DF80000F8
:105180006A4601214FF40B60FFF79FF904F002001B
:1051900018B1D9208DF8000002E0D8208DF8000069
:1051A0006A46012140F23D70FFF78FF904F00400D8
:1051B00018B10120FFF7F2FE02E00020FFF7EEFE3B
:1051C00004F0100018B10120FFF7BEFE02E000203D
:1051D000FFF7BAFE44F0080085494881FDF725FD38
:1051E00000208349887304F0400018B10846807B92
:1051F000801D887304F4C07020B17D48807B801DC1
:105200007B49887304F0140020B17948807B10300A
:105210007749887304F0030020B17548807B001D36
:105220007349887300203EBD01467148408908805B
:10523000002070472DE9F0410446E07800F0C006F8
:10524000E07800F03F05607800F0010098B1EF10C1
:105250002846E91705EB5171C910A5EBC101491C9E
:1052600001F0FF086248006820B1614841460268C9
:105270003846904700BF607800F0080030B15C48C5
:10528000406818B1B0115A4A516888470020BDE8FB
:10529000F08110B586B0044656A207CA03AB07C317
:1052A00057A207CA8DE80700012C09D0022C0ED1A5
:1052B00003AA0B2140F68220FFF707F906B010BDC4
:1052C0006A460B2140F68220FFF7FFF8F6E74FF021
:1052D000FF30F3E72DE9F04F8DB0074688461546BD
:1052E0009946DDE9166B0024002030804049887B18
:1052F0005A4605A9FEF729FC18B1601E0DB0BDE89D
:10530000F08F3B48807A00F01400002861D09DF8AF
:10531000140000069DF8151040EA01409DF8161093
:1053200040EA01209DF81710084328609DF81800F6
:1053300000069DF8191040EA01409DF81A1040EA55
:1053400001209DF81B10084368609DF81C000006B2
:105350009DF81D1040EA01409DF81E1040EA012012
:105360009DF81F100843A8609DF8200000069DF8D6
:10537000211040EA01409DF8221040EA01209DF8EA
:1053800023100843E86004F11000C4B22868001438
:105390000190686800140290A86800140390E868FF
:1053A0000014049001984043029901FB0100039905
:1053B00001FB0100049901FB010ABAF1706F02DBE5
:1053C000BAF1885F22DDFDF730FC00203080401EFE
:1053D00094E721E0B8AAB38DB4980D355D000000C4
:1053E000B8AAAAAAB088C3C5C700000009E3CA02C8
:1053F000D4000020D8B1B9F38BA391B609B4D90079
:10540000DAB1B9F38BA391B6DAB4DA00B6F90000D9
:1054100040F48070308000BF3448807A00F0400053
:1054200020B305A9601C085C095D40EA012000B2B8
:10543000A8F8000005A9E01C095C05AAA01C105CE6
:1054400041EA002000B2A8F8020005A9601D095C2D
:10545000201D105C41EA002000B2A8F80400A01D45
:10546000C4B2B6F9000040F0080030801F484089FF
:1054700000F4C07008B305A9601C085C095D40EA2F
:10548000012000B2388005A9E01C095C05AAA01C17
:10549000105C41EA002000B2788005A9601D095C1B
:1054A000201D105C41EA002000B2B880A01DC4B2EB
:1054B000B6F9000040F0700030800C48807A00F0AF
:1054C000030018B105A90819FFF7B4FE4846FCF718
:1054D000FBFE002012E701460448016000207047EF
:1054E000014602484160002070470000D4000020BF
:1054F00010B50446E1B2CB48FBF7BCFC00BF8021ED
:10550000C848FBF725FD0028F9D0204610BD0FB490
:105510002DE9F043C7B006468946092E0ED2DFE8D2
:1055200006F005060708090A0B0D0C0000BF00BFB6
:1055300000BF00BF00BF00BF00BF05E0002047B0B4
:10554000BDE8F0035DF814FB00BF51A8469006A823
:10555000469A509906F092F80446002C03DC00208D
:1055600046902046EBE71821684605F022FB2420F0
:105570008DF8000001208DF80100F0B28DF80200D6
:105580000D208DF815000A208DF8160000251CE06E
:10559000601B122801DA601B00E0122000F0FF08F7
:1055A00012210DF1030005F004FB06A84119424643
:1055B000153805F0D7FA002704E01DF80700FFF7BB
:1055C00097FF7F1C172FF8DB1235A542E0DB002088
:1055D000469000BFB3E730B587B004460CB907B0BA
:1055E00030BD182101A805F0E4FA24208DF804004C
:1055F00002208DF805002068000E8DF80700206855
:10560000000C8DF808002088000A8DF80900207829
:105610008DF80A006068000E8DF80B006068000CC1
:105620008DF80C00A088000A8DF80D0020798DF807
:105630000E00A068000E8DF80F00A068000C8DF819
:1056400010002089000A8DF81100207A8DF81200D0
:10565000E068000E8DF81300E068000C8DF814006F
:10566000A089000A8DF81500207B8DF816000D200A
:105670008DF819000A208DF81A00002504E001A910
:10568000485DFFF735FF6D1C172DF8DB00BFA6E75F
:1056900070B586B005460C460CB906B070BD182131
:1056A000684605F086FA24208DF8000003208DF866
:1056B00001008DF802500D208DF815000A208DF89C
:1056C0001600072D7ED2DFE805F05D5E5F4D6004B9
:1056D00090002068000E8DF803002068000C8DF803
:1056E00004006068000E8DF805006068000C8DF8FD
:1056F0000600A068000E8DF80700A068000C8DF869
:105700000800E068000E8DF80900E068000C8DF8D4
:105710000A002069000E8DF80B002069000C8DF83E
:105720000C006069000E8DF80D006069000C8DF8AA
:105730000E00A069000E8DF80F00A069000C8DF816
:105740001000E069000E8DF81100E069000C8DF882
:105750001200206A000E8DF81300206A000C8DF8EC
:10576000140053E0E068000E8DF80F00E068000CB4
:105770008DF81000A089000A8DF81100207B8DF8AB
:10578000120000BF00BF00BF00BF2068000E8DF8F0
:1057900003002068000C8DF804002088000A8DF8B2
:1057A000050020788DF806006068000E8DF807006F
:1057B0006068000C8DF80800A088000A8DF80900C8
:1057C000207900E021E08DF80A00A068000E8DF835
:1057D0000B00A068000C8DF80C002089000A8DF8E1
:1057E0000D00207A8DF80E0010E02068000E8DF874
:1057F00003002068000C8DF804002088000A8DF852
:10580000050020788DF8060000E046E700BF00267E
:1058100004E01DF80600FFF76BFE761C172EF8DB80
:1058200000BF3AE70038014070B504460D46164601
:1058300032462946204600F09EFFFE48007E00F0DA
:10584000400008B1012070BD0020FCE770B504469F
:105850000D46164632462946204600F0A0FFF54880
:10586000007D00F0400008B1012070BD0020FCE781
:1058700070B504460D46164632462946204600F0CD
:10588000B6FFEC48007F00F0400008B1012070BD79
:105890000020FCE770B50346E64E71CE83E8710048
:1058A000E448007C40B20870E248406A1060E14879
:1058B000006A70BD2DE9F04F87B004460D461646CC
:1058C000DC4A1168106801F0ABFC8146D94AD16806
:1058D000106801F0A5FC0690D64A9168506801F066
:1058E0009FFC0590D34A9168906801F099FC82462C
:1058F000DDE90501471A0AEB0900A0F1804840469E
:1059000005F0E2FB0290384605F0DEFB01900299BB
:1059100006F0CCFE8346C84905F0BBF9C7490390A1
:1059200005F0E9F904900021049805F0CFFC04D2B9
:10593000C349049805F055F904904FF08F4104983D
:1059400005F0A7F9834605F0F4FB2060B948007C18
:1059500040B22870B748406A3060B648006A07B065
:10596000BDE8F08F2DE9F04F95B004460E4617467E
:10597000B04A1168106801F053FC0546AD4A516801
:10598000106801F04DFC1290AA4A9168106801F06D
:1059900047FC8146A74AD168106801F041FC824665
:1059A000A44A5168506801F03BFC1190A14A9168EB
:1059B000506801F035FC83469E4AD168506801F07A
:1059C0002FFC10909B4A9168906801F029FC0F9081
:1059D000984AD168906801F023FC0E90954AD168EE
:1059E000D06801F01DFC0D90ABEB0A0014900F98ED
:1059F0002844A0F18048404605F066FB07901498C3
:105A000005F062FB0690079906F050FE80F000401A
:105A10008949089005F03DF98849099005F06BF92E
:105A20000C9012990E9808441390404605F04CFBD8
:105A30000290404605F048FB0190029905F029F9D3
:105A40000490149805F040FB0290149805F03CFB7C
:105A50000190029905F01DF90390049905F0C1F831
:105A6000059007F0F9F80790139805F02DFB0690C4
:105A7000079906F01BFE7049089005F00AF96F4976
:105A8000099005F038F90A900D982844A0F1804853
:105A9000B8F1000F0FDA00210A9805F021FC05D8B3
:105AA00065480A9905F0EFF80A9004E065480A99FC
:105AB00005F0E9F80A9011982844A0F1804014906C
:105AC0000BEB0A081098A0EB090013901099A1EBBA
:105AD000090005F0F9FA06900D992944A1F18040DA
