:020000040800F2
:10000000A807002091010008630F000819090008E3
:100010005F0F0008690700087B140008000000005B
:10002000000000000000000000000000E1100008D7
:100030006D07000800000000E90F0008F511000836
:10004000AB010008AB010008AB010008AB010008E0
:10005000AB010008AB010008AB010008AB010008D0
:10006000AB010008AB010008AB010008AB010008C0
:10007000AB010008AB010008AB010008AB010008B0
:10008000AB010008AB010008AB010008AB010008A0
:10009000AB010008AB010008AB010008AB01000890
:1000A000AB010008AB010008AB010008AB01000880
:1000B000AB010008AB010008AB010008AB01000870
:1000C000AB010008AB010008AB010008AB01000860
:1000D000AB01000859120008AB010008AB01000891
:1000E000AB010008AB010008AB01000800F002F80A
:1000F00000F03FF80AA090E8000C82448344AAF183
:100100000107DA4501D100F034F8AFF2090EBAE880
:100110000F0013F0010F18BFFB1A43F0010318473B
:10012000C0630000E0630000103A24BF78C878C1C3
:10013000FAD8520724BF30C830C144BF04680C60ED
:10014000704700000023002400250026103A28BF35
:1001500078C1FBD8520728BF30C148BF0B60704739
:10016000642900F06780002070471FB51FBD10B5DF
:1001700010BD00F0CBFA1146FFF7F7FF02F03FFF8A
:1001800000F0E9FA03B4FFF7F2FF03BC01F0FBF95A
:100190000948804709480047FEE7FEE7FEE7FEE71B
:1001A000FEE7FEE7FEE7FEE7FEE7FEE70448054957
:1001B000054A064B70470000F9110008ED000008E1
:1001C000A8010020A8070020A8030020A803002001
:1001D000704710B54C1084EA530404D54042C1F175
:1001E000000138BF491E1B4204D55242C3F100032F
:1001F00038BF5B1E00F02EF914F0804F04D040424F
:10020000C1F1000138BF491E14F0004F04D0524222
:10021000C3F1000338BF5B1E10BD00000FB40449DA
:1002200010B503AA029800F0F1F910BC5DF814FBB8
:10023000500000202DE9F041064600241068752981
:10024000314616A510D0AFF30080002802DA4042F4
:1002500013A507E031688A0701D512A502E0490716
:1002600004D511A5012401E0AFF3008000210A228A
:1002700006F1240709E0B0FBF2FCB0FBF2F302FB4D
:100280001C00303078541846491C0028F3D123460E
:100290002A463046BDE8F04100F05EB9000000009B
:1002A0002D0000002B000000200000002DE9F05F71
:1002B000894604464FF0000ADFF824B1FB44C0F839
:1002C00020A02046E168884700287DD0252806D058
:1002D000D4E901219047206A401C2062F1E7002503
:1002E0005F462046E16888472028064607DB312E16
:1002F00005D2B81910F8200C08B10543F1E7A8079A
:1003000001D525F00405C4F81CA00027C4F818A0E6
:100310002A2E09D0304601F02FF938B304EB8708B4
:10032000303EC8F8186019E059F8041B204604EB69
:1003300087029161E1688847012F064618D1E0697C
:10034000002820DA25F020051DE0D8F8180000EB81
:10035000800006EB40003038C8F818002046E168FD
:100360008847064601F008F90028EED1012F0AD08F
:100370002E2E08D12046E16888477F1C0646022FB2
:1003800045F02005C4DBA069002803DA404245F0AF
:100390000105A061E80701D025F01005A6B1A6F17E
:1003A0004100192802D8203645F400654A463146F6
:1003B000204625604D46FFF7D3FE60B1012807D0E7
:1003C000ED1D25F0070000E007E000F1080978E7DF
:1003D00005F1040975E730467AE7206ABDE8F09F29
:1003E000CA60000040EA010310B59B070FD1042A40
:1003F0000DD310C808C9121F9C42F8D020BA19BAF0
:10040000884201D9012010BD4FF0FF3010BD1AB154
:10041000D30703D0521C07E0002010BD10F8013BA9
:1004200011F8014B1B1B07D110F8013B11F8014BD0
:100430001B1B01D1921EF1D1184610BD02F0FF0323
:1004400043EA032242EA024200F0F4B870477047E0
:100450007047704753EA020C00F069802DE9F04BB9
:100460004FF00006002B1FBFB3FA83F503FA05F423
:1004700024FA05F65E4012BF1643B2FA82F502FA7C
:1004800005F4C5F120051EBF22FA05FC44EA0C0460
:10049000203556EA044C4FEA144418BF641C4FF050
:1004A00000084FF00009904271EB030C39D300298A
:1004B00019BFB1FA81F701FA07F6B0FA80F700FA2E
:1004C00007F6C7F120071EBF20FA07FC46EA0C0614
:1004D0002037B6FBF4FCA7EB0507103F07F01F0B16
:1004E000CBF120060CFA0BFB2CFA06F644BFB34600
:1004F0000026202FA4BF5E464FF0000B5BEA060CDF
:1005000008BF4FF0010B19EB0B09ABFB027C48EB6A
:100510000608C01B06FB02CC0BFB03CC71EB0C01E5
:10052000C1E70B46024641464846BDE8F08B13B58D
:100530004FF000004FF00001AFF30080BDE81C4019
:10054000704710B500F096F8006810BD10B504466D
:1005500000F090F8046010BD2DE9F0470D46994673
:100560009246044600F124080168880604D5E06933
:1005700021F01001216000E00120A84201DD471BAD
:1005800000E00027A1697A1902EB0900081AA061AE
:100590002078C00602D42046AFF30080002608E091
:1005A000D4E901211AF806009047206A401C761C05
:1005B00020624E45F4DB2078C0060AD52046AFF312
:1005C000008006E0D4E9012130209047206A401CD9
:1005D0002062381EA7F10107F4DC07E0D4E901210D
:1005E00018F805009047206A401C2062281EA5F1DB
:1005F0000105F3DC2046AFF300802078000602D529
:100600000220BDE8F0870120FBE70000074B70B532
:100610000D467B4400F037F80446284600F046F8C3
:1006200010B14FF0FF3070BD204670BD2323000095
:100630004FF000020429C0F0128010F0030C00F00B
:100640003B80CCF1040CBCF1020F18BF00F8012B69
:10065000A8BF20F8022BA1EB0C0100F02DB85FEA37
:10066000C17C24BF00F8012B00F8012B48BF00F823
:10067000012B7047004870474401002001694A1C63
:1006800002610878704700B58FB0CDE901310021D3
:10069000059105497944CDE9031011466846FFF7F5
:1006A00005FE0FB000BD0000E5FFFFFF007B00F07E
:1006B000800070474FF0000200B5134694469646FE
:1006C000203922BFA0E80C50A0E80C50B1F1200165
:1006D000BFF4F7AF090728BFA0E80C5048BF0CC013
:1006E0005DF804EB890028BF40F8042B08BF704771
:1006F00048BF20F8022B11F0804F18BF00F8012BE3
:100700007047000000487047440100207546FFF71D
:10071000F9FFAE4605006946534620F007008546BE
:1007200018B020B5FFF742FDBDE820404FF00006AD
:100730004FF000074FF000084FF0000B21F00701C9
:10074000AC46ACE8C009ACE8C009ACE8C009ACE80C
:10075000C0098D46704710B50446AFF300802046AF
:10076000BDE81040FFF70EBD00BFFEE770472DE962
:10077000F041024600250026002000230024002727
:1007800091F803C00CF00F0591F803C00CF0100CA9
:10079000BCF1000F03D091F802C04CEA050591F8B6
:1007A00000C0BCF1000F31D0146800202BE04FF0E6
:1007B000010C0CFA00F3B1F800C00CEA03069E42EB
:1007C00020D183004FF00F0C0CFA03F7BC4305FA5D
:1007D00003FC4CEA040491F803C0BCF1280F06D1D5
:1007E0004FF0010C0CFA00FCC2F814C00AE091F8BA
:1007F00003C0BCF1480F05D14FF0010C0CFA00FC0E
:10080000C2F810C0401C0828D1D31460B1F800C051
:10081000BCF1FF0F34DD546800202EE000F1080C1D
:100820004FF0010808FA0CF3B1F800C00CEA030617
:100830009E4221D183004FF00F0C0CFA03F7BC430A
:1008400005FA03FC4CEA040491F803C0BCF1280F3C
:1008500005D100F1080C08FA0CF8C2F8148091F8E0
:1008600003C0BCF1480F07D100F1080C4FF001089C
:1008700008FA0CF8C2F81080401C0828CED3546047
:10088000BDE8F081F0B50A460023002400210025D0
:1008900000F00046B6F1004F02D11D4EF16901E0B3
:1008A0001B4E7168C0F3034583B200F44016B6F5E1
:1008B000401F08D121F07061154E766826F07066F1
:1008C000134F7E6012E000F48016B6F5801F06D14B
:1008D000032606FA05F4A14341F0706106E0460DD7
:1008E000360103FA06F6B14341F0706122B1460DBC
:1008F000360103FA06F6314300F00046B6F1004F28
:1009000002D1034EF16101E0014E7160F0BD0000C3
:10091000000001400161704700BFFEE72DE9FC4186
:1009200004460D4616466B4606223B21682000F021
:1009300040FA0746BFB99DF801009DF8001040EA53
:10094000012000B220809DF803009DF8021040EACB
:10095000012000B228809DF805009DF8041040EAAF
:10096000012000B230803846BDE8FC812DE9FC4111
:1009700004460D4616466B4606224321682000F0C9
:1009800018FA0746BFB99DF801009DF8001040EA2B
:10099000012000B220809DF803009DF8021040EA7B
:1009A000012000B228809DF805009DF8041040EA5F
:1009B000012000B230803846BDE8FC812DE9F84FB7
:1009C0006B4602224121682000F0F3F99DF80100F6
:1009D0009DF8001040EA01200FFA80FA504603F01B
:1009E000A7FF804600220B4B03F04AFE06460A4A48
:1009F0000A4B03F095FD044603F060FD8346084969
:100A0000584604F0B3FC044604F014FC00B2BDE800
:100A1000F88F000000407540A4703D0AD743424063
:100A20000000C84210B500200E4908600E4800685A
:100A300020F070400C4908600846006840F04050C3
:100A4000086000200949C1F89C0100F011F801205C
:100A50000449086000F00CF800200449C1F898012E
:100A600010BD000098812142000C0140008021420D
:100A700010B5022001F060F910BD000008B5012199
:100A8000082000F0B3FAC020ADF8000010208DF867
:100A9000030003208DF8020069460448FFF767FE53
:100AA000C0210248FFF736FF08BD0000000C0140DE
:100AB00010B500200E4908600E48006820F0704014
:100AC0000C4908600846006840F04050086001206A
:100AD0000949C1F89C01FFF7CBFF012004490860D8
:100AE000FFF7C6FF00200449C1F8980110BD0000BF
:100AF00098812142000C01400080214270B50546DA
:100B000000241648006820F0704014490860084628
:100B1000006840F000400860002614E00020104902
:100B20000860FFF7A5FF01200E49C1F89801600693
:100B3000040E0B487C38006808B1601CC4B2FFF793
:100B400097FF701CC6B2082EE8DB15B9FFF7B0FF9F
:100B500001E0FFF767FF204670BD0000000C014078
:100B6000988121420080214270B5044612480068F5
:100B700020F07040104908600846006840F040507E
:100B8000086000200D490860002512E0E0090B49CB
:100B9000091D08606006040E01200949C1F898018A
:100BA000FFF766FF002005490860FFF761FF681C3A
:100BB000C5B2082DEADB70BD000C014098812142CE
:100BC0000080214210B50E48006820F070400C49AA
:100BD00008600846006840F040500860012009495C
:100BE00008600949C1F89801FFF742FF0020054954
:100BF0000860FFF73DFF00200349C1F8980110BDD0
:100C0000000C01409C8121420080214210B50E4819
:100C1000006820F070400C4908600846006840F009
:100C2000405008600020094908600949C1F89C014A
:100C3000FFF71EFF0120054908600549C1F89C0126
:100C4000FFF716FF10BD0000000C01409881214203
:100C50000080214210B500241448006820F0704044
:100C6000124908600846006840F000400860012012
:100C70000F490860FFF7FCFE01200E49C1F89801FA
:100C8000FFF7F6FE07E0601CC4B2FA2C03DDFFF7A5
:100C9000BDFF012010BD0648803800680028F2D151
:100CA0000349091F086000BFF4E70000000C014081
:100CB0009C8121420080214238B50121084600F084
:100CC00095F90121042000F091F94FF40040ADF8AE
:100CD000000010208DF8030003208DF80200694603
:100CE0002248FFF744FD01212148FFF7CBFD0020FA
:100CF00020490860FFF7C2FE80216B2000F0DDF87C
:100D0000642000F0F3FF00216B2000F0D6F80320F0
:100D100000F091F8002000F086F8322000F0B0F8E2
:100D20000021382000F0C9F800216A2000F0C5F841
:100D30000021232000F0C1F88021372000F0BDF809
:100D4000752000F019F80446682C0BD101216B20A6
:100D500000F0B3F800216C2000F0AFF8322000F072
:100D60008FF801E0012038BD0020FCE700080140B9
:100D700000023000BC01214270B50446FFF722FF9B
:100D8000D020FFF7F1FEFFF765FF2046FFF7ECFEEE
:100D9000FFF760FFFFF716FFD120FFF7E5FEFFF733
:100DA00059FF0020FFF7AAFE0546FFF72FFF284650
:100DB00070BD2DE9F04106460F4614461D46FFF76B
:100DC00001FF002141EA4601C8B2FFF7CDFEFFF75F
:100DD00041FF20B1FFF71AFF0120BDE8F08138463E
:100DE000FFF7C2FEFFF736FFFFF7ECFE012101EB34
:100DF0004601C8B2FFF7B8FEFFF72CFF0DE0012C4B
:100E000004D10020FFF77AFE287003E00120FFF7ED
:100E100075FE2870601EC4B26D1C002CEFD1FFF768
:100E2000F5FE0020D9E710B50446E006010E1C20AF
:100E300000F043F810BD10B50446E006010E1B207B
:100E400000F03BF810BD70B504460025BC2C01DB5A
:100E5000012510E0622C01DB02250CE02A2C01DBCD
:100E6000032508E0142C01DB042504E00A2C01DB37
:100E7000052500E0062529461A2000F01EF870BD61
:100E800070B50446B4F57A7F01DD4FF47A74042C12
:100E900000DA04244FF47A7090FBF4F0401EC5B2DF
:100EA0002946192000F009F80546264604EBD671BC
:100EB000C1F34F00FFF7C7FF70BD70B505460C4684
:100EC000FFF780FED020FFF74FFEFFF7C3FE18B1FB
:100ED000FFF79CFE012070BD2846FFF745FEFFF797
:100EE000B9FE2046FFF740FEFFF7B4FE18B1FFF74A
:100EF0008DFE0120EFE7FFF789FE0020EBE72DE9EB
:100F0000F04105460E4617469846FFF75BFE002166
:100F100041EA4501C8B2FFF727FEFFF79BFE20B16B
:100F2000FFF774FE0120BDE8F0813046FFF71CFE9C
:100F3000FFF790FE00240CE018F80400FFF714FE01
:100F4000FFF788FE18B1FFF761FE0120EBE7601C98
:100F5000C4B2BC42F0DBFFF759FE0020E3E700BF5C
:100F6000FEE7704770B5002100230F22C47804B358
:100F7000154C246804F4E064C4F5E064210AC1F16E
:100F80000403CA40447804FA03F1847814402143EE
:100F900009010E4C0678A155047804F01F050124C0
:100FA000AC4005786D11AD0005F1E025C5F80041B4
:100FB00009E0047804F01F050124AC40044D0678D4
:100FC000761145F8264070BD0CED00E000E400E02D
:100FD00080E100E002490143024A116070470000CD
:100FE0000000FA050CED00E07047000029B1064A48
:100FF00092690243044B9A6104E0034A9269824376
:10100000014B9A61704700000010024030B500218A
:101010000022002400232D4D6D6805F00C0121B144
:10102000042905D0082923D105E0294D056022E0D7
:10103000274D05601FE0254D6D6805F47012234DA6
:101040006D6805F48034022505EB92421CB9214DF0
:10105000554305600BE01D4D6D6805F400351DB16D
:101060001C4D5543056002E0194D5543056002E0F3
:10107000174D056000BF00BF144D6D6805F0F0010D
:101080000909154D6B5C0568DD4045600F4D6D68C5
:1010900005F4E061090A104D6B5C4568DD40856030
:1010A0000A4D6D6805F46051C90A0B4D6B5C4568CB
:1010B000DD40C560054D6D6805F44041890B074D65
:1010C0006B5CC568B5FBF3F5056130BD00100240EF
:1010D00000127A0000093D00560000206600002042
:1010E000704710B500F002F810BD00000CB50020EC
:1010F000019000903348006840F480303149086026
:1011000000BF3048006800F4003000900198401C97
:101110000190009818B90198B0F5A06FF1D1294855
:10112000006800F4003010B10120009001E00020C0
:1011300000900098012843D12348006840F0100037
:10114000214908600846006820F00300086008464E
:10115000006840F0020008601A4840681949486079
:101160000846406848600846406840F4806048602F
:101170000846406820F47C1048600846406840F407
:10118000E81048600846006840F08070086000BFC2
:101190000C48006800F000700028F9D00948406849
:1011A00020F00300074948600846406840F002000C
:1011B000486000BF0348406800F00C000828F9D1DF
:1011C0000CBD00000010024000200240042808D19D
:1011D0004FF0E021096941F004014FF0E022116174
:1011E00007E04FF0E021096921F004014FF0E0220F
:1011F000116170477047000010B51348006840F057
:1012000001001149086008464068104908400E492D
:101210004860084600680E4908400B4908600846C7
:10122000006820F4802008600846406820F4FE0032
:1012300048604FF41F008860FFF753FF4FF00060D5
:101240000449086010BD0000001002400000FFF8D3
:10125000FFFFF6FE08ED00E010B540F225511D48F5
:1012600000F04AF810B31B4800F002F9C4B21A4863
:10127000008800F40040C8B91748008800F4804096
:1012800060B10A2C03D000201349088020E01248E6
:10129000008840F400401049088019E00D2C06D168
:1012A0000D48008840F480400B49088010E00A484F
:1012B0000088C0F30D0009490C5407480088401C01
:1012C0000549088008460088C72801DD00200880FD
:1012D00010BD000000380140540000207C000020B8
:1012E00021B1828942F40052828104E082894DF664
:1012F000FF731A408281704770B5024600240023B4
:101300000025002040F66A16B14200D100BFC1F3AB
:10131000421501F01F03012606FA03F3012D02D145
:101320009689334006E0022D02D1168A334001E04F
:10133000968A33400C12012606FA04F416883440CB
:1013400013B10CB1012000E0002070BDF0B50346E0
:10135000002400260025002040F66A17B94200D17B
:1013600000BF1846C1F3421401F01F06012707FA17
:1013700006F5012C01D10C3004E0022C01D1103013
:1013800000E014301AB107682F43076002E00768D5
:10139000AF430760F0BD00002DE9F04786B0054679
:1013A0000E460024A24600BFA1460027B08900B126
:1013B00000BF2F462C8A4CF6FF700440F08804438F
:1013C0002C82AC894EF6F3100440B0883189084372
:1013D000718908430443AC81AC8A4FF6FF40044056
:1013E000B0890443AC8201A8FFF710FE1F48874272
:1013F00002D1DDF810A001E0DDF80CA0A88900F40E
:10140000004040B10AEBCA0000EB0A103168490005
:10141000B0FBF1F807E00AEBCA0000EB0A103168F4
:101420008900B0FBF1F86420B8FBF0F0040120095A
:10143000642101FB1089A88900F4004040B13220EA
:1014400000EBC900B0FBF1F000F00700044308E036
:10145000322000EB09106421B0FBF1F000F00F0026
:1014600004432C8106B0BDE8F0870000003801403D
:1014700001468888C0F30800704700BFFEE74900B6
:1014800050EAC12018BF04204A0D18BF40F00100E7
:1014900040F2FF72B2EB515F08BF40F0020001283A
:1014A00008BF052070472DE9F0414F1E00EBC70132
:1014B0000446D1E9000115461E4637F006020DD05C
:1014C0002A46334603F04CFA7F1E04EBC703D3E9E8
:1014D000002303F025F837F00602F1D1022F25D0C2
:1014E000042F13D0062F18BFBDE8F0812A463346DB
:1014F00003F036FAD4E90A2303F012F82A463346F9
:1015000003F02EFAD4E9082303F00AF82A463346FA
:1015100003F026FAD4E9062303F002F82A463346FC
:1015200003F01EFAD4E9042302F0FAFF2A463346F8
:1015300003F016FAD4E9022302F0F2FF2A463346FA
:1015400003F00EFAD4E90023BDE8F04102F0E8BF51
:10155000012204F0B0B802F0E3BF002213461046A7
:10156000114603F08DB80000024A0020110704F074
:10157000A2B8000001FDFFFF30380A2801D2012087
:10158000704700207047014600BF70472DE9FE4FAD
:1015900006460F460025684601F0DCF9002442E0CB
:1015A00056F8240057F82410A0EB010ABAF1000FF6
:1015B00001DB514601E0CAF10001084603F076FE66
:1015C00083464FF08F4103F03FFD80465DF82400D5
:1015D000002103F0FBFD16D05DF82410404603F017
:1015E00033FD82464FF07E5103F0BEFF814629F065
:1015F000004A0F48416A504603F084FF12D201208E
:10160000A04005430EE00A48C169404603F07AFE57
:1016100005D30748016A404603F074FF02D2012057
:10162000A0400543641C032CBADB2846BDE8FE8FAE
:101630006C5700082DE9F04D8D4F21F0004A86B01F
:1016400005460C46BA452ADBAAEB070028430AD018
:101650008848824501DC1AD1CDB106B02846BDE8E4
:10166000F04DFFF775BF844A844B284603F078F9A4
:1016700007460E46824A834B2846214603F070F9FE
:1016800006B03A463346BDE8F04D02F049BF0120AE
:10169000FEF75CFF06B0BDE8F04DFFF75EBF7A488D
:1016A000824542DABAF1795F0BDA2846FFF7E7FEA6
:1016B000042808BFFFF758FF284606B02146BDE8BA
:1016C000F08D2A460B46104603F04AF9834602463F
:1016D0006E480E460B4606217844FFF7E4FE5A4654
:1016E000334603F03DF9804669488A465A463346F8
:1016F00004217844FFF7D7FE5A46334603F030F909
:1017000000223B4602F00CFF02460B464046514683
:1017100002F0B6FF2A46234603F022F906B02A4615
:101720002346BDE8F04D02F0FBBE284624F0004100
:1017300000223D463B4603F011FA4FF0FF3203F022
:10174000BAFF0646024653480F460B460621784428
:10175000FFF7A9FE32463B4603F002F9CDE900014E
:101760004D4832463B4604217844FFF79CFE324602
:101770003B4603F0F5F800222B4602F0D1FE8346EB
:1017800002913046394602F023FE804643480D461A
:10179000504517DCDDE900015A46029B02F070FF5C
:1017A00042462B4603F0DCF842462B4602F0B8FED8
:1017B000012203F080FF304A304B03F0C1FA304A77
:1017C000304B4CE04FF0000A52460B46404602F0C8
:1017D000A7FECDE9031052462B461046194603F0EA
:1017E000BFF832463B4603F0B9F9DDE9033202F0B7
:1017F00047FF06460F46DDE900015A46029B02F00C
:101800003FFF8346009101223046394603F053FFE3
:10181000194A1A4B03F0A2F906460F460122404628
:10182000294603F048FF5A46009B03F099F83246D8
:101830003B4603F085FA06460F46012250462946EC
:1018400003F039FF0E4DDFF858802A46434603F077
:1018500085F932463B4603F081F92A46434603F0B8
:101860007DF9002CD8BF81F0004106B0BDE8F08DB5
:101870000000F03F0000F07F075C143326A6913C87
:10188000182D4454FB21F93F0000E03FC44C0000F8
:10189000DA4C00004E4C0000644C00003333EF3F44
:1018A000FB21E93F2DE9F84F04460D4621F00040A9
:1018B00000917349814211DC7249884201DC06D1F2
:1018C0002CB120462946BDE8F84FFFF741BE6E48CF
:1018D000002DCCBF6D496E49BDE8F88F6D4981423E
:1018E00011DD6D498142D8BF4FF0FF366DDD2046D6
:1018F0002946FFF7C4FD042808BFFFF735FE204640
:101900002946BDE8F88F6549654F25F000458142BD
:1019100033DD6449814219DD002632464FF08043B1
:101920002046294602F0FCFD80468A4601222046D8
:10193000294603F0C0FE00223B4603F001FA42466E
:10194000534602F09DFE04460D463EE0012600226D
:10195000BA463B462046294602F0E2FD80460F4645
:10196000002253462046294603F0EAF942463B4608
:1019700002F086FE04460D4627E04B4981421BDDFE
:10198000DFF828A10226002253462046294602F00D
:10199000E7FF00223B4602F0C3FD80460F460022CF
:1019A00053462046294603F0CBF942463B4602F017
:1019B00067FE04460D4608E0032622462B4600201B
:1019C0003B4902F05DFE04460D4622462B4610467A
:1019D000194602F0C5FF8B46824602460B4602F0CE
:1019E000BFFF07460246334888460B460621784427
:1019F000FFF759FD52465B4602F0B2FF82462E4881
:101A00008B463A46434605217844FFF74CFD3A465B
:101A1000434602F0A5FF02460B46002E50465946AB
:101A20000CDA02F07DFD22462B4602F099FF01B050
:101A300022462B46BDE8F04F03F090B802F070FD4F
:101A400022462B4602F08CFF1C4A7A4402EBC60366
:101A5000D3E9002303F074F922462B4603F070F912
:101A6000174A7A4402EBC603D3E9002303F076F861
:101A7000009A002AB8BF81F00041BDE8F88F00004D
:101A8000000010440000F07F182D4454FB21F93F62
:101A9000FB21F9BF0000DC3F0000203E0000F33FC7
:101AA0000000F03F0000E63F008003400000F83FE8
:101AB0000000F0BF664A0000244A0000C24900004E
:101AC0008A4900002DE9F04D9446CCF1000423F042
:101AD00000464CEA0404524F46EAD4749A468846BB
:101AE00021F00042BC4206D8454240EA050442EAE1
:101AF000D474BC4204D9BDE8F04D6246FFF72BBD5B
:101B0000AAF14055A5F17F6555EA0C040BD00224DB
:101B100004EAAA74434DDFF810E144EAD87452EAAB
:101B2000000B04D00CE0BDE8F04DFFF7BBBE002C6D
:101B300014BF012CBDE8F08D022C30D0032C32D024
:101B400056EA0C0B0AD0BE4220D1BA4209D126F087
:101B5000804622F080423346114617E000291ADB06
:101B600025E0DFF8C8B0FB44002C04BFDBE900012E
:101B7000BDE8F08D012C02BFDBE9000181F00041DE
:101B8000BDE8F08D022C0AD0032C0CD0BA4212D141
:101B9000B8F1000F0BDA23482549BDE8F08D28463F
:101BA0002449BDE8F08D28467146BDE8F08D1D48FA
:101BB0002149BDE8F08D921B12153C2AC4BF19487B
:101BC0001D490EDCBAF1000FBEBF12F13C0F002020
:101BD000014606DB624602F053FD21F00041FFF7AB
:101BE00061FE002C08BFBDE8F08D012C04BF81F020
:101BF0000041BDE8F08D114A114B022C07D003F0D3
:101C00009FF82A46BDE8F04D0A4B03F099B803F05F
:101C100097F82A46BDE8F04D064B02F09FBF000042
:101C20000000F07F182D4454FB2109C01E4900001C
:101C3000FB21F9BFFB210940FB21F93F075C14336D
:101C400026A6A13C2DE9F0410446E07800F0C0064C
:101C5000E07800F03F05607800F0010098B1EF10E7
:101C60002846E91705EB5171C910A5EBC101491CC4
:101C700001F0FF080B48006820B10A48414602689D
:101C80003846904700BF607800F0080030B1054842
:101C9000406818B1B011034A516888470020BDE878
:101CA000F08100006C00002010B56FF00400FFF719
:101CB0008DFA0A4800680A49B0FBF1F0094908703A
:101CC0000846007800EB4001C1EBC0104FF6FF71F1
:101CD00001EAC0000449088010BD00000000002097
:101CE00000127A004A0000204C0000200146114AF0
:101CF00012884A434FF0E0235A6100229A611A4643
:101D0000126942F001021A6100BF4FF0E02210692F
:101D100000F001021AB100F48032002AF5D04FF031
:101D2000E022126922F001024FF0E0231A61002242
:101D30009A6170474C0000200146114A12784A43CC
:101D40004FF0E0235A6100229A611A46126942F06C
:101D500001021A6100BF4FF0E022106900F0010299
:101D60001AB100F48032002AF5D04FF0E022126957
:101D700022F001024FF0E0231A6100229A617047BD
:101D80004A00002038B5044664B120208DF80000D8
:101D900028208DF8010030208DF8020038208DF8C1
:101DA000030004E0A32204216846FEF747FB6A46CD
:101DB000042140F69E2002F039FA01F023FE38BDDE
:101DC0003EB5044602208DF80000CA208DF80100BF
:101DD000E3208DF8020009208DF803006A460421F3
:101DE000682002F023FAA3208DF8000004F04000E0
:101DF00048B1C0208DF80100C8208DF80200C22033
:101E00008DF8030006E0A3208DF801008DF8020094
:101E10008DF8030004F4C07048B1C4208DF80400AC
:101E2000CC208DF80500C6208DF8060006E0A32022
:101E30008DF804008DF805008DF80600A3208DF8BC
:101E400007008DF808008DF809006A460A2140F65F
:101E5000A72002F0EBF904F0030018B120208DF860
:101E6000000002E0D8208DF800006A46012140F60B
:101E7000B62002F0DBF904F0200018B1012000F0D8
:101E8000ADF802E0002000F0A9F804F4C07008B337
:101E900004F4807060B1B2208DF800008B208DF8C2
:101EA0000100B6208DF802009B208DF803000BE0A6
:101EB000B0208DF8000080208DF80100B4208DF84E
:101EC000020090208DF803006A46042140F6A2200B
:101ED00002F0ACF904F0010020B3F8208DF8000006
:101EE0006A4601214FF40B6002F0A0F9FA210720A5
:101EF00000F02CFC072000F0F3FB012000F013FCA5
:101F0000642000F0F3FC4FF4FA7000F002FDC821E9
:101F1000304800F0A3FB282000F0BCFB0A2000F0B2
:101F2000CCFB08E0D8208DF800006A4601214FF470
:101F30000B6002F07BF904F0020018B1D9208DF893
:101F4000000002E0D8208DF800006A46012140F22E
:101F50003D7002F06BF904F0040018B1012000F0AC
:101F600069F802E0002000F065F804F0100018B1F4
:101F70000120FFF707FF02E00020FFF703FF44F016
:101F800008001549488101F03DFD00201249887381
:101F900004F0400018B10846807B801D887304F46B
:101FA000C07020B10C48807B801D0B49887304F001
:101FB000140020B10848807B10300749887304F072
:101FC000030020B10448807B001D03498873002072
:101FD0003EBD000009E3CA026C0000203EB5044685
:101FE0006CB10EA1D1E900208968CDE900200291F1
:101FF0006A4609214FF4976002F018F93EBD0AA223
:10200000D2E900109268CDE9010200916A460921E7
:102010004FF4976002F00AF9F0E70000B8AAB38D18
:10202000B4980D355D000000B8AAAAAAB088C3C54F
:10203000C700000038B5044664B1C0208DF8000028
:10204000C2208DF80100C4208DF80200C6208DF852
:10205000030004E08B2204216846FEF7EFF96A468C
:10206000042140F6982002F0E1F801F0CBFC38BDE5
:1020700010B5C8234FF48062024940F6F63001F0F3
:1020800055FB10BD945700082DE9F04F8DB0074661
:10209000884615469946DDE9166B002400203080FD
:1020A0006B49887B5A4605A901F00CFC18B1601EEB
:1020B0000DB0BDE8F08F6648807A00F0140000286B
:1020C00067D09DF8140000069DF8151040EA014005
:1020D0009DF8161040EA01209DF81710084328606B
:1020E0009DF8180000069DF8191040EA01409DF87F
:1020F0001A1040EA01209DF81B10084368609DF803
:102100001C0000069DF81D1040EA01409DF81E10BD
:1021100040EA01209DF81F100843A8609DF82000A8
:1021200000069DF8211040EA01409DF8221040EA87
:1021300001209DF823100843E86004F11000C4B2A8
:10214000286800140190686800140290A8680014C0
:102150000390E8680014049001984043029901FB41
:102160000100039901FB0100049901FB010ABAF186
:10217000706F02DBBAF1885F05DD01F043FC0020DF
:102180003080401E94E7B6F9000040F48070308043
:1021900000BF2F48807A00F0400020B305A9601CE2
:1021A000085C095D40EA012000B2A8F8000005A91A
:1021B000E01C095C05AAA01C105C41EA002000B2EA
:1021C000A8F8020005A9601D095C201D105C41EA09
:1021D000002000B2A8F80400A01DC4B2B6F90000A7
:1021E00040F0080030801A48408900F4C07008B3FD
:1021F00005A9601C085C095D40EA012000B2388036
:1022000005A9E01C095C05AAA01C105C41EA00209D
:1022100000B2788005A9601D095C201D105C41EAB0
:10222000002000B2B880A01DC4B2B6F9000040F092
:10223000700030800648807A00F0030018B105A9CC
:102240000819FFF7FFFC484600F003FF00202FE7C6
:102250006C00002070B588B0064601A801F0BAF8FD
:10226000BDF804000021C90341EA5045C4034448B5
:10227000007A00F0030056F8200005904048007AEC
:1022800000F0040010B10598404205903C48007AE7
:10229000C0F3C10056F8200006903948007A00F0DB
:1022A000200010B10698404206903548007AC0F3ED
:1022B000811056F8200007903148008900F48070A2
:1022C00010B10798404207900598C117A0FB04235E
:1022D00001FB043100FB0510810041EA927005907A
:1022E0000698C117A0FB042301FB043100FB051075
:1022F000810041EA927006900798C117A0FB042361
:1023000001FB043100FB0510810041EA9270079047
:102310000598000E8DF808000598000C8DF809004E
:102320000598000A8DF80A000598C0B28DF80B00D8
:102330000698000E8DF80C000698000C8DF80D0024
:102340000698000A8DF80E000698C0B28DF80F00AE
:102350000798000E8DF810000798000C8DF81100FA
:102360000798000A8DF812000798C0B28DF8130084
:1023700002AA0C214FF4257001F058FF08B070BD7F
:102380006C00002030B585B0044616A207CA02AB27
:1023900007C3C82C03DD4FF0FF3005B030BDC820A7
:1023A00090FBF4F0401E85B2280A8DF80000E8B2D8
:1023B0008DF801006A46022140F2162001F036FF36
:1023C00010B14FF0FF30E8E702AA0C2140F6C1201F
:1023D00001F02CFF10B14FF0FF30DEE7044884819C
:1023E0000020DAE7FEF2ABC4AAF1DFDFBBAFDFDF2C
:1023F0006C0000201FB504464848007A00F0030036
:1024000054F8200001904548007A00F0040010B113
:102410000198404201904148007AC0F3C10054F84D
:10242000200002903D48007A00F0200010B1029890
:10243000404202903948007AC0F3811054F82000DD
:1024400003903648008900F4807010B10398404230
:1024500003903349019880FB0101800F40EA81001D
:1024600001902F49029880FB0110820042EA91708E
:1024700002902B49039880FB0110820042EA917080
:1024800003900198000E8DF800000198000C8DF863
:1024900001000198000A8DF802000198C0B28DF881
:1024A00003006A4604214FF4747001F0BFFE18B1B6
:1024B0004FF0FF3004B010BD0298000E8DF8000000
:1024C0000298000C8DF801000298000A8DF80200B5
:1024D0000298C0B28DF803006A4604214FF475706B
:1024E00001F0A4FE10B14FF0FF30E3E70398000EB7
:1024F0008DF800000398000C8DF801000398000A85
:102500008DF802000398C0B28DF803006A460421DA
:102510004FF4767001F08AFECCE700006C000020DA
:1025200009E3CA0210B586B0044647A000680390CC
:1025300046A00068029046A00068019045A000688F
:10254000009004F0030003A9085C8DF8140003A8B0
:10255000C4F3C101405C8DF8150003A8C4F38111D8
:10256000405C8DF8160004F0030002A9085C8DF8A9
:10257000100002A8C4F3C101405C8DF8110002A84C
:10258000C4F38111405C8DF8120005AA032140F2CA
:10259000264001F04BFE18B14FF0FF3006B010BDE1
:1025A00004AA032140F22A4001F040FE10B14FF08E
:1025B000FF30F3E7019805900098049004F00400C0
:1025C00058B19DF8140040F001008DF814009DF8FA
:1025D000100040F001008DF8100004F0200058B108
:1025E0009DF8150040F001008DF815009DF81100D0
:1025F00040F001008DF8110004F4807058B19DF88E
:10260000160040F001008DF816009DF8120040F011
:1026100001008DF8120005AA03214FF4886001F033
:1026200005FE10B14FF0FF30B8E704AA032140F2D5
:10263000314001F0FBFD10B14FF0FF30AEE706482E
:1026400004810020AAE700004CCD6C000CC92C00CE
:1026500036567600264666006C000020F8B5054622
:102660000E464FF47A7095FBF0F000FB06F4200E56
:102670008DF80000200C8DF80100200A8DF8020072
:10268000E0B28DF803006A4604214FF4AE7001F009
:10269000CDFDF8BD38B50446052094FBF0F084B2BA
:1026A00020128DF80000E0B28DF801006A46022188
:1026B0004FF4AD7001F0BAFD38BD38B504460520C1
:1026C00094FBF0F084B220128DF80000E0B28DF897
:1026D00001006A4602214FF4AC7001F0A7FD38BD3D
:1026E00038B504460020009004F0010020B19DF8A8
:1026F000000040F03000009004F0020020B19DF88E
:10270000000040F00C00009004F0040020B19DF89F
:10271000000040F0030000906A4601214FF4A470CD
:1027200001F084FD38BD38B50446012C01DA0124DE
:1027300002E0042C00DD0424601EC0B200906A4652
:10274000012140F24F1001F071FD38BD2DE9FC4729
:1027500006460F4606F0070010B1B7F5C86F03DD57
:102760004FF0FF30BDE8FC87384602F0B7FD8146E8
:10277000594902F069FC8046684600F005FE9DF864
:102780000000022806D0042816D0082826D01028D9
:1027900048D135E04FF08D41404602F0E7FD8146DB
:1027A00002F064FD84B24D49404602F0DFFD8146EF
:1027B00002F05CFD85B238E04FF08C41404602F0FB
:1027C000D5FD814602F052FD84B24549404602F0F3
:1027D000CDFD814602F04AFD85B226E04FF08B41E7
:1027E000404602F0C3FD814602F040FD84B23D49FF
:1027F000404602F0BBFD814602F038FD85B214E090
:102800004FF08A41404602F0B1FD814602F02EFDB4
:1028100084B23549404602F0A9FD814602F026FD0A
:1028200085B202E04FF0FF309CE700BF20128DF828
:102830000400E0B28DF8050028128DF80600E8B219
:102840008DF8070006F00100A0B101AA02214FF4A3
:10285000EA7001F0EBFC10B14FF0FF3082E70DF1B0
:10286000060202214FF4927001F0E0FC10B14FF02B
:10287000FF3077E706F00200A0B101AA02214FF471
:10288000EC7001F0D3FC10B14FF0FF306AE70DF1AE
:10289000060202214FF4947001F0C8FC10B14FF011
:1028A000FF305FE706F00400A0B101AA02214FF457
:1028B000EE7001F0BBFC10B14FF0FF3052E70DF1AC
:1028C000060202214FF4967001F0B0FC10B14FF0F7
:1028D000FF3047E7002045E700004843000040463E
:1028E0000000C045000040450000C04438B5044623
:1028F000052094FBF0F085B228128DF80000E8B2B4
:102900008DF801006A4602214FF4EF7001F08EFC51
:1029100038BD38B50446052094FBF0F085B2281286
:102920008DF80000E8B28DF801006A4602214FF4EC
:10293000ED7001F07BFC38BD00BF054A128802F043
:102940004002002AF9D0C2B2014B1B1D1A80704709
:10295000003801407CB5054628494968087801AB34
:1029600004220D21FEF725FA08B107207CBD9DF851
:102970000700C0F301109DF8041001F0E00140EAE7
:10298000E1008DF800009DF80700C0F381009DF87C
:10299000051001F0E00140EAE1008DF801009DF82A
:1029A000070000F003009DF8061001F0E00140EA86
:1029B000E1008DF8020000241CE01DF8040018B9A5
:1029C000002045F8240013E00D4845F8240006E0F7
:1029D00055F824000B4902F0C9FC45F824001DF805
:1029E0000400401EC0B20DF804000028F0D100BF62
:1029F000601CC4B2032CE0DB0020B7E71400002009
:102A00007B14AE3E1D5A843F2DE9F04F87B005463A
:102A10000C46914601208DF8100000208DF8110021
:102A2000FE4A1268917CFD4A5268107804AB02227B
:102A3000FEF765FA20B14FF0FF3007B0BDE8F08F28
:102A4000C820FFF753F900208DF81000F34A1268F0
:102A5000D17BF24A5268107804AB0122FEF74FFA9C
:102A600010B14FF0FF30E8E7EC4A12685179EB4AB9
:102A70005268107804AB0122FEF741FA10B14FF012
:102A8000FF30DAE7E54A1268917CE44A5268107830
:102A900004AB0122FEF733FA10B14FF0FF30CCE760
:102AA000DE4A1268D17DDD4A5268107804AB0122FB
:102AB000FEF725FA10B14FF0FF30BEE7D74A126893
:102AC0001179D64A5268107804AB0122FEF717FA42
:102AD00010B14FF0FF30B0E70C208DF81000CF4A56
:102AE00012681179CD4A5268107804AB0122FEF7C2
:102AF00006FA10B14FF0FF309FE70F20FFF7F6F80E
:102B0000C648806A407A8DF81000C44A12689178ED
:102B1000C24A5268107804AB0122FEF7F0F910B1F6
:102B20004FF0FF3089E7BD48806A007A8DF81000C9
:102B3000BA4A12685178B94A5268107804AB012237
:102B4000FEF7DDF910B14FF0FF3076E7B9F1000F75
:102B500007D0B248806A807A40F0E0008DF810001B
:102B600004E0AE48806A807A8DF81000AB4A1268A3
:102B70009179AA4A5268107804AB0122FEF7BFF996
:102B800010B14FF0FF3058E7B9F1000F07D0A3485C
:102B9000806AC07A40F0E0008DF8100003E0A048A1
:102BA000C07A8DF810009D4A1268D1799B4A52680C
:102BB000107804AB0122FEF7A2F910B14FF0FF30FC
:102BC0003BE7B9F1000F02D0C820FFF78FF8402093
:102BD0008DF81000914A12681179904A5268107865
:102BE00004AB0122FEF78BF910B14FF0FF3024E760
:102BF00078208DF81000894A12685179874A526806
:102C0000107804AB0122FEF77AF910B14FF0FF30D3
:102C100013E783498889FFF769F800208DF81000D1
:102C20007E4A126851797D4A5268107804AB0122BD
:102C3000FEF765F910B14FF0FF30FEE6774A1268F3
:102C4000917A764A5268107804AB0222FEF7B1F806
:102C500010B14FF0FF30F0E69DF811009DF8101014
:102C600040EA012B0C209BFBF0F0C6B20020A860CC
:102C700068602860A06060602060824665E0674A06
:102C80001268D17A654A5268107804AB0C22FEF7BC
:102C900090F810B14FF0FF30CFE69DF811009DF88D
:102CA000101040EA012000B2ADF808009DF81300B2
:102CB0009DF8121040EA012000B2ADF80A009DF81C
:102CC00015009DF8141040EA012000B2ADF80C0088
:102CD000BDF90810206808442060BDF90A1060683A
:102CE00008446060BDF90C10A0680844A0609DF81D
:102CF00017009DF8161040EA012000B2ADF8000060
:102D00009DF819009DF8181040EA012000B2ADF8B6
:102D100002009DF81B009DF81A1040EA012000B245
:102D2000ADF80400BDF90010286808442860BDF91A
:102D30000210686808446860BDF90410A868084477
:102D4000A8600AF1010000F0FF0AB24597DB3448A1
:102D5000D0F800C02868C117090441EA10410704EF
:102D6000624600233846FDF734FA32460023CDE9A7
:102D70000201FDF72EFA28602948D0F800C06868E3
:102D8000C117090441EA104107046246002338468E
:102D9000FDF71FFA32460023CDE90201FDF719FACB
:102DA00068601F48D0F800C0A868C117090441EA4C
:102DB00010410704624600233846FDF70AFA3246FE
:102DC0000023CDE90201FDF704FAA8601448D0F809
:102DD00004C02168C817000440EA11480F04624685
:102DE000002338464146FDF7F4F932460023CDE989
:102DF0000201FDF7EEF920600948D0F804C06068D0
:102E0000C117090441EA104107046246002338460D
:102E1000FDF7DFF93246002304E000001400002033
:102E20006C570008CDE90201FDF7D3F96060114845
:102E3000D0F804C0A068C117090441EA1041070492
:102E4000624600233846FDF7C4F932460023CDE937
:102E50000201FDF7BEF9A060A068002804DDA068AB
:102E6000A0F58030A06003E0A06800F58030A0608D
:102E70000020E2E56C5700082DE9FC5F06460F468E
:102E800000253D494968087801AB03220D21FDF773
:102E900090FF10B10720BDE8FC9F9DF8040000F0F2
:102EA0001F008DF804009DF8050000F01F008DF84C
:102EB00005009DF8060000F01F008DF806000024B4
:102EC00056E056F8240057F82410A0EB010BBBF194
:102ED000000F01DB594601E0CBF10001084602F08A
:102EE000E5F94FF08F41009002F0AEF8814601A85D
:102EF000005D68B32149086802F0F0F9834659463D
:102F00001F4802F0A1F8804604E01E49404602F046
:102F10002DFA804601A8005D401EC0B201A90855E7
:102F20000028F2D14146484602F08EF883464FF021
:102F30007E5102F019FB82462AF0004B0F4881694E
:102F4000584602F0DFFA12D20120A04005430EE0FD
:102F50000A480169484602F0D5F905D30748416996
:102F6000484602F0CFFA02D20120A0400543641C7B
:102F7000032CA6DB28468EE7140000206C570008BF
:102F800000B04C4554E3853F10B50446204600F0A0
:102F90000FF80346E01C00F00BF843EAC00083B2D0
:102FA000A01D00F005F843EA801083B2184610BD5A
:102FB000014691F90020002A01DD00201EE091F970
:102FC0000020002A01DA042018E091F90120002AEB
:102FD00001DD012012E091F90120002A01DA05202B
:102FE0000CE091F90220002A01DD022006E091F9AF
:102FF0000220002A01DA062000E0072070478AB08C
:1030000000244FF4A060FDF7E5FF4FF4E13001F03C
:1030100005FAFEF749FEFDF74FFE00BF00F064F928
:103020000028FBD114E007AA08A909A800F04AF873
:1030300060B9FDF7C3FC04AA05A906A8FDF76EFC5C
:1030400001AA02A903A8FDF791FC00BF601CC4B24D
:10305000E9E7704770B50446002624F001041848DB
:1030600090F8240008B1002070BD1548807A10B98E
:103070004FF0FF30F8E71248057C807A2040104975
:1030800008740846007CA04202D04FF0FF3600E0F2
:10309000002614B90A48007D18B1012001F050F94A
:1030A00002E0002001F04CF93CB100F0ABFC20B193
:1030B000034805744FF0FF30D6E73046D4E70000F0
:1030C000140000202DE9F04F99B004460D46164635
:1030D0004FF07E574FF000084FF000094FF0000A04
:1030E00012A813A918AB0EAACDE9001014A916A8AE
:1030F000FEF7CAFF18B1012019B0BDE8F08FBDF886
:103100004C0000F4807000287ED00E9802F0CEF8BB
:1031100083464FF09D4101F097FF07460F9802F05C
:10312000C5F883464FF09D4101F08EFF8046109810
:1031300002F0BCF883464FF09D4101F085FF8146C7
:10314000119802F0B3F883464FF09D4101F07CFFE7
:10315000824639464FF0804002F008F94946059012
:1031600002F004F9414607904FF0404002F0FEF8AB
:103170005146059002F0FAF80690079901F0F6FE24
:10318000834601F0C7FECDE90801FEF753FA4FF080
:103190006632544BCDE90A0101F0E2FBCDE90C01A6
:1031A00001F08CF9206049464FF0804002F0DEF8D3
:1031B0004946029002F0DAF8414604904FF0404050
:1031C00002F0D4F84146029002F0D0F8039004993E
:1031D00002F0CAF983464FF07E5101F0C7FE059018
:1031E00001F098FECDE9080139464FF0804002F029
:1031F000BDF84146039002F0B9F8494604904FF0FB
:10320000804002F0B3F800E068E05146039002F01D
:10321000ADF88346049901F0A9FE059001F07AFE0D
:10322000CDE90601DDE90823FEF74CFC4FF06632DC
:103230002C4BCDE90A0101F093FBCDE90C0101F023
:103240003DF928605146504602F090F849460490F6
:10325000484602F08BF841460390404602F086F85B
:1032600039460190384602F081F80090019901F04A
:103270007DFE0290039902F077F98346049902F0EB
:1032800073F9059001F046FECDE908015146384634
:1032900002F06CF849460490404602F067F803904B
:1032A000049901F063FE4FF08041059002F05EF852
:1032B000834601F02FFECDE90601DDE90823FEF784
:1032C00001FC4FF06632074BCDE90A0101F048FBE3
:1032D000CDE90C0101F0F2F8306001E002200BE7CB
:1032E000002009E766A64C4070B50024FDF7C6FB38
:1032F00000F024F9002840D1782000F02FFFC4B25C
:103300000CB1012070BD7820FFF7A4FEC4B20CB14F
:103310000220F7E7642000F0D3FEC4B20CB1032012
:10332000F0E7FEF7A5FEC4B20CB10420EAE71548A9
:10333000FFF72AFE0546FFF7F5F8C4B20CB10520E9
:10334000E0E740F27310FEF73BFDC4B20CB106207B
:10335000D8E76420FFF716F8C4B20CB10720D1E714
:1033600000F0A4FF04460CB10820CBE7012000F0D8
:10337000A3FDC4B21CB10920C4E70A20C2E70020A3
:10338000C0E700004000002001461148407A30B1FB
:10339000012807D0022808D003280CD108E0022019
:1033A00008700BE00420087008E00820087005E0B1
:1033B0001020087002E04FF0FF30704700BF044853
:1033C000C07C18B108784006000E08700020F4E7B1
:1033D0001400002001461348407A30B1012808D07B
:1033E00002280AD0032810D10BE04FF48040088057
:1033F0000EE041F69C7008800AE04FF4805008808F
:1034000006E04FF40060088002E04FF0FF307047A4
:1034100000BF0448C07C10B108884010088000201C
:10342000F5E700001400002001460248007C087007
:10343000002070471400002001460F48007A30B188
:10344000012807D0022809D003280FD10AE0FA206A
:1034500008800EE04FF4FA7008800AE04FF47A70AA
:10346000088006E04FF4FA60088002E0002008803F
:1034700000BF00BF002070471400002001460E4826
:10348000007A30B1012807D0022808D003280CD1D7
:1034900008E00A4808600BE00948086008E00948AD
:1034A000086005E00848086002E04FF0FF30704710
:1034B00000BF0020FBE700001400002000000343D1
:1034C00000008342333303423333834101461248C1
:1034D000C07A082817D2DFE800F01704070A0D1099
:1034E0001318BC20088013E06220088010E02A2016
:1034F00008800DE0142008800AE00A20088007E018
:103500000520088004E000BF00BF0020088000BF45
:1035100000BF00207047000014000020014606484C
:1035200090F8240010B14FF0FF3070470248C08976
:1035300008800020F9E70000140000201CB580205E
:103540008DF80000654A1268917C644A52681078D0
:103550006B460122FDF7D3FC10B14FF0FF301CBDCC
:103560006420FEF7C3FB00208DF800005B4A126860
:10357000917C5A4A526810786B460122FDF7BFFCD5
:1035800010B14FF0FF30EAE7544A1268917D534A78
:10359000526810786B460622FDF70BFC10B14FF015
:1035A000FF30DCE79DF80500C007400F9DF80310D1
:1035B00001F0010140EA41009DF8011001F0010114
:1035C00040EA010494B1012C03D101214348C174A4
:1035D00031E0022C03D100214048C1742BE0214688
:1035E0003FA0FCF71BFE4FF0FF30B8E73B4A1268E4
:1035F000D1783A4A526810786B460122FDF7D9FB20
:1036000010B14FF0FF30AAE79DF8000000F00F0462
:103610002CB93D48FCF702FE4FF0FF309FE7042C29
:1036200006D13AA0FCF7FAFD01212C48C17402E052
:1036300000212A48C174FF2128488172FF202749B0
:103640000872FF2125484172C1724FF6FF71C18196
:10365000FF21017481740121017380F8221000217F
:1036600080F823104175017516300160416081605A
:10367000163880F8241080F82510C1844FF4FA60C1
:1036800000F062FC10B14FF0FF3068E7022000F05C
:103690002BFB10B14FF0FF3061E72A2000F0CEFC89
:1036A00010B14FF0FF305AE7322000F009FD10B1A1
:1036B0004FF0FF3053E70020FFF7CCFC10B14FF084
:1036C000FF304CE7002000F051FB10B14FF0FF300D
:1036D00045E7002000F042FD002040E714000020F4
:1036E000556E737570706F7274656420736F667455
:1036F000776172652070726F64756374207265768D
:103700002025642E0A0000009064000848616C6661
:103710002073656E7369746976697479207061725B
:103720007420666F756E642E0A0000002DE9F04368
:1037300085B005460E4690469946294890F82500E2
:1037400020B14FF0FF3005B0BDE8F08316B94FF05F
:10375000FF30F8E7002423E0281B102801DD1020AB
:1037600000E0281B87B232193946204600F05EFD82
:1037700010B14FF0FF30E6E701AA3946204600F0CD
:1037800001F910B14FF0FF30DDE730193A4601A9D9
:10379000FCF728FE10B16FF00100D4E7E01984B205
:1037A000AC42D9DB4FEA28208DF8000008F0FF007A
:1037B0008DF801000A4A1268917E094A5268107811
:1037C0006B460222FDF79BFB10B14FF0FF30BAE7CA
:1037D0000121034880F82510A0F826900020B2E7C8
:1037E0001400002038B50446282C02DD4FF0FF30CD
:1037F00038BDDCB9002000F0EBFB00208DF80000A4
:1038000007208DF801002E4A1268917C2C4A5268DC
:1038100010786B460222FDF772FB10B14FF0FF30BB
:10382000E6E70021264801750020E1E7012000F0CD
:10383000CFFB20208DF80000012C06D100208DF850
:103840000100052000F0FAFB17E0052C06DC012042
:103850008DF80100052000F0F1FB0EE0142C06DCD1
:1038600002208DF801000A2000F0E8FB05E00320AB
:103870008DF80100142000F0E1FB9DF80100072104
:1038800001EB8010C0B28DF801000D4A1268917CE6
:103890000B4A526810786B460222FDF730FB10B1DC
:1038A0004FF0FF30A4E70821054881720021017321
:1038B000012101750020FFF7CDFB002098E70000F3
:1038C00014000020F8B504460F4616462C4890F820
:1038D000240010B94FF0FF30F8BD2948807A10B9A4
:1038E0004FF0FF30F8E7264A1268917A244A52686E
:1038F00010786B460222FDF75CFA10B14FF0FF30F2
:10390000EAE79DF801009DF8001040EA0125A54274
:1039100003DA00203070401EDEE719484068408816
:10392000B5EB600F17DD164A1268517C144A5268D5
:1039300010786B460122FDF73CFA10B14FF0FF30D2
:10394000CAE79DF8000000F0100020B100F05AF81E
:103950006FF00100C0E7E2B2094B1B68D97A084B4F
:103960005B6818783B46FDF724FA10B14FF0FF3042
:10397000B2E795FBF4F0401E30700020ACE7000089
:1039800014000020F8B504460D46164616B94FF04F
:10399000FF30F8BD1A48807A10B94FF0FF30F8E7D1
:1039A00020128DF80000E0B28DF801009DF80100B2
:1039B0002844134949684989884202DD4FF0FF30A5
:1039C000E7E70F4A1268117E0D4A526810786B467D
:1039D0000222FDF794FA10B14FF0FF30D9E7EAB2B6
:1039E000074B1B68597D064B5B6818783346FDF71B
:1039F000E0F910B14FF0FF30CBE70020C9E700003D
:103A00001400002008B57048807A10B94FF0FF30DC
:103A100008BD002000906C4A1268D17B6A4A526847
:103A200010786B460122FDF76AFA10B14FF0FF30B3
:103A3000EEE7654A12685179634A526810786B461E
:103A40000122FDF75CFA10B14FF0FF30E0E75E4A6B
:103A5000126811795C4A526810786B460122FDF7B2
:103A60004EFA10B14FF0FF30D2E7574890F82400DB
:103A7000002853D00C200090534A12681179524A02
:103A8000526810786B460122FDF739FA10B14FF0F9
:103A9000FF30BDE73220FEF729F9C02000904A48E8
:103AA000807A00F0010020B19DF8000040F0200075
:103AB0000090454A12681179434A526810786B4663
:103AC0000122FDF71CFA10B14FF0FF30A0E73E488D
:103AD000407C10B10220009001E0002000903A4AA2
:103AE0001268D17B384A526810786B460122FDF784
:103AF00006FA10B14FF0FF308AE700200090324AFA
:103B000012685179304A526810786B460122FDF7ED
:103B1000F6F9002855D04FF0FF3079E704200090E7
:103B2000294A12681179284A526810786B46012296
:103B3000FDF7E5F910B14FF0FF3069E72248807CCE
:103B400020B92148807A00F0010010B9402000908F
:103B500001E0602000901C4A126811791A4A5268EC
:103B600010786B460122FDF7CAF910B14FF0FF3013
:103B70004EE73220FEF7BAF81348407C10B101201E
:103B8000009001E0002000900F4A1268D17B0E4A9D
:103B9000526810786B460122FDF7B1F910B14FF071
:103BA000FF3035E7084A12685179074A52681078A1
:103BB000054B10330122FDF7A2F910B14FF0FF3091
:103BC00026E7002024E70000140000202DE9F04F34
:103BD0008DB083460F4602200C90424890F8240096
:103BE00020B1002000F068F9012600E0002603A8BB
:103BF000FFF722FC05A8FFF7C7FB01A8FFF766FC4B
:103C000002A8FFF78BFC374890F80AA004A8FFF73A
:103C10000BFC002407E0002239465846FEF7F4FE6C
:103C200000B902E0641C022CF5DB00BF022C01D1BC
:103C3000002528E0002407E0012206A909A8FEF7D4
:103C4000E3FE00B902E0641C022CF5DB00BF022C8D
:103C500001D1002517E006A93846FDF797FC00F0D2
:103C6000FF0809A95846FFF707F900F0FF090025EA
:103C7000B9F1000F01D145F00105B8F1000F01D1F4
:103C800045F0020500BFFF2016490872FF211548C4
:103C90004172C1724FF6FF71C181FF2181720174BF
:103CA00001210173BDF80C0000F04EF99DF81400DD
:103CB00000F01AF8BDF8040000F0C0F9BDF80800E3
:103CC00000F0FEF9504600F049FA9DF81000FFF7A9
:103CD000C1F916B1012000F0EFF828460DB0BDE89B
:103CE000F08F00001400002038B504461E48807A8A
:103CF00010B94FF0FF3038BD022C06D0042C07D08D
:103D0000082C08D0102C0CD108E0002000900BE00B
:103D10000820009008E01020009005E01820009096
:103D200002E04FF0FF30E6E700BF0F48407A9DF811
:103D30000010B0EBE10F01D10020DCE70A4A126865
:103D4000D179094A526810786B460122FDF7D7F8FD
:103D500010B14FF0FF30CEE79DF80000C1100248CF
:103D600041720020C7E700001400002038B5044667
:103D70005048807CA04201D1002038BD002C46D0A4
:103D80004C4A126811794B4A526810786B460122EE
:103D9000FDF70FF810B14FF0FF30EEE79DF800008F
:103DA00020F020000090434A12681179414A52687D
:103DB00010786B460122FDF7A2F810B14FF0FF30EA
:103DC000DBE70320FDF792FF02200090394890F8CE
:103DD000220020B19DF8000040F08000009035489E
:103DE00090F8230020B19DF8000040F030000090D2
:103DF000304A1268117D2F4A526810786B460122B2
:103E0000FDF77DF8002851D04FF0FF30B5E7294A83
:103E100012681179274A526810786B460122FCF724
:103E2000C8FF10B14FF0FF30A7E72248807A00F0BA
:103E3000010028B19DF8000040F02000009004E04F
:103E40009DF8000020F0200000901A4A12681179B5
:103E5000184A526810786B460122FDF750F810B1ED
:103E60004FF0FF3089E70320FDF740FF114890F83D
:103E7000220010B18020009001E0002000900D4849
:103E800090F8230020B19DF8000040F03000009031
:103E9000084A1268117D074A526810786B46012261
:103EA000FDF72DF810B14FF0FF3066E7014884743C
:103EB000002062E71400002038B50446214890F83D
:103EC0002400A04201D1002038BD24B31D4890F841
:103ED000250010B94FF0FF30F6E7002000F030FA6F
:103EE0000020FFF743FF1749C88C00F0E9F80020D5
:103EF00000901449496808786B4601222321FCF799
:103F0000FEFF01210F4880F82410012000F018FA6C
:103F1000FFF778FD13E0002000F012FA0948007C5A
:103F200000900849496808786B4601222321FCF774
:103F3000E6FF0021034880F82410FFF763FD00200E
:103F4000C2E700001400002038B504461F48807AFC
:103F500010B94FF0FF3038BDFA2C09D0B4F5FA7F14
:103F600009D0B4F57A7F09D0B4F5FA6F0CD108E026
:103F7000002000900BE00820009008E01020009046
:103F800005E01820009002E04FF0FF30E3E700BFAB
:103F90000E48007A9DF80010B0EBE10F01D100202F
:103FA000D9E70A4A12689179084A526810786B4634
:103FB0000122FCF7A4FF10B14FF0FF30CBE79DF8D2
:103FC0000000C010014908720020C4E7140000205E
:103FD00038B50446184890F82300A04201D10020CB
:103FE00038BD14B13020009001E00020009012484C
:103FF000807C20B19DF8000040F0020000900E4847
:1040000090F8220020B19DF8000040F08000009060
:10401000094A1268117D084A526810786B460122DD
:10402000FCF76DFF10B14FF0FF30D9E7024880F880
:1040300023400020D4E700001400002038B50446D7
:104040001E48807A10B94FF0FF3038BDBC2C02DB1F
:104050000120009015E0622C02DB0220009010E0AD
:104060002A2C02DB032000900BE0142C02DB04203E
:10407000009006E00A2C02DB0520009001E00620FB
:1040800000900E48C07A9DF80010884201D10020AF
:10409000DBE70A4A12689178084A526810786B4642
:1040A0000122FCF72CFF10B14FF0FF30CDE79DF857
:1040B00000100248C1720020C7E700001400002071
:1040C00038B504462448807A10B94FF0FF3038BD27
:1040D000214890F8240010B14FF0FF30F7E71E4858
:1040E000007D50B134B1282C04DCE0B2FFF77AFB3C
:1040F0000020ECE70020FFF775FB042C01DA042414
:1041000004E0B4F57A7F01DD4FF47A744FF47A70ED
:1041100090FBF4F0401EC0B200900F4A1268517834
:104120000D4A526810786B460122FCF7E8FE10B188
:104130004FF0FF30CBE79DF80000401C4FF47A7140
:1041400091FBF0F081B20448C1810146C989481051
:10415000FFF774FF0020BAE71400002038B50446CA
:1041600004F0700010B10120009005E014B10020AF
:10417000009001E0402000902B4A1268917C2A4A6E
:10418000526810786B460122FCF7B9FE20B100217D
:1041900025488172481E38BD9DF8000020F040017E
:1041A000214801730020009004F0400020B99DF8E0
:1041B000000040F00400009004F0200020B99DF8B9
:1041C000000040F00200009004F0100020B99DF8BB
:1041D000000040F00100009004F0080020B99DF8B4
:1041E000000040F0380000900F4A1268D17C0E4A5F
:1041F000526810786B460122FCF781FE20B1002145
:1042000009488172481EC6E724B1082C02D000205C
:10421000FFF7DEFE04488472002101753220FDF7AD
:1042200065FD0020B7E7000014000020F8B5044643
:104230000D46164616B94FF0FF30F8BD1A48807A81
:1042400010B94FF0FF30F8E720128DF80000E0B20F
:104250008DF801009DF801002844134949684989F7
:10426000884202DD4FF0FF30E7E70F4A1268117E07
:104270000D4A526810786B460222FCF740FE10B1DE
:104280004FF0FF30D9E7EAB2074B1B68597D064B68
:104290005B6818783346FCF732FE10B14FF0FF3000
:1042A000CBE70020C9E700001400002070B588B0FB
:1042B00002A905A8FFF78AFC0446032C3ED101A8F9
:1042C000FFF7DCF8059800F0F1FF0646019901F0D0
:1042D0004DF8054600F0AEFF0590069800F0E6FFA9
:1042E0000646019901F042F8054600F0A3FF06904A
:1042F000079800F0DBFF0646019901F037F8054604
:1043000000F098FF079005A8FEF774F86846FFF7DD
:1043100061F8BDF80010029848430290BDF8001003
:10432000039848430390BDF8001004984843049054
:1043300002A8FDF78FFF002008B070BD0120FBE749
:1043400038B50446214890F82400C0B114B10220C9
:10435000009001E0002000901C4A1268D17B1B4AAB
:10436000526810786B460122FCF7C9FD10B14FF07E
:10437000FF3038BD9DF800101448417423E0134805
:10438000807A10B94FF0FF30F3E724B10F48407C3A
:1043900008B10020EDE714B10120009001E00020F9
:1043A00000900A4A1268D17B084A526810786B461E
:1043B0000122FCF7A4FD10B14FF0FF30D9E79DF8C2
:1043C0000010024841740020D3E7000014000020D0
:1043D0002DE9F04106460F4600F0CCFB041E0D46C9
:1043E00018BF0120284320F00040C0F17F6000F199
:1043F000E040C00F0ED0301C18BF0120384320F021
:104400000040C0F17F6000F1E040C00F04BF012018
:10441000FCF79CF820462946BDE8F08110B586B02F
:104420000446012144F20400FCF7E0FD4FF4007063
:10443000ADF8140003208DF8160018208DF8170031
:1044400005A91C48FCF793F94FF48060ADF81400FF
:1044500004208DF8170005A91648FCF788F92520D7
:104460008DF8000003208DF801008DF80200012076
:104470008DF803006846FCF775FD01940020ADF847
:104480000800ADF80A00ADF80C00ADF810000C20E3
:10449000ADF80E0001A90848FCF77EFF012240F2AA
:1044A00025510548FCF752FF01210348FCF718FF8E
:1044B00006B010BD000801400038014021F0004264
:1044C000A2F16052B2F5801F01F0004328BFD2F183
:1044D0007F6C0BD95FEA001C43EAC20242EB5070CA
:1044E00018BF704728BF20F001007047B2F5801F49
:1044F000BCBF184670474FEA410C1CF5001F02D2A2
:10450000084600F0FABF70B500F0D4FA0000008948
:10451000FFF7F6BF4FF00040A0F5800070470000A5
:1045200010B591EA030F48BF83F0004300F11084F7
:10453000841A71EB030C05D2121943EB0C03001B18
:1045400061EB0C01DFF824E14FEA1154A4EB135C9A
:104550001EEA430F18BF9EEA445F73D023EA0E039E
:10456000DCF1200E21EA045143F4801332D322FA05
:104570000CFE10EB0E0023FA0CFE41EB0E01CCF109
:10458000200E03FA0EFE10EB0E0051F10001B1F502
:10459000801FCCF1200E32D201EB045112FA0EF240
:1045A000BDE8104058BF7047401C38BF5FEA420268
:1045B00018BF7047002814BF20F0010041F100012E
:1045C0004FEA410313F5001F38BF7047A1F1C04106
:1045D00000F0BEBA012A43EB0302ACF1200CDCF17F
:1045E0001F0E32BF4FF0000E23FA0CF310EB030046
:1045F00041EB0451B4EB115FD0D0A1EB045101F5B4
:10460000801149085FEA300001EB04510ED350F1EC
:10461000000038BF12FA0EFE08D1BDE81040C9E70D
:10462000401C38BF5FEA4202CAD1C3E7BDE8104070
:104630004FEA410313F5001F38BF7047A1F1C04195
:1046400000F086BA9EEA445F08D011EA5E0FBDE82A
:10465000104004BF01F0004100207047BDE8104049
:1046600070B500F027FA00BF64FBBE3E0000E0FF1B
:1046700002494FF0000000F0ECBF00BF0000F87FDF
:104680002DE9C04130B4DFF8A0C23CEA111418BFD4
:104690003CEA131400F0EC8081EA03051CEA1114D3
:1046A00044EAD57418BF1CEA131500F0C780A4EBC8
:1046B00005044FF0004545EAC12145EAC32341EA1C
:1046C000505143EA525304F17F74994204F5003487
:1046D0004FEAC0204FEAC22208BF904200F09C80FF
:1046E0004FEA13650FF24016765D4FEA134506FB5D
:1046F00005F7C7F1807706FB07F74FEAD737A7FB27
:1047000003687642C8F58038A7FB06CE38BFA8F10B
:10471000010807FB08E64FF0000EA6FB028CE6FB43
:1047200003CEDCF1000CCEF1004E38BFAEF1010E2D
:10473000A6FB0C584FF000074FF00005E6FB0E8774
:10474000A1FB08C6A0FB07CE16EB0E0645F100053F
:10475000E1FB076515F1E04E7EBFA4F580345FEA0A
:1047600046066D4116F1800745F100054FEA17270F
:104770004FEA066647EA0567A6F1DE46B6F1805FB6
:104780004FEA15251FD9384624F0010C05EBC471FA
:10479000BCF1FE6F01EB0C1102D8F0BCBDE800814A
:1047A00024425CBF01F5801E9EEAC47F02D4F0BCA7
:1047B000BDE80081244238D4F0BCA1F1C041BDE87D
:1047C000004100F0C5B94FEAD22242EA43524FEA13
:1047D000D323A7FB02864FEAD02040EA415007FBD3
:1047E00003661EEA0E0F4FEAD12105FB026658BF91
:1047F000A6EB0056B6EB00564FEA520E4EEAC37EC9
:1048000018EB0E0E56EB530EBDD518EB02085E41A9
:104810007F1C55F10005B6E74FF480154FF00007F7
:104820004FF000064FF00008ADE7F0BC4FF000007D
:1048300001F1C04101F00041BDE8008111EA0C1F07
:104840000CEA131500D00CE013EA0C1F00F02580D1
:104850004FF00000F0BC81EA030101F00041BDE827
:104860000081F0BCBDE8004181EA030100F070B9AD
:10487000F0BCBDE8004170B500F01CF9097EFC3EBB
:1048800000F007B881EA03014FF0000001F0004199
:10489000704781EA030100F05BB9F0BCBDE800415C
:1048A0004FF0000021497047FFFDFBF9F7F5F4F2E6
:1048B000F0EEEDEBE9E8E6E4E3E1E0DEDDDBDAD8BB
:1048C000D7D5D4D3D1D0CFCDCCCBCAC8C7C6C5C419
:1048D000C2C1C0BFBEBDBCBBBAB9B8B7B6B5B4B330
:1048E000B2B1B0AFAEADACABAAA9A8A8A7A6A5A41B
:1048F000A3A3A2A1A09F9F9E9D9C9C9B9A999998DF
:104900009797969595949393929191908F8F8E8E81
:104910008D8C8C8B8B8A898988888787868585840E
:1049200084838382828181800000FF070000F87FFA
:1049300010F0004248BF4042B0FA80F310FA03F191
:104940000AD0C3F11D0303F580634FEA415002EB27
:10495000035202EBD12170474FF000007047000076
:10496000DFF848C170B51CEA111E1EBF1CEA131502
:104970009EEA0C0F95EA0C0F00F06F8081EA0304A9
:1049800023EA4C134EEAD47E21EA4C1141F4801103
:1049900043F48013AE44A1FB024CA0FB0365AEF1CF
:1049A0007F7E361955EB0C05A1FB034C4CF100033F
:1049B000A0FB021C16EB0C06654153F100030942F3
:1049C00018BF46F0010613F4007F0BD14FEA033104
:1049D0004FEA0530340341EA155140EA16506FF0B2
:1049E00003020AE04FEAC3214FEAC520F40241EA7C
:1049F000555140EA56506FF0020202EB2E4201EB95
:104A0000025585EACE710AD05FEA440C18BF24F043
:104A1000004450F1000041F1000120EAD47040F25E
:104A2000FE7C624500D270BDA84214BF4FF08044A6
:104A30004FF04044002E08BF0024BEF1806FA8BF95
:104A4000A1F1C041BDE8704080F282804FF00000CB
:104A500001F1C04101F0004170479EEA0C0F0CEAE1
:104A6000131518BF95EA0C0F06D04FF0000081EA2D
:104A7000030E0EF0004170BD00F01CF88900013EED
:104A800000F007B800F009B84FEA430C5FEA5C5C3D
:104A900008D081EA030100F05BB84FEA410C5FEAFD
:104AA0005C5CF6D14FF00000014970470000FF0741
:104AB0000000F87F0EF1020E2EF0030E5EF8046B7C
:104AC000364205D4012A43EB030515F5001F12D821
:104AD000012841EB010C1CF5001F0CD80ED14FEA48
:104AE000D17C15F5001F0CEB4C0C0CF1020C08BF2F
:104AF0004CEBD37C04E04FF0080C01E04FEAD37C90
:104B00000CEB4C0526FA05F606F00706B6F1040C88
:104B100006D20EEB860CBDE870404CF0010C6047ED
:104B2000DFE80CF0090B02024FF000414FF00000EB
:104B3000A1F5002170BD19461046012851EB010472
:104B400018BFD4F5001484BF002001F0004170BDEF
:104B50000808A0F500114FEA3101704791EA030FF0
:104B600010B581F000413FF5E3AC83F0004300F065
:104B7000EFB800002DE9F04101F5801CBCF5001FE5
:104B8000C0F2C3804FEA115C21EA0C510CF1FD0C1C
:104B900041F480115FEA5C0C0CF5C07C01D340004D
:104BA00049413DA4890241EA905187028E0E0A0CC8
:104BB000A45D04FB04F602FB06F6C6F14046A4FB26
:104BC0000662F60D46EA422606FB06F4A4FB012324
:104BD0005242C3F1404338BF5B1EA6FB0242002491
:104BE000E6FB0324D20B42EA4446A6FB0623A1FBC4
:104BF00002E2A3FB07E4A4184FF0000252F1000206
:104C0000E3FB01426442C2F1404E38BFAEF1010EF7
:104C1000A6FB04234FF00002E6FB0E32A2FB034684
:104C20004FF00004B61954F10004E2FB0264A1FB4A
:104C300006E6A4FB07E816EB08064FF0000858F15B
:104C40000008E4FB01687642C8F1405838BFA8F17B
:104C50000108A2FB06E4A3FB08E52D194FF00004B0
:104C600054F10004E2FB0854A1FB05E6A7FB04E8AD
:104C700018EB06084FF0000656F10006E1FB04862B
:104C800018F1200556F10006A809A8F11B08B10982
:104C900008F03F08B8F10A0F40EA86601CD901EB22
:104CA0000C51BDE8F08100BFFCF5EEE8E2DDD8D3A1
:104CB000CFCBC7C3C0BDB9B6B4B1AEACA9A7A5A38D
:104CC000A19F9D9B9A9896959392908F8D8C8B899E
:104CD0008887868584838281A0FB006800FB01F2BF
:104CE00008EB4208B8EB872807D5341858EB0104C5
:104CF000D5D5401C51F10001D1E7341A78EB0104FD
:104D0000CDD4401E71F10001C9E75FEA4C0C5FEAA7
:104D10009C5C0DD105D34FF0000001F00041BDE8CF
:104D2000F081BDE8F04170B5FFF7C4FE6DDBFFBE5A
:104D3000BDE8F0414FF00000004970470000F87FE7
:104D400010B591EA030F48BF83F000433FF5F0AB85
:104D5000841A71EB030C07D212198CF0004C43EB50
:104D60000C03001B61EB0C01DFF8A4E14FEA1154C6
:104D7000A4EB135C1EEA430F18BF9EEA445F00F0E9
:104D8000B08023EA6E03524221EA0451C3EB6E0362
:104D900038BF5B1EDCF1200E25D322FA0CFE10EB8F
:104DA0000E0043FA0CFE41EB0E01CCF1200E03FA8B
:104DB0000EFE10EB0E0051F10001CCF1200E29D4B3
:104DC00012FA0EF201EB0451BDE8104058BF7047D3
:104DD000401C1CBFB2F1004F704700280CBF491C9B
:104DE00020F00100704712EB020E43EB030218BFE4
:104DF0004FF0010E4EEA4202ACF1200CDCF11E0E27
:104E000054D943FA0CFE10EB0E0051F1FF31CCF1F6
:104E10001E0ED5D50EF1010E12FA0EFE404141EBE9
:104E2000010101EB445C5FEA5C5C10D910EBDE70C1
:104E300001EB045138BFBEF1004FBDE8104018BF70
:104E4000704700280CBF491C20F00100704730D289
:104E50004FEAD42C11F5001124F400641BD0B1FAF0
:104E600081F20B3AA41AA41ED2F12003914030FA29
:104E700003F31943904001EBCC71002C01EB04517A
:104E8000BDE81040A8BF704701F1C0414FF00000DD
:104E900001F000417047B0FA80F310FA03F100D13D
:104EA00010BDE41A173C4805C90AE4E701EB0451B8
:104EB00010BD491001EB0451BDE810404FEA30002D
:104EC00002E04FF0000170474A0008BF0042F8D0EE
:104ED000B2F5001F28BF704701F000414FF00000FD
:104EE00070479EEA445F07D011EA5E0FBDE81040AC
:104EF00004BF002100207047BDE8104070B5FFF7E7
:104F0000D9FD00BF40DFF63E83F0004110467047F8
:104F10000000E0FF43004FEAD30C4FEA3C0C434053
:104F20001FBF40070CF1605113F0FE4F70471CF09B
:104F3000006F03D100200CF0004170470CF00043DB
:104F400043EA507010B540EACC0000F090FA00BF80
:104F5000000000924FEA0001FFF7FABD4FF0004158
:104F60004FF00000A1F500217047000090EA010F0A
:104F700048BF81F0004100F1FE82421A3CBF801A16
:104F800089184FEAD0524FF07F4C1CEA410FA2EB38
:104F9000D15318BF9CEA026F00F03B804FF0004CE9
:104FA0004CEA00204CEA012121FA03FC10EB0C0C26
:104FB0001ED202F1FF325FEA1C2040EBC25038BF24
:104FC00070471CF07F0F4FEA400C18BFBCF17F4FB9
:104FD00038BF7047C3F12003994008BF20F001009B
:104FE000BCF17F4F38BF7047A0F1C04000F085BAD8
:104FF0004FEA3C00000A40EBC25028BF1CF0FF0FF4
:105000004FEA400CE6D018BFBCF17F4F38BF704765
:10501000EAE79CEA026F05D010EA5C0F08BF00F0D7
:105020000040704710B500F022FA00BF64FBBE3E9E
:10503000401058BFC0F14040491058BFC1F1404135
:105040008142EFF3008070474FF47F0C1CEAD012CE
:105050001EBF1CEAD11392EA0C0F93EA0C0F00F06A
:10506000858090EA010F48BF42F4807240F4000C42
:1050700041F400002CF07F4120F07F4000B58142D8
:10508000A2EB03020FF2081CACEB504EC0F1000083
:105090009EF800E04FEA4E0E00FB0EFC38BF4900C0
:1050A0004FEA2C1C02F5FA020CFB0EF34FEACE1E5F
:1050B0004FEA112C4FEAC1210EEB635E42EB224214
:1050C0000EFB0CFC4FEA1C5300FB03114FEA112CA2
:1050D0004FEA01310EFB0CFC4FEADC4C00FB0C11DB
:1050E000C14228BF09184CEB03335DF804EB10EB09
:1050F000410143EBC250B2F57C0F38BF704729D550
:1051000012F0F00F1CBF00F1C04000F000407047EB
:10511000008182838485868788898B8C8D8E8F9190
:105120009293959697999A9C9D9FA0A2A3A5A7A8B4
:10513000AAACAEB0B2B3B5B7B9BCBEC0C2C5C7C9E0
:10514000CCCED1D4D7D9DCDFE2E6E9ECF0F3F7FA44
:10515000FE0000004FEA400C0CF1807CBCF17E4F59
:1051600028BF7047B0F1C04000F0C7B990EA010F06
:105170000CEAD11348BF42F48072624538BF6345E0
:1051800007D213F47F0F16D080EA010000F0004030
:10519000704710B500F06BF9097EFC3E00F005B8D1
:1051A00080EA010000F00040704780EA010000F052
:1051B000004000F0A2B912F47F0F04BF024870470C
:1051C00080EA010000F099B90000C07F50EA010CAC
:1051D00000F113801CF5000F58BFBCF5000F01D47F
:1051E0008842704707D710F5000F58BF11F5000F20
:1051F00015D488427047894270471CF5000F04D5CA
:10520000BCF5000FF7D5814270474FF0807C1CEB56
:10521000400F38BF1CEB410F01D28142704710B5DF
:1052200000F025F9922449004FF000504FF08051D2
:10523000FFF7FEBE41000B0ED3F19E0208D950F4D9
:1052400000034FEA032323FA02F048BF40427047AD
:1052500010B500F00CF900BF49922480002070477F
:105260006FF0004282EA200070470000C10DD1F1CA
:105270009E0206DB4FEA002343F0004323FA02F0CC
:105280007047004207D54FEA4001B1F1FE4F02D20C
:105290004FF00000704710B500F0E9F84992248003
:1052A000002070476FEA20007047000010F00041B6
:1052B00048BF4042B0FA80F310FA03F2C3F19D03F5
:1052C0000BD051EAC35101EB1220530638BF70478F
:1052D00000F1010008BF20F001007047B0FA80F330
:1052E00010FA03F2C3F19D030AD0D90501EB122095
:1052F000530638BF704700F1010008BF20F00100DD
:105300007047000050EA010C00F113801CF5000FFB
:1053100058BFBCF5000F01D48842704707D710F57D
:10532000000F58BF11F5000F15D48842704789420D
:1053300070471CF5000F04D5BCF5000FF7D581426E
:1053400070474FF0807C1CEB400F38BF1CEB410FC7
:1053500001D28142704710B500F089F892244900CB
:105360004FF000504FF08051FFF762BE4FF47F0CBA
:105370001CEAD0121EBF1CEAD11392EA0C0F93EA6A
:105380000C0F00F0478090EA010F48BF42F4807292
:105390004FF0004C4CEA00204CEA012102EB0302E2
:1053A000A0FB0113A2F50002002918BF43F001037E
:1053B0005B0028BF4FEA330342EB22425FEA132C23
:1053C0004CEBC2502EBFBCEB436FB2F57C0F704765
:1053D0004FEA036CBCF1004F08BF20F00100B2F5AA
:1053E0007C0F38BF70470BD582F0FF0212F5803F6B
:1053F000C8BF704700F1C040D8BF00F00040704700
:1054000000F5000C5FEA4C0C48BF7047B0F1C0409B
:1054100000F073B890EA010F0CEAD11348BF42F4D0
:105420008072624538BF634504D280EA010000F013
:105430000040704710B500F01AF800BF8900013E27
:1054400000F007B800F009B85FEA410C5FEA1C6C95
:1054500008D080EA010000F050B85FEA400C5FEA33
:105460001C6CF6D14FF00040A0F5800070470EF1A3
:10547000020E2EF0030E5EF8044B244204D44FEAD1
:105480004102B2F17F4F11D84FEA4003B3F17F4F91
:105490000CD80ED14FEAD07CB2F17F4F0CEB4C0C04
:1054A0000CF1020C08BF4CEBD17C04E04FF0080C6F
:1054B00001E04FEAD17C0CEB4C0324FA03F404F036
:1054C0000704B4F1040C06D20EEB840CBDE81040C6
:1054D0004CF0010C6047DFE80CF0070802024FF0C7
:1054E0000040A0F5800010BD0846420018BFD2F170
:1054F000807288BF00F0004010BDFF2141EAD0500B
:10550000C005704751EA000C00F113801CF5000F34
:1055100058BFBCF5000F01D48142704707D711F581
:10552000000F58BF10F5000F15D481427047894213
:1055300070471CF5000F04D5BCF5000FF7D5884265
:1055400070474FF0807C1CEB410F38BF1CEB400FC5
:1055500001D28842704780EA010081EA000180EAB6
:105560000100FFF7F8BE000090EA010F48BF81F08C
:1055700000413FF502AD421A04D882F00042A0EB90
:10558000020011444FEAD0524FF07F4C1CEA410F09
:10559000A2EBD15318BF9CEA026F4AD04FF0004CE7
:1055A0004CEA00204CEA012121FA03FCB0EB0C0C80
:1055B0000FD412F0FE0F36D05FEA4C001DD500125A
:1055C00040EBC25038BF70471CF03F0F18BF704708
:1055D0000BE0A2F101025FEA1C2040EBC25038BF91
:1055E00070471CF07F0F18BF7047C3F1200399402C
:1055F00014BF401E20F00100704780084FEA1223BC
:1056000008BF7047B0FA80FCA2EB0C02CCF1280C6A
:1056100060FA0CF093EA122F04BF00EBC2507047FF
:105620004FEAC3707047130A5FEADC1008BF704787
:10563000F6E79CEA026F04D010EA5C0F08BF002076
:10564000704710B5FFF713FF40DFF63E81F00040D2
:1056500070470CF00F03092B08BF082000F0598099
:105660000A2B0BD0082B18BF704708BF1CF0400F47
:105670000AD04FF000004FF0000170471CF0400FBF
:1056800018BF4FF0004070471CF0100F08D020F0FA
:10569000704300F07F4242EAD3014FEA4370704703
:1056A00000F0604021F07F4242EA000201F07F40BA
:1056B00040EA727070474FF0FF0C4CF4E06C1CEA4B
:1056C00011531CBF9CEA030C9445C2BFDA4201EBA4
:1056D00002517047002B0DD0BCF1000F0FD0002AF3
:1056E00001F00041A4BF41F0E04141F07F614FF083
:1056F0000000704701F000414FF00000704750EA91
:1057000001334FF09B0C18BF4CF0806C7EF4B0AFAF
:1057100070471CF4801F11D01CF4E02F03D06FEAF7
:10572000CC31490070474FF04050EFF3008222F037
:10573000704242EA000282F3008870474FF0000096
:105740007047000075191A0C6A231B1C1F20727405
:10575000433B4138393A6B6C376F06246D6E7000ED
:105760006800000476005401F7FD0001830000008A
:105770000008000000010018320005000000204170
:105780000000D242295C0F3E9A99993E3333733F11
:10579000295C0F3E000070000000002400000002A1
:1057A0000003000000650054FFEF0000FA80000BCA
:1057B00012820001030C30C30E8C8CE914D5400218
:1057C00013710F8E3883F8833000F883258EF883A9
:1057D0003000F883FFFFFFFF0FFEA9D6240004006E
:1057E0001A8279A10000003CFFFF000000100000B9
:1057F00038836FA2003E03304000000002CAE30974
:105800003E8000002000000000000000400000007A
:1058100060000000000C0000000C186E00000692F2
:105820000A16C0DFFFFF0256FD8CD377FFE1C49656
:10583000E0C5BEAA00000000FFFF0B2B00001657BA
:10584000000003594000000000001DFA00026C1D1A
:10585000000000003FFFDFEB003EB3B6000D2278F2
:1058600000002F3C00000000001942B5000039A2E2
:105870000000B365D90E9FC91DCF4C343000000025
:10588000500000003BB67AE80064000000C8000049
:1058900000000000100000001000FA921000225ECC
:1058A000000D229F0001000000320000FF460000B2
:1058B00063D400001000000004D6000004CC0000F7
:1058C00004CC000000001072000000400000000046
:1058D00000000000000600020005000700000000B4
:1058E00000640000000000000000000500050064E6
:1058F0000020000000000000000000000000400048
:105900000000030000000032F8980000FF6500006E
:10591000830F0000FF9BFC0000000000000000005F
:105920000000000000000000000000000000000077
:105930000000000000000000000000000000000067
:105940000000100040000000000000060000B26AE5
:10595000000200000001FB830068000000D9FC0089
:105960007CF1FF830000000000650000006403E894
:1059700000640028000000250000000016A00000C0
:105980000000100000001000002F0000000001F4D3
:105990000000100000280000FFFF4581FFFFFA72A1
:1059A0000000000000000000004400050005BAC629
:1059B000004778A20000000100000000000006007F
:1059C000000000140000254D002F706D000005AE92
:1059D000000C02D0000000000000000000000000E9
:1059E00000000000001B000000000000000000009C
:1059F000000000000064000000080000000000003B
:105A00000000000000000000000000000000000096
:105A10000000000000000000000000000000000086
:105A20000000000000000000000000000000000076
:105A30000000000000000000000000000000000066
:105A40000000000000000000000000000000000056
:105A500000000000001B000000000000000000002B
:105A6000000E000E00000AC7000400000000003213
:105A7000FFFFFF9C00000B2B000000020000000154
:105A800000000064FFE500000000000000000000CE
:105A90000000000000000001000000000001000004
:105AA0000000000000018000000180000001800073
:105AB000002426D3000000000000000000060010B3
:105AC0000096003C00000000000000000000000004
:105AD000000000000C0A4E68CDCF770950166759B8
