:020000040800F2
:10000000B005002001010008631700085F11000817
:100010005F170008670A0008C11D00080000000003
:100020000000000000000000000000002919000886
:100030001B1000080000000011180008151A000825
:100040001B0100081B0100081B0100081B01000820
:100050001B0100081B0100081B0100081B01000810
:100060001B0100081B0100081B0100081B01000800
:100070001B0100081B0100081B0100081B010008F0
:100080001B0100081B0100081B0100081B010008E0
:10009000891D00081B0100081B0100081B01000846
:1000A0001B0100081B0100081B0100081B010008C0
:1000B0001B0100081B010008791A00081B01000839
:1000C0001B0100081B0100081B0100081B010008A0
:1000D0001B010008BD1A00081B0100081B010008D5
:1000E0001B0100081B0100081B010008DFF80CD0F1
:1000F00000F046FC00480047653D0008B0050020C0
:100100000648804706480047FEE7FEE7FEE7FEE7B1
:10011000FEE7FEE7FEE7FEE7FEE7FEE7191A000846
:10012000ED0000082DE9F0410024061B254671F181
:10013000000605DA01240027D0EB070067EB010178
:10014000161E73F1000605DA0027D2EB070201251F
:1001500067EB030300F016FB86460E4617469C46E7
:10016000AC4204D00025D0EB050E65EB010624B1AE
:100170000020D2EB000760EB030C704631463A4694
:100180006346BDE8F081D2B201E000F8012B491EC0
:10019000FBD270470022F6E710B513460A46044624
:1001A0001946FFF7F0FF204610BD30B50446002089
:1001B000034600E05B1C934203D2E05CCD5C401B35
:1001C000F8D030BDF0B480EA0102D40F4200B2EBA7
:1001D000410F02D20246084611464A0042D0C30DE2
:1001E000DDB2C1F3C752AD1A202D35DAC1F31601C5
:1001F00041F4000204B15242C5F1200602FA06F1B0
:100200002A411044B3EBD05F23D0C4B1012DA0EB41
:10021000C35009DCF0BC4FF0004202EAC352DBB22B
:1002200000F5000000F009BB400000F1807000EB19
:10023000C350A0F1807040EAD170490009E049083C
:1002400041EAC071A0EBC35000F50000400800EB8C
:10025000C350F0BC00F0E8BA6142012202EB410158
:10026000001BF6E7F0BC704781F00041AAE780F080
:100270000040A7E780EA010210B502F00043400009
:1002800022D04A001FD0010E01EB1261C0F35600CC
:10029000C2F3560240F4000042F40002A0FB022028
:1002A00000047F39140400D0401C50EA124001D4ED
:1002B0004000491EC2B20C0604EBD010401C40089E
:1002C000802A02D003E0002010BD20F001000029A8
:1002D00000DA0020184310BD30B480EA010202F0B9
:1002E000004530F0004221F0004013D090B1C30D22
:1002F000D40DC2F31601C0F31600E41A41F4000154
:1003000040F400027D34914201D3641C00E04900B6
:10031000002C02DA30BC002070474FF400000023AC
:10032000914201D3891A034340084FEA4101F7D1B2
:1003300051B1914202D14FF0004105E002D24FF09D
:10034000010101E06FF0010103EBC450284430BC0F
:1003500000F06ABA2DE9FE4F804681EA0300C00F23
:100360000C46009021F0004123F00045B8EB02005C
:10037000A94105D24046214690461C460B460246FE
:1003800023F00040104347D0270DC7F30A00C3F302
:100390000A510290401A019040286BDAC3F313000F
:1003A00040F4801B0098924620B10023D2EB030A50
:1003B00063EB0B0B01985946C0F14002504600F028
:1003C00012FA06460D4650465946019A00F01AFAAE
:1003D00010EB08006141002487EA115284EAE773B8
:1003E0001A4340D0009A62B3019A012A4FEA075299
:1003F00015DC001B61EB02014FF0004202EA0752DC
:10040000CDE90042001C41F5801132462B4600F038
:1004100051FA03B0BDE8F08F40462146F9E7001BD2
:1004200061EB0201001C41F5801300185B412018AC
:10043000A2F5001747EB030140EAD570B6196D41EC
:1004400011E06D084FEA360645EAC0754FEA0752DB
:10045000001B61EB0201001C41F5801149084FEAC5
:1004600030000019514132462B4603B0BDE8F04F31
:1004700000F011BA0098012240000023D0EB0202E4
:1004800063EBE073009821464FEAE074B8EB00009C
:1004900061EB0401E9E783F000435BE781F0004191
:1004A00058E72DE9FE4F81EA030404F0004421F0EF
:1004B000004100944FF0000B23F0004350EA010488
:1004C0005ED052EA03045BD0C3F30A54C1F30A5569
:1004D0002C44A4F2F3340194A0FB0254C1F31301A1
:1004E00041F48011C3F3130343F4801301FB02446E
:1004F00000FB034E840A970A44EA815447EA835773
:10050000A4FB076802958D0A05FB07854FEA932C2B
:1005100004FB0C542705029D4FEA065847EA16379C
:10052000B5EB08056EEB070C870E920E47EA8117B4
:1005300042EA8312A7FB0201B6EB0B0164EB000455
:100540002B0D43EA0C335E1844EB1C50DA4651463F
:10055000E7FB0201C5F313044FEA0B3343EA1453DC
:100560004FEA0432019C43EA0603A4F10C0402940E
:10057000009CCDE900B400F09DF903B0BDE8F08F18
:1005800000200146F9E72DE9F04D81EA030404F06B
:10059000004B21F0004514464FF0000A23F00041C3
:1005A00050EA050220D054EA01021DD0C5F30A57D3
:1005B0000246C5F31303C1F31300C1F30A5640F416
:1005C000801543F48013A7EB0608101BD64608F2EB
:1005D000FD3873EB050002D308F1010801E0921821
:1005E0005B41B8F1000F03DA00200146BDE8F08D51
:1005F00000204FF48011064684460EE0171B73EB73
:10060000050705D3121B63EB050306434CEA010CF7
:1006100049084FEA300092185B4150EA0107EDD1DA
:1006200052EA030012D082EA040083EA050108437B
:1006300005D0101BAB4106D20122002306E00022A8
:100640004FF0004302E06FF0010253101AEB060076
:100650004CEB085110EB0A0041EB0B01BDE8F04DEB
:1006600000F019B9C10F80EAE0700844CA07962368
:10067000002100F0E2B896230022114600F0DDB818
:100680000EB5C10F80EAE0700844CA07002140F2AD
:1006900033438DE80E000A460B4600F00BF903B019
:1006A00000BD00F0004220F00040C10DC0F3160074
:1006B00040F400007F2901DA00207047962903DC0E
:1006C000C1F19601C84001E096398840002AF4D073
:1006D0004042704720F00040C10DC0F3160040F4C6
:1006E00000007F2901DA00207047962903DCC1F160
:1006F0009601C840704796398840704700F0004224
:1007000030F000400AD0C10D01F56071C0F3160051
:1007100042EA0151C20840071143704700200146D8
:10072000704701F0004330B421F0004150EA01026B
:1007300006D00A0DA2F56072C1F31301002A02DC93
:1007400030BC00207047440F44EAC104C100E018E7
:1007500030BC00EBC25000F067B80000002801DB9D
:10076000C0F10040002901DBC1F100418142704726
:10077000002801DBC0F10040002901DBC1F100418C
:10078000884270472DE9F05F0546002092469B465F
:1007900088460646814640241BE028464146474697
:1007A000224600F0FFF853465A46C01A914110D332
:1007B00011461846224600F016F82D1A67EB01087C
:1007C0004F4622460120002100F00DF817EB0009EA
:1007D0004E41201EA4F10104DFDC484631462A4682
:1007E0004346BDE8F09F202A04DB203A00FA02F1DC
:1007F000002070479140C2F1200320FA03F319430F
:1008000090407047202A06DBCB17203A41FA02F0CD
:1008100043EAE07306E041FA02F3D040C2F120025D
:1008200091400843194670470029A8BF7047401CF3
:10083000490008BF20F00100704710B4B0FA80FCF6
:1008400000FA0CF050EA010404BF10BC704749B133
:10085000CCF1200421FA04F411FA0CF118BF0121A3
:1008600021430843A3EB0C01CB1D4FEA00614FEA83
:10087000102042BF002010BC704700EBC350104452
:100880000029A4BF10BC7047401C490008BF20F0DD
:10089000010010BC704710B5141E73F1000408DA93
:1008A000401C41F1000192185B411A4301D120F034
:1008B000010010BD2DE9F04D92469B4611B1B1FAF1
:1008C00081F202E0B0FA80F220329046FFF78BFF0F
:1008D00004460F4640EA0A0041EA0B0153465A46D5
:1008E000084313D0114653EA010019D0C8F1400261
:1008F000504600F057F805460E46504659464246C7
:10090000FFF771FF084305D0012004E02046394677
:10091000BDE8F08D0020054346EAE0762C433743DE
:100920000A986305E40AA0EB08000022FD0A44EAE5
:1009300047540A3002D500200146E9E701051019A5
:100940006941DDE9084500196941BDE8F04DA2E7BC
:1009500070B521F0004303430CD0C1F30A550024C5
:10096000D5EB040564EB0403D617AD1AB34102DBE3
:100970000020014670BD201841EB025170BD0000FF
:10098000064C074D06E0E06840F0010394E80700DC
:1009900098471034AC42F6D3FFF7ACFBC05F0008B9
:1009A000E05F0008202A04DB203A21FA02F000214F
:1009B000704721FA02F3D040C2F12002914008436F
:1009C000194670472DE9F04D00231A461B1A8A413B
:1009D00003DB00200146BDE8F08DC1F30A52C1F3EC
:1009E000130141F480154FF0000BD10702D100181C
:1009F0006D41521E0027044640F2FF11384601EBBC
:100A0000620A3E468046024600204FF48011FFF7FE
:100A1000C9FFC2197141BB1846EB0100B4EB030CCE
:100A200075EB000C04D3E41A65EB000517460E467F
:100A3000241908F101006D4180463428E3DDF919DD
:100A400046EB0600091BA84103D24FF0FF321346C4
:100A500001E0002213461BEB070046EB0A51BDE8FC
:100A6000F04DFFF718BF00BFFEE7000000B589B0EA
:100A70000121052000F0DEFE0121480600F0CAFE3B
:100A800003208DF8220018208DF823004FF48050A9
:100A9000ADF8200008A9254800F0C0FA48208DF8DC
:100AA00023004FF40060ADF8200008A91F4800F0B3
:100AB000B5FA00208DF81A0001208DF81B008DF882
:100AC0001C0000208DF81D008DF81E008DF81F0001
:100AD0008DF8160001208DF8170004208DF81800FD
:100AE00002208DF819000420ADF8140005A9104863
:100AF00000F088F900208DF80E008DF80F0001201D
:100B00008DF810000020ADF80C0001208DF81100C8
:100B10000020ADF80400ADF80600ADF80800ADF80F
:100B20000A0001A800F05AF809B000BD0008014011
:100B300000640040B1F5007F3AD00FDC202928D0B6
:100B400006DC01291CD004291DD0082940D11DE054
:100B5000402921D0B1F5807F3AD126E0B1F5004F90
:100B600031D006DCB1F5806F25D0B1F5006F2FD103
:100B700024E0B1F5803F12D0B1F5003F28D111E05B
:100B8000154A826025E00822C26022E01022C2607D
:100B90001FE0082202611CE01022026119E0082215
:100BA000426016E01022426013E00422426010E02E
:100BB000042242600DE0042242600AE000228261C9
:100BC0000422426005E0002282610422426000E0CB
:100BD00000BF00BF704700000101010010B50021F7
:100BE000837A012202FA03F13D4A126842F00102BF
:100BF0003B4B1A603A4A1C3212688A43384B1C330A
:100C00001A60027BCAB9364A0C3212688A43344BE6
:100C10000C331A604288C38842EA0343304A4032A8
:100C2000847A42F834300288838842EA03432C4AAB
:100C30004032847A02EBC4025360027B012A19D14C
:100C4000274A0C3212680A43254B0C331A6042883B
:100C5000038842EA0343224A4032847A42F834301D
:100C6000C288838842EA03431D4A4032847A02EBF9
:100C7000C4025360C27A3AB9194A121D12688A43F3
:100C8000174B1B1D1A6006E0154A121D12680A4315
:100C9000134B1B1D1A60028932B9114A14321268B3
:100CA0008A430F4B14331A600289012A06D10C4A79
:100CB000143212680A430A4B14331A60427B012A29
:100CC00006D1074A1C3212680A43054B1C331A60CE
:100CD000034A126822F00102014B1A6010BD0000A5
:100CE0000066004070B504460D4600266069284045
:100CF000002871D0B5F5807F5CD010DC082D35D090
:100D000006DC012D20D0022D24D0042D72D127E045
:100D1000102D31D0202D35D0402D6BD138E0B5F5D8
:100D2000004F60D009DCB5F5007F49D0B5F5806F84
:100D30004CD0B5F5006F5DD14FE0B5F5803F2DD0BB
:100D4000B5F5003F56D12FE0A0682D4900F05CF9C1
:100D5000064651E0E068032100F056F906464BE0F4
:100D6000E068082100F050F9064645E0E0681021EF
:100D700000F04AF906463FE02069032100F044F9FB
:100D8000064639E02069082100F03EF9064633E0C6
:100D90002069102100F038F906462DE0606808212E
:100DA00000F032F9064627E06068102100F02CF9C7
:100DB000064621E0A069012100F026F906461BE065
:100DC000A069022100F020F9064615E0A06904217F
:100DD00000F01AF906460FE00FE0A069702100F05C
:100DE00013F9064608E06068042100F00DF9064694
:100DF00002E0FFE7002600BF00E00026304670BD9D
:100E00000101010030B5024600200023146824F0DF
:100E100002041460146844F00104146000E05B1CD8
:100E2000546804F001041CB94FF6FF74A342F6D1D4
:100E3000546804F001040CB900206CE08C79012C9A
:100E400004D1146844F08004146003E0146824F0B2
:100E500080041460CC79012C04D1146844F040045F
:100E6000146003E0146824F0400414600C7A012C30
:100E700004D1146844F02004146003E0146824F0E2
:100E8000200414604C7A012C04D1146844F010043E
:100E9000146003E0146824F0100414608C7A012CB0
:100EA00004D1146844F00804146003E0146824F0CA
:100EB00008041460CC7A012C04D1146844F00404B2
:100EC000146003E0146824F0040414608C78A40710
:100ED000CD7844EA05640D7944EA05444D7944EA45
:100EE00005540D886D1E2C43D461146824F0010450
:100EF0001460002300E05B1C546804F001041CB182
:100F00004FF6FF74A342F6D1546804F001040CB10B
:100F1000002000E0012030BD10B500F5D87303EBD0
:100F200001131B6803F004031372137A53B900F51D
:100F3000D87303EB01131B6840F2FF7404EA5353A8
:100F4000136009E000F5D87303EB01131B686FF021
:100F5000604404EAD303536000F5D87303EB011334
:100F60001B6803F00203537200F5D87303EB0113FF
:100F70005B6803F00F03937200F5D87303EB011362
:100F80005B681B0AD37400F5D87303EB01139B68ED
:100F9000D37200F5D87303EB01139B681C0A14731A
:100FA00000F5D87303EB01139B681C0C547300F518
:100FB000D87303EB01139B681B0E937300F5D87372
:100FC00003EB0113DB68D37300F5D87303EB011354
:100FD000DB681C0A147400F5D87303EB0113DB689B
:100FE0001C0C547400F5D87303EB0113DB681B0E63
:100FF000937421B9C36843F02003C36003E003691D
:1010000043F02003036110BD0246002002EA010301
:101010000BB1012000E00020704770472DE9F0413E
:10102000024600250026002000230024002791F816
:1010300003C00CF00F0591F803C00CF0100CBCF1CC
:10104000000F03D091F802C04CEA050591F800C0EA
:10105000BCF1000F31D0146800202BE04FF0010CE0
:101060000CFA00F3B1F800C00CEA03069E4220D14E
:1010700083004FF00F0C0CFA03F7BC4305FA03FC96
:101080004CEA040491F803C0BCF1280F06D14FF0DC
:10109000010C0CFA00FCC2F814C00AE091F803C07D
:1010A000BCF1480F05D14FF0010C0CFA00FCC2F85E
:1010B00010C0401C0828D1D31460B1F800C0BCF1A6
:1010C000FF0F34DD546800202EE000F1080C4FF0D3
:1010D000010808FA0CF3B1F800C00CEA03069E42BE
:1010E00021D183004FF00F0C0CFA03F7BC4305FA33
:1010F00003FC4CEA040491F803C0BCF1280F05D1AD
:1011000000F1080C08FA0CF8C2F8148091F803C03A
:10111000BCF1480F07D100F1080C4FF0010808FAA4
:101120000CF8C2F81080401C0828CED35460BDE8EB
:10113000F0810246002093680B400BB1012000E0D3
:10114000002070474161704701617047C2684A40A2
:10115000C26070470AB1016100E04161704700BFA1
:10116000FEE7000010B580210A48FFF7EBFF00F012
:1011700013F840210748FFF7E7FF00F00DF8402182
:101180000448FFF7DFFF00F007F880210148FFF770
:10119000DBFF10BD000C0140002001E0411CC8B283
:1011A0000528FBDB7047000010B580210848FFF7D9
:1011B000CBFFFFF7F1FF40210548FFF7C5FFFFF721
:1011C000EBFF40210248FFF7BDFFFFF7E5FF10BD31
:1011D000000C014070B50024002516E06006040EE6
:1011E00040210C48FFF7B0FFFFF7D6FF80210948E8
:1011F000FFF79FFF08B1601CC4B240210548FFF70C
:10120000A1FFFFF7C9FF681CC5B2082DE6DB204629
:1012100070BD0000000C014008B50121082000F05D
:1012200009FB14208DF8030003208DF802004020F4
:10123000ADF8000069460648FFF7F0FE8020ADF8E3
:10124000000069460248FFF7E9FE00F04BF808BDD0
:10125000000C014070B50446002523E004F0800036
:1012600020B180211148FFF76FFF03E080210F4874
:10127000FFF768FFFFF790FF40210C48FFF764FF7E
:10128000FFF78AFF40210948FFF75CFF072D03D1D4
:1012900080210648FFF758FF6006040EFFF77CFF29
:1012A000681CC5B2082DD9DB70BD0000000C0140E0
:1012B00010B580210A48FFF747FF40210848FFF793
:1012C00043FFFFF769FF80210548FFF73BFFFFF76A
:1012D00063FF40210248FFF735FFFFF75DFF10BDB8
:1012E000000C014010B580210648FFF72BFF40217C
:1012F0000448FFF729FFFFF74FFF80210148FFF760
:1013000023FF10BD000C014010B50446FFF7EAFFB3
:10131000214602A000F056FD002010BD49324320B6
:1013200054696D656F7574204572726F72436F6496
:1013300065203D2025640A0010B580210D48FFF787
:1013400003FFFFF729FF40210A48FFF7FDFEFFF7E3
:1013500023FF80210748FFF7ECFE08B1012400E0DD
:10136000002440210348FFF7EDFEFFF715FF20465C
:1013700010BD0000000C01402DE9F04105460E466D
:1013800014461F464FF00008FFF792FF002141EA84
:101390004501C8B2FFF75EFFFFF7CEFF012805D178
:1013A0000420FFF7B1FFC0B2BDE8F0813046FFF77F
:1013B00051FFFFF7C1FF012804D10520FFF7A4FF6B
:1013C000C0B2F1E7FFF774FF012101EB4501C8B29C
:1013D000FFF740FFFFF7B0FF012804D10620FFF719
:1013E00093FFC0B2E0E710E0FFF7F4FE07F8080053
:1013F000012C02D1FFF7D8FE01E0FFF7B3FE08F1A0
:10140000010000F0FF08601E84B2002CECD1FFF751
:1014100069FF0120C8E72DE9F04105460E46174651
:101420009846FFF745FF002141EA4501C8B2FFF7A2
:1014300011FFFFF781FF012804D1FFF765FFC0B25C
:10144000BDE8F0813046FFF705FFFFF775FF012883
:1014500004D10220FFF758FFC0B2F1E700240EE0EC
:1014600018F80400FFF7F6FEFFF766FF012804D125
:101470000320FFF749FFC0B2E2E7601CC4B2BC42E0
:10148000EEDBFFF72FFF0120DAE7000008B50121AE
:10149000042000F0CFF910208DF8030003208DF810
:1014A00002004020ADF8000069460A48FFF7B6FD8B
:1014B0008020ADF8000069460648FFF7AFFD012225
:1014C00080210448FFF746FE012240210148FFF732
:1014D00041FE08BD000801402DE9FC4104460D46CF
:1014E00016466B4606223B21682000F014F9074699
:1014F000BFB99DF801009DF8001040EA012000B23C
:1015000020809DF803009DF8021040EA012000B2FF
:1015100028809DF805009DF8041040EA012000B2E3
:1015200030803846BDE8FC812DE9FC4104460D467B
:1015300016466B4606224321682000F0ECF8074669
:10154000BFB99DF801009DF8001040EA012000B2EB
:1015500020809DF803009DF8021040EA012000B2AF
:1015600028809DF805009DF8041040EA012000B293
:1015700030803846BDE8FC812DE9F84F6B460222E9
:101580004121682000F0C7F89DF801009DF8001087
:1015900040EA01200FFA80FA5046FFF771F88046C2
:1015A00000220B4BFEF7EFFF06460A4A0A4BFEF7F6
:1015B000D1FE0446FFF7B5F8834608495846FEF7C2
:1015C00059FE0446FFF76DF800B2BDE8F88F000041
:1015D00000407540A4703D0AD74342400000C84215
:1015E00010B580216B2000F08DF8642001F04EFAD8
:1015F00000216B2000F086F8032000F041F8002065
:1016000000F036F8322000F060F80021382000F0B9
:1016100079F800216A2000F075F80021232000F0FD
:1016200071F88021372000F06DF8752000F013F874
:101630000446682C0BD101216B2000F063F80021D7
:101640006C2000F05FF8322000F03FF801E001204C
:1016500010BD0020FCE738B50446002000906B4622
:1016600001222146682000F056F89DF8000038BDA0
:1016700010B50446E006010E1C2000F043F810BD32
:1016800010B50446E006010E1B2000F03BF810BD2B
:1016900070B504460025BC2C01DB012510E0622C4E
:1016A00001DB02250CE02A2C01DB032508E0142CC9
:1016B00001DB042504E00A2C01DB052500E00625FA
:1016C00029461A2000F01EF870BD70B50446B4F526
:1016D0007A7F01DD4FF47A74042C00DA04244FF48D
:1016E0007A7090FBF4F0401EC5B22946192000F034
:1016F00009F80546264604EBD671C1F34F00FFF703
:10170000C7FF70BD13B5044601AB01222146682016
:1017100000F001F81CBD2DE9F04104460D461646C7
:101720001F463B46324629462046FFF725FE10B9A4
:101730000120BDE8F0810020FBE72DE9F0410446DF
:101740000D4616461F463B46324629462046FFF7C1
:1017500062FE10B90120BDE8F0810020FBE700BF68
:10176000FEE77047F8B506460C461546F0B28DF810
:101770000000E0B28DF80100E8B28DF8020001200F
:101780008DF80300684600F001F8F8BD70B500213F
:1017900000230F22C47804B3154C246804F4E064D9
:1017A000C4F5E064210AC1F10403CA40447804FA94
:1017B00003F184781440214309010E4C0678A155A9
:1017C000047804F01F050124AC4005786D11AD00CC
:1017D00005F1E025C5F8004109E0047804F01F0593
:1017E0000124AC40044D0678761145F8264070BDC2
:1017F0000CED00E000E400E080E100E0024901437C
:10180000024A1160704700000000FA050CED00E08C
:101810007047000029B1064AD2690243044BDA61DD
:1018200004E0034AD2698243014BDA617047000049
:101830000010024029B1064A92690243044B9A61A2
:1018400004E0034A92698243014B9A6170470000A9
:101850000010024030B500210022002400232D4D4D
:101860006D6805F00C0121B1042905D0082923D1A8
:1018700005E0294D056022E0274D05601FE0254D5C
:101880006D6805F47012234D6D6805F480340225EF
:1018900005EB92421CB9214D554305600BE01D4DEF
:1018A0006D6805F400351DB11C4D5543056002E01F
:1018B000194D5543056002E0174D056000BF00BF9C
:1018C000144D6D6805F0F0010909154D6B5C056854
:1018D000DD4045600F4D6D6805F4E061090A104D6B
:1018E0006B5C4568DD4085600A4D6D6805F46051AC
:1018F000C90A0B4D6B5C4568DD40C560054D6D68E0
:1019000005F44041890B074D6B5CC568B5FBF3F5E9
:10191000056130BD0010024000127A0000093D0050
:101920003D0000204D000020704710B500F002F887
:1019300010BD00000CB500200190009033480068F5
:1019400040F480303149086000BF3048006800F43E
:10195000003000900198401C0190009818B901983F
:10196000B0F5A06FF1D12948006800F4003010B143
:101970000120009001E0002000900098012843D150
:101980002348006840F010002149086008460068BC
:1019900020F0030008600846006840F0020008607C
:1019A0001A48406819494860084640684860084637
:1019B000406840F4806048600846406820F47C102D
:1019C00048600846406840F4E810486008460068EF
:1019D00040F08070086000BF0C48006800F00070A4
:1019E0000028F9D00948406820F003000749486002
:1019F0000846406840F00200486000BF0348406865
:101A000000F00C000828F9D10CBD000000100240C5
:101A1000002002407047000010B51348006840F0F5
:101A200001001149086008464068104908400E4905
:101A30004860084600680E4908400B49086008469F
:101A4000006820F4802008600846406820F4FE000A
:101A500048604FF41F008860FFF767FF4FF0006099
:101A60000449086010BD0000001002400000FFF8AB
:101A7000FFFFF6FE08ED00E010B50121044800F07C
:101A80000CF818B10121024800F004F810BD000064
:101A900000080040CA430282704730B50246002069
:101AA00000230024158A05EA0103958905EA01044B
:101AB00013B10CB1012000E0002030BD10B540F2A0
:101AC0002551124800F09AF8F0B1104800F052F990
:101AD000C1B20F4802780078401C0D4B18700D48B9
:101AE000815418460078401E0A49085C0A2806D12D
:101AF000FF210848FEF74EFB00200549087040F220
:101B00002551024800F052F810BD00000038014095
:101B10003C000020B000002010B586B00446012132
:101B20000520FFF787FE01218803FFF783FE0320CE
:101B30008DF8160018208DF817004FF40070ADF8DE
:101B4000140005A91748FFF769FA04208DF817005B
:101B50000002ADF8140005A91248FFF75FFA0194DE
:101B60000020ADF80800ADF80A00ADF80C00ADF8A3
:101B700010000C20ADF80E0001A90B4800F08EF803
:101B8000002206212520FFF7EDFD012240F225511C
:101B9000054800F05DF80121034800F016F806B092
:101BA00010BD0000000801400038014010B50022BF
:101BB000002340F66A14A14200D100BF0A1201249A
:101BC0009440A3B2DC43048010BD21B1828942F469
:101BD0000052828104E082894DF6FF731A408281AF
:101BE000704702460020B1F5007F00D100BF138886
:101BF0000B400BB1012000E00020704770B5024699
:101C0000002400230025002040F66A16B14200D1CE
:101C100000BFC1F3421501F01F03012606FA03F3CA
:101C2000012D02D19689334006E0022D02D1168A99
:101C3000334001E0968A33400C12012606FA04F480
:101C40001688344013B10CB1012000E0002070BDB3
:101C5000F0B50346002400260025002040F66A1750
:101C6000B94200D100BF1846C1F3421401F01F066B
:101C7000012707FA06F5012C01D10C3004E0022CF3
:101C800001D1103000E014301AB107682F4307600B
:101C900002E00768AF430760F0BD00002DE9F047A0
:101CA00086B005460E460024A24600BFA146002786
:101CB000B08900B100BF2F462C8A4CF6FF7004405B
:101CC000F08804432C82AC894EF6F3100440B088AF
:101CD00031890843718908430443AC81AC8A4FF6CB
:101CE000FF400440B0890443AC8201A8FFF7B2FD75
:101CF0001F48874202D1DDF810A001E0DDF80CA0FA
:101D0000A88900F4004040B10AEBCA0000EB0A10B9
:101D100031684900B0FBF1F807E00AEBCA0000EBBC
:101D20000A1031688900B0FBF1F86420B8FBF0F0CC
:101D300004012009642101FB1089A88900F40040F6
:101D400040B1322000EBC900B0FBF1F000F0070019
:101D5000044308E0322000EB09106421B0FBF1F0ED
:101D600000F00F0004432C8106B0BDE8F0870000AE
:101D70000038014001468888C0F308007047C1F36D
:101D8000080282807047000000B585B002210A4831
:101D9000FEF7A8FF68B16A4600210748FFF7BCF8C4
:101DA00080210648FFF7D2F902210348FEF7C2FE60
:101DB00000BF05B000BD0000006400400008014005
:101DC00000BFFEE70FB4054B10B503A9044A029803
:101DD00000F09AF810BC5DF814FB0000893600088A
:101DE00068000020490050EAC12018BF04204A0DB5
:101DF00018BF40F0010040F2FF72B2EB515F08BF24
:101E000040F00200012808BF052070472DE9F0418D
:101E10004F1E00EBC7010446D1E9000115461E46DE
:101E200037F006020DD02A463346FEF73AFB7F1EF6
:101E300004EBC703D3E90023FEF78CFA37F0060260
:101E4000F1D1022F25D0042F13D0062F18BFBDE8E3
:101E5000F0812A463346FEF724FBD4E90A23FEF735
:101E600079FA2A463346FEF71CFBD4E90823FEF72D
:101E700071FA2A463346FEF714FBD4E90623FEF72F
:101E800069FA2A463346FEF70CFBD4E90423FEF731
:101E900061FA2A463346FEF704FBD4E90223FEF733
:101EA00059FA2A463346FEF7FCFAD4E90023BDE886
:101EB000F041FEF74FBA0122FEF74ABDFEF74ABADB
:101EC0000022134610461146FEF75DBB024A002071
:101ED0001107FEF73DBD000001FDFFFF02E008C84D
:101EE000121F08C1002AFAD170477047002001E094
:101EF00001C1121F002AFBD1704700000149086090
:101F0000704700006C0000202DE9FF4F8DB00F4698
:101F10000546002606E025280BD0DDE90F12904784
:101F20006D1C761C28780028F5D111B03046BDE82C
:101F3000F08F0024A246A1460122EC4900E00443B0
:101F400015F8013F203B02FA03F00842F7D1287848
:101F50002A2810D06FF02F022878A0F1300109292B
:101F600014D80AEB8A0102EB410144F0020400EBB1
:101F7000010A6D1CF0E701CF5FEA000A03D544F4C3
:101F80000054CAF1000A44F002046D1C28782E287F
:101F900017D115F8010F44F004042A280ED06FF071
:101FA0002F022878A0F1300109290AD809EB89010C
:101FB00002EB410100EB01096D1CF2E757F8049BAD
:101FC0006D1C28786C280FD006DC4C2817D06828A8
:101FD0000DD06A2814D104E0742810D07A280FD1CB
:101FE0000DE044F400140AE044F4801401E044F4E9
:101FF00040146978814202D104F580146D1C6D1C77
:102000002A786E2A1FD00CDC632A31D004DC002A27
:102010008BD0582A11D1A3E0642A68D0692A0CD148
:1020200065E0732A2ED004DC6F2A73D0702A04D1A5
:102030009BE0752A6FD0782A6ED01046DDE90F122A
:102040009047761C50E1C4F30250022806D00328C2
:1020500009D0042801CF09D0066045E101CFF1176E
:10206000C0E9006140E101CF06803DE106703BE13F
:1020700017F8040B8DF8000000208DF80100EB46E6
:10208000012003E057F804BB4FF0FF3061074FF029
:10209000000102D40DE008F10101884649450FDA3C
:1020A0008045F8DB1BF808100029F4D108E008F19E
:1020B000010188468142FADB1BF808100029F6D19D
:1020C000DDE90F23AAEB08008146214600F036F92E
:1020D000304400EB080604E0DDE90F121BF8010BA9
:1020E0009047B8F10108F7D221464846F7E00A21A7
:1020F000C4F302534FF0000B0891022B04D001CF20
:10210000C117032B09D00AE0FF1D27F00707F7E8E6
:10211000020108E032E01FE020E000B2C117042B0A
:1021200001D140B2C117031E71F1000307DA4FF06D
:10213000000CD0EB0C006CEB01012D2302E0230519
:1021400004D52B238DF82430012303E0E30701D0CD
:102150002023F7E7984658E00A2110E010210EE00E
:1021600010204FF0000B08900CE010214FF0000BF6
:1021700044F004044FF00809089103E008214FF0EF
:10218000000B0891C4F30253022B04D001CF0021AD
:10219000032B06D006E0FF1D27F00707F7E8020132
:1021A00003E080B2042B00D1C0B24FF00008230737
:1021B0002BD5702A07D0DDF820C08CF0100C5CEA1B
:1021C0000B0C05D00EE040238DF82430012308E0ED
:1021D00050EA010306D030238DF824308DF82520F5
:1021E00002239846DDF820C08CF0080C5CEA0B0C4A
:1021F0000BD150EA010301D1630706D530238DF8D6
:1022000024304FF00108A9F10109582A04D038A25E
:102210000B9208AA0A920BE03AA2F9E75B46089AE9
:10222000FEF7B0FA0B9B9B5C0A9A521E0A9213703F
:1022300050EA0102F2D10A98ADEB000000F1200B48
:10224000600702D524F4803401E04FF00109D9453C
:1022500002DDA9EB0B0000E0002000EB0B01414484
:102260000890AAEB010AE00306D4DDE90F2321461A
:10227000504600F063F806444FF0000908E009A951
:1022800011F80900DDE90F12904709F10109761CE8
:10229000C145F4DBE0030CD5DDE90F2321465046B0
:1022A00000F04CF8064404E0DDE90F1230209047BE
:1022B000761C0899481E08900029F5DC08E00A9869
:1022C0000A990078491C0A91DDE90F129047761CA3
:1022D000BBF10001ABF1010BF1DC21465046DDE919
:1022E0000F2300F019F806446D1C1BE609280100B5
:1022F000303132333435363738396162636465667C
:10230000000000003031323334353637383941423D
:1023100043444546000000002DE9F04104460025F5
:102320001E461746880404D405E039462020B047ED
:102330006D1C641EF9D52846BDE8F0812DE9F041F9
:10234000044600251E469046C80301D5302700E00C
:102350002027880404D505E041463846B0476D1C67
:10236000641EF9D52846BDE8F08100002DE9FE4F36
:10237000074688460026684601F09AF9002444E0A2
:1023800057F8240058F82410A0EB010ABAF1000F06
:1023900001DB514601E0CAF100010846FEF762F98F
:1023A00083464FF08F41FDF797FF81465DF824008B
:1023B0000021FEF7D3F918D05DF824104846FDF748
:1023C0008BFF82464FF07E51FDF74EFF054600BF62
:1023D00025F0004082460F48416A5046FEF7C8F992
:1023E00012D20120A04006430EE00A48C1694846C7
:1023F000FEF7B4F905D30748016A4846FEF7B8F975
:1024000002D20120A0400643641C032CB8DB3046F6
:10241000BDE8FE8F545E00082DE9F04D8D4F21F090
:10242000004A86B005460C46BA452ADBAAEB0700EF
:1024300028430AD08848824501DC1AD1CDB106B0C4
:102440002846BDE8F04DFFF736BD844A844B284648
:10245000FEF727F807460E46824A834B2846214658
:10246000FEF71FF806B03A463346BDE8F04DFDF7DB
:1024700071BF0120FFF742FD06B0BDE8F04DFFF748
:102480001FBD7A48824542DABAF1795F0BDA2846F5
:10249000FFF7A8FC042808BFFFF718FD284606B080
:1024A0002146BDE8F08D2A460B461046FDF7F9FFA0
:1024B000834602466E480E460B4606217844FFF7D7
:1024C000A5FC5A463346FDF7ECFF804669488A462C
:1024D0005A46334604217844FFF798FC5A4633465F
:1024E000FDF7DFFF00223B46FDF734FF02460B46B7
:1024F00040465146FEF747F82A462346FDF7D1FFEE
:1025000006B02A462346BDE8F04DFDF723BF284616
:1025100024F0004100223D463B46FDF7BFFF4FF04F
:10252000FF32FEF715FA0646024653480F460B46A1
:1025300006217844FFF76AFC32463B46FDF7B1FFBF
:10254000CDE900014D4832463B4604217844FFF76F
:102550005DFC32463B46FDF7A4FF00222B46FDF70B
:10256000F9FE834602913046394602F03DFE804630
:1025700043480D46504517DCDDE900015A46029BF1
:10258000FEF701F842462B46FDF78BFF42462B46ED
:10259000FDF7E0FE0122FEF7DBF9304A304BFDF794
:1025A0007AFF304A304B4CE04FF0000A52460B465F
:1025B0004046FDF7CFFECDE9031052462B461046AC
:1025C0001946FDF76EFF32463B46FDF767FFDDE932
:1025D0000332FDF7D8FF06460F46DDE900015A46F3
:1025E000029BFDF7D0FF8346009101223046394619
:1025F000FEF7AEF9194A1A4BFDF750FF06460F4693
:10260000012240462946FEF7A3F95A46009BFDF7F2
:1026100048FF32463B46FDF73EFF06460F46012285
:1026200050462946FEF794F90E4DDFF858802A46A9
:102630004346FDF733FF32463B46FDF72FFF2A4660
:102640004346FDF72BFF002CD8BF81F0004106B0B8
:10265000BDE8F08D0000F03F0000F07F075C143310
:1026600026A6913C182D4454FB21F93F0000E03F81
:10267000C0390000D63900004A3900006039000036
:102680003333EF3FFB21E93F2DE9F84F04460D4678
:1026900021F0004000917349814211DC7249884267
:1026A00001DC06D12CB120462946BDE8F84FFFF7E2
:1026B00002BC6E48002DCCBF6D496E49BDE8F88F55
:1026C0006D49814211DD6D498142D8BF4FF0FF361F
:1026D0006DDD20462946FFF785FB042808BFFFF77C
:1026E000F5FB20462946BDE8F88F6549654F25F082
:1026F0000045814233DD6449814219DD00263246BE
:102700004FF0804320462946FDF724FE80468A4646
:10271000012220462946FEF71BF900223B46FDF721
:10272000BAFE42465346FDF72EFF04460D463EE0F4
:1027300001260022BA463B4620462946FDF70AFEFE
:1027400080460F460022534620462946FDF7A3FE49
:1027500042463B46FDF717FF04460D4627E04B492E
:1027600081421BDDDFF828A10226002253462046C5
:102770002946FDF796FE00223B46FDF7EBFD80461D
:102780000F460022534620462946FDF784FE424666
:102790003B46FDF7F8FE04460D4608E003262246B8
:1027A0002B4600203B49FDF7EEFE04460D4622462F
:1027B0002B4610461946FDF774FE8B4682460246AC
:1027C0000B46FDF76EFE07460246334888460B4629
:1027D00006217844FFF71AFB52465B46FDF761FE7F
:1027E00082462E488B463A46434605217844FFF7F9
:1027F0000DFB3A464346FDF754FE02460B46002EBB
:10280000504659460CDAFDF7A5FD22462B46FDF74A
:1028100048FE01B022462B46BDE8F04FFDF73EBE14
:10282000FDF798FD22462B46FDF73BFE1C4A7A44F5
:1028300002EBC603D3E90023FDF72DFE22462B460B
:10284000FDF729FE174A7A4402EBC603D3E90023B9
:10285000FDF724FE009A002AB8BF81F00041BDE8D0
:10286000F88F0000000010440000F07F182D445441
:10287000FB21F93FFB21F9BF0000DC3F0000203EB7
:102880000000F33F0000F03F0000E63F00800340FF
:102890000000F83F0000F0BF623700002037000062
:1028A000BE360000863600002DE9F04D9446CCF18E
:1028B000000423F000464CEA0404524F46EAD47464
:1028C0009A46884621F00042BC4206D8454240EA7A
:1028D000050442EAD474BC4204D9BDE8F04D624616
:1028E000FFF7ECBAAAF14055A5F17F6555EA0C0453
:1028F0000BD0022404EAAA74434DDFF810E144EA45
:10290000D87452EA000B04D00CE0BDE8F04DFFF79C
:10291000BBBE002C14BF012CBDE8F08D022C30D0C2
:10292000032C32D056EA0C0B0AD0BE4220D1BA4258
:1029300009D126F0804622F080423346114617E046
:1029400000291ADB25E0DFF8C8B0FB44002C04BFE7
:10295000DBE90001BDE8F08D012C02BFDBE90001DD
:1029600081F00041BDE8F08D022C0AD0032C0CD080
:10297000BA4212D1B8F1000F0BDA23482549BDE85D
:10298000F08D28462449BDE8F08D28467146BDE803
:10299000F08D1D482149BDE8F08D921B12153C2A8F
:1029A000C4BF19481D490EDCBAF1000FBEBF12F1B9
:1029B0003C0F0020014606DB6246FDF7E4FD21F0F6
:1029C0000041FFF761FE002C08BFBDE8F08D012C2F
:1029D00004BF81F00041BDE8F08D114A114B022C7B
:1029E00007D0FDF758FD2A46BDE8F04D0A4BFDF72C
:1029F00052BDFDF750FD2A46BDE8F04D064BFDF7F0
:102A00004DBD00000000F07F182D4454FB2109C08B
:102A10001A360000FB21F9BFFB210940FB21F93FD9
:102A2000075C143326A6A13C2DE9F0410446E0786A
:102A300000F0C006E07800F03F05607800F001008B
:102A400098B1EF102846E91705EB5171C910A5EBB5
:102A5000C101491C01F0FF080B48006820B10A4879
:102A6000414602683846904700BF607800F0080091
:102A700030B10548406818B1B011034A5168884721
:102A80000020BDE8F0810000A000002030B5044621
:102A9000002504E04FF47A7000F004F86D1CA542A4
:102AA000F8D330BD30B54FF0E024A3690021074CC6
:102AB0002468074DB4FBF5F404FB00F203E04FF08B
:102AC000E024A469191B9142F9D330BD54000020C1
:102AD00040420F0038B5044664B120208DF8000054
:102AE00028208DF8010030208DF8020038208DF864
:102AF000030004E0A32204216846FDF744FB6A4674
:102B0000042140F69E2002F09DFA01F087FE38BDB8
:102B10003EB5044602208DF80000CA208DF8010061
:102B2000E3208DF8020009208DF803006A46042195
:102B3000682002F087FAA3208DF8000004F040001E
:102B400048B1C0208DF80100C8208DF80200C220D5
:102B50008DF8030006E0A3208DF801008DF8020037
:102B60008DF8030004F4C07048B1C4208DF804004F
:102B7000CC208DF80500C6208DF8060006E0A320C5
:102B80008DF804008DF805008DF80600A3208DF85F
:102B900007008DF808008DF809006A460A2140F602
:102BA000A72002F04FFA04F0030018B120208DF89E
:102BB000000002E0D8208DF800006A46012140F6AE
:102BC000B62002F03FFA04F0200018B1012000F016
:102BD000ADF802E0002000F0A9F804F4C07008B3DA
:102BE00004F4807060B1B2208DF800008B208DF865
:102BF0000100B6208DF802009B208DF803000BE049
:102C0000B0208DF8000080208DF80100B4208DF8F0
:102C1000020090208DF803006A46042140F6A220AD
:102C200002F010FA04F0010020B3F8208DF8000043
:102C30006A4601214FF40B6002F004FAFA210720E2
:102C400000F02CFC072000F0F3FB012000F013FC47
:102C5000642000F0F3FC4FF4FA7000F002FDC8218C
:102C6000304800F0A3FB282000F0BCFB0A2000F055
:102C7000CCFB08E0D8208DF800006A4601214FF413
:102C80000B6002F0DFF904F0020018B1D9208DF8D2
:102C9000000002E0D8208DF800006A46012140F2D1
:102CA0003D7002F0CFF904F0040018B1012000F0EB
:102CB00069F802E0002000F065F804F0100018B197
:102CC0000120FFF707FF02E00020FFF703FF44F0B9
:102CD00008001549488101F0A1FD002012498873C0
:102CE00004F0400018B10846807B801D887304F40E
:102CF000C07020B10C48807B801D0B49887304F0A4
:102D0000140020B10848807B10300749887304F014
:102D1000030020B10448807B001D03498873002014
:102D20003EBD000009E3CA02A00000203EB50446F3
:102D30006CB10EA1D1E900208968CDE90020029193
:102D40006A4609214FF4976002F07CF93EBD0AA261
:102D5000D2E900109268CDE9010200916A4609218A
:102D60004FF4976002F06EF9F0E70000B8AAB38D57
:102D7000B4980D355D000000B8AAAAAAB088C3C5F2
:102D8000C700000038B5044664B1C0208DF80000CB
:102D9000C2208DF80100C4208DF80200C6208DF8F5
:102DA000030004E08B2204216846FDF7ECF96A4633
:102DB000042140F6982002F045F901F02FFD38BDBE
:102DC00010B5C8234FF48062024940F6F63001F096
:102DD000B9FB10BD345200082DE9F04F8DB0074605
:102DE000884615469946DDE9166B002400203080A0
:102DF0006B49887B5A4605A901F070FC18B1601E2A
:102E00000DB0BDE8F08F6648807A00F0140000280D
:102E100067D09DF8140000069DF8151040EA0140A7
:102E20009DF8161040EA01209DF81710084328600D
:102E30009DF8180000069DF8191040EA01409DF821
:102E40001A1040EA01209DF81B10084368609DF8A5
:102E50001C0000069DF81D1040EA01409DF81E1060
:102E600040EA01209DF81F100843A8609DF820004B
:102E700000069DF8211040EA01409DF8221040EA2A
:102E800001209DF823100843E86004F11000C4B24B
:102E9000286800140190686800140290A868001463
:102EA0000390E8680014049001984043029901FBE4
:102EB0000100039901FB0100049901FB010ABAF129
:102EC000706F02DBBAF1885F05DD01F0A7FC00201E
:102ED0003080401E94E7B6F9000040F480703080E6
:102EE00000BF2F48807A00F0400020B305A9601C85
:102EF000085C095D40EA012000B2A8F8000005A9BD
:102F0000E01C095C05AAA01C105C41EA002000B28C
:102F1000A8F8020005A9601D095C201D105C41EAAB
:102F2000002000B2A8F80400A01DC4B2B6F9000049
:102F300040F0080030801A48408900F4C07008B39F
:102F400005A9601C085C095D40EA012000B23880D8
:102F500005A9E01C095C05AAA01C105C41EA002040
:102F600000B2788005A9601D095C201D105C41EA53
:102F7000002000B2B880A01DC4B2B6F9000040F035
:102F8000700030800648807A00F0030018B105A96F
:102F90000819FFF749FD484600F068FF00202FE7B9
:102FA000A000002070B588B0064601A801F01EF907
:102FB000BDF804000021C90341EA5045C403444858
:102FC000007A00F0030056F8200005904048007A8F
:102FD00000F0040010B10598404205903C48007A8A
:102FE000C0F3C10056F8200006903948007A00F07E
:102FF000200010B10698404206903548007AC0F390
:10300000811056F8200007903148008900F4807044
:1030100010B10798404207900598C117A0FB042300
:1030200001FB043100FB0510810041EA927005901C
:103030000698C117A0FB042301FB043100FB051017
:10304000810041EA927006900798C117A0FB042303
:1030500001FB043100FB0510810041EA92700790EA
:103060000598000E8DF808000598000C8DF80900F1
:103070000598000A8DF80A000598C0B28DF80B007B
:103080000698000E8DF80C000698000C8DF80D00C7
:103090000698000A8DF80E000698C0B28DF80F0051
:1030A0000798000E8DF810000798000C8DF811009D
:1030B0000798000A8DF812000798C0B28DF8130027
:1030C00002AA0C214FF4257001F0BCFF08B070BDBE
:1030D000A000002030B585B0044616A207CA02AB96
:1030E00007C3C82C03DD4FF0FF3005B030BDC8204A
:1030F00090FBF4F0401E85B2280A8DF80000E8B27B
:103100008DF801006A46022140F2162001F09AFF74
:1031100010B14FF0FF30E8E702AA0C2140F6C120C1
:1031200001F090FF10B14FF0FF30DEE704488481DA
:103130000020DAE7FEF2ABC4AAF1DFDFBBAFDFDFCE
:10314000A00000201FB504464848007A00F00300A4
:1031500054F8200001904548007A00F0040010B1B6
:103160000198404201904148007AC0F3C10054F8F0
:10317000200002903D48007A00F0200010B1029833
:10318000404202903948007AC0F3811054F8200080
:1031900003903648008900F4807010B103984042D3
:1031A00003903349019880FB0101800F40EA8100C0
:1031B00001902F49029880FB0110820042EA917031
:1031C00002902B49039880FB0110820042EA917023
:1031D00003900198000E8DF800000198000C8DF806
:1031E00001000198000A8DF802000198C0B28DF824
:1031F00003006A4604214FF4747001F023FF18B1F4
:103200004FF0FF3004B010BD0298000E8DF80000A2
:103210000298000C8DF801000298000A8DF8020057
:103220000298C0B28DF803006A4604214FF475700D
:1032300001F008FF10B14FF0FF30E3E70398000EF4
:103240008DF800000398000C8DF801000398000A27
:103250008DF802000398C0B28DF803006A4604217D
:103260004FF4767001F0EEFECCE70000A0000020E5
:1032700009E3CA0210B586B0044647A0006803906F
:1032800046A00068029046A00068019045A0006832
:10329000009004F0030003A9085C8DF8140003A853
:1032A000C4F3C101405C8DF8150003A8C4F381117B
:1032B000405C8DF8160004F0030002A9085C8DF84C
:1032C000100002A8C4F3C101405C8DF8110002A8EF
:1032D000C4F38111405C8DF8120005AA032140F26D
:1032E000264001F0AFFE18B14FF0FF3006B010BD20
:1032F00004AA032140F22A4001F0A4FE10B14FF0CD
:10330000FF30F3E7019805900098049004F0040062
:1033100058B19DF8140040F001008DF814009DF89C
:10332000100040F001008DF8100004F0200058B1AA
:103330009DF8150040F001008DF815009DF8110072
:1033400040F001008DF8110004F4807058B19DF830
:10335000160040F001008DF816009DF8120040F0B4
:1033600001008DF8120005AA03214FF4886001F0D6
:1033700069FE10B14FF0FF30B8E704AA032140F214
:10338000314001F05FFE10B14FF0FF30AEE706486C
:1033900004810020AAE700004CCD6C000CC92C0071
:1033A0003656760026466600A0000020F8B5054691
:1033B0000E464FF47A7095FBF0F000FB06F4200EF9
:1033C0008DF80000200C8DF80100200A8DF8020015
:1033D000E0B28DF803006A4604214FF4AE7001F0AC
:1033E00031FEF8BD38B50446052094FBF0F084B2F8
:1033F00020128DF80000E0B28DF801006A4602212B
:103400004FF4AD7001F01EFE38BD38B504460520FE
:1034100094FBF0F084B220128DF80000E0B28DF839
:1034200001006A4602214FF4AC7001F00BFE38BD7A
:1034300038B504460020009004F0010020B19DF84A
:10344000000040F03000009004F0020020B19DF830
:10345000000040F00C00009004F0040020B19DF842
:10346000000040F0030000906A4601214FF4A47070
:1034700001F0E8FD38BD38B50446012C01DA01241D
:1034800002E0042C00DD0424601EC0B200906A46F5
:10349000012140F24F1001F0D5FD38BD2DE9FC4768
:1034A00006460F4606F0070010B1B7F5C86F03DDFA
:1034B0004FF0FF30BDE8FC873846FDF7DCF8814669
:1034C0005949FCF709FF8046684600F069FE9DF8FF
:1034D0000000022806D0042816D0082826D010287C
:1034E00048D135E04FF08D414046FCF7C3FE8146A0
:1034F000FDF7F0F884B24D494046FCF7BBFE81462B
:10350000FDF7E8F885B238E04FF08C414046FCF713
:10351000B1FE8146FDF7DEF884B245494046FCF72E
:10352000A9FE8146FDF7D6F885B226E04FF08B4123
:103530004046FCF79FFE8146FDF7CCF884B23D493A
:103540004046FCF797FE8146FDF7C4F885B214E0CB
:103550004FF08A414046FCF78DFE8146FDF7BAF8F0
:1035600084B235494046FCF785FE8146FDF7B2F846
:1035700085B202E04FF0FF309CE700BF20128DF8CB
:103580000400E0B28DF8050028128DF80600E8B2BC
:103590008DF8070006F00100A0B101AA02214FF446
:1035A000EA7001F04FFD10B14FF0FF3082E70DF1EE
:1035B000060202214FF4927001F044FD10B14FF069
:1035C000FF3077E706F00200A0B101AA02214FF414
:1035D000EC7001F037FD10B14FF0FF306AE70DF1EC
:1035E000060202214FF4947001F02CFD10B14FF04F
:1035F000FF305FE706F00400A0B101AA02214FF4FA
:10360000EE7001F01FFD10B14FF0FF3052E70DF1E9
:10361000060202214FF4967001F014FD10B14FF034
:10362000FF3047E7002045E70000484300004046E0
:103630000000C045000040450000C04438B50446C5
:10364000052094FBF0F085B228128DF80000E8B256
:103650008DF801006A4602214FF4EF7001F0F2FC90
:1036600038BD38B50446052094FBF0F085B2281229
:103670008DF80000E8B28DF801006A4602214FF48F
:10368000ED7001F0DFFC38BD70B504460D46E1B2C7
:1036900006480068FEF773FB00BF802103480068FE
:1036A000FEF79FFA0028F8D0204670BD38000020B1
:1036B0007CB5054628494968087801AB04220D21EC
:1036C000FEF729F808B107207CBD9DF80700C0F37C
:1036D00001109DF8041001F0E00140EAE1008DF8CE
:1036E00000009DF80700C0F381009DF8051001F06F
:1036F000E00140EAE1008DF801009DF8070000F0CC
:1037000003009DF8061001F0E00140EAE1008DF8A9
:10371000020000241CE01DF8040018B9002045F840
:10372000240013E00D4845F8240006E055F8240075
:103730000B49FCF79FFD45F824001DF80400401ECE
:10374000C0B20DF804000028F0D100BF601CC4B264
:10375000032CE0DB0020B7E7000000207B14AE3E26
:103760001D5A843F2DE9F04F87B005460C4691461F
:1037700001208DF8100000208DF81100FE4A12681B
:10378000917CFD4A5268107804AB0222FDF7D5FF08
:1037900020B14FF0FF3007B0BDE8F08FC820FFF731
:1037A00075F900208DF81000F34A1268D17BF24AB7
:1037B0005268107804AB0122FDF7BFFF10B14FF043
:1037C000FF30E8E7EC4A12685179EB4A526810780A
:1037D00004AB0122FDF7B1FF10B14FF0FF30DAE783
:1037E000E54A1268917CE44A5268107804AB0122E1
:1037F000FDF7A3FF10B14FF0FF30CCE7DE4A1268AF
:10380000D17DDD4A5268107804AB0122FDF795FFA7
:1038100010B14FF0FF30BEE7D74A12681179D64A8F
:103820005268107804AB0122FDF787FF10B14FF00A
:10383000FF30B0E70C208DF81000CF4A12681179E4
:10384000CD4A5268107804AB0122FDF776FF10B123
:103850004FF0FF309FE70F20FFF718F9C648806A46
:10386000407A8DF81000C44A12689178C24A5268B2
:10387000107804AB0122FDF760FF10B14FF0FF306C
:1038800089E7BD48806A007A8DF81000BA4A12684C
:103890005178B94A5268107804AB0122FDF74DFF08
:1038A00010B14FF0FF3076E7B9F1000F07D0B24802
:1038B000806A807A40F0E0008DF8100004E0AE48A5
:1038C000806A807A8DF81000AB4A12689179AA4A12
:1038D0005268107804AB0122FDF72FFF10B14FF0B2
:1038E000FF3058E7B9F1000F07D0A348806AC07ACB
:1038F00040F0E0008DF8100003E0A048C07A8DF899
:1039000010009D4A1268D1799B4A5268107804AB26
:103910000122FDF712FF10B14FF0FF303BE7B9F184
:10392000000F02D0C820FFF7B1F840208DF810003A
:10393000914A12681179904A5268107804AB0122BA
:10394000FDF7FBFE10B14FF0FF3024E778208DF833
:103950001000894A12685179874A5268107804AB7E
:103960000122FDF7EAFE10B14FF0FF3013E7834963
:103970008889FFF78BF800208DF810007E4A1268C6
:1039800051797D4A5268107804AB0122FDF7D5FECB
:1039900010B14FF0FF30FEE6774A1268917A764A0E
:1039A0005268107804AB0222FDF7B5FE10B14FF05B
:1039B000FF30F0E69DF811009DF8101040EA012B51
:1039C0000C209BFBF0F0C6B20020A8606860286065
:1039D000A06060602060824665E0674A1268D17A24
:1039E000654A5268107804AB0C22FDF794FE10B1C2
:1039F0004FF0FF30CFE69DF811009DF8101040EA1F
:103A0000012000B2ADF808009DF813009DF81210D7
:103A100040EA012000B2ADF80A009DF815009DF8BB
:103A2000141040EA012000B2ADF80C00BDF90810F6
:103A3000206808442060BDF90A106068084460608E
:103A4000BDF90C10A0680844A0609DF817009DF80F
:103A5000161040EA012000B2ADF800009DF81900F0
:103A60009DF8181040EA012000B2ADF802009DF860
:103A70001B009DF81A1040EA012000B2ADF80400C6
:103A8000BDF90010286808442860BDF90210686874
:103A900008446860BDF90410A8680844A8600AF1E9
:103AA000010000F0FF0AB24597DB3448D0F800C0AF
:103AB0002868C117090441EA10410704624600233F
:103AC0003846FCF72FFB32460023CDE90201FCF714
:103AD00029FB28602948D0F800C06868C11709048C
:103AE00041EA10410704624600233846FCF71AFBFE
:103AF00032460023CDE90201FCF714FB68601F4841
:103B0000D0F800C0A868C117090441EA10410704B1
:103B1000624600233846FCF705FB32460023CDE918
:103B20000201FCF7FFFAA8601448D0F804C021682D
:103B3000C817000440EA11480F04624600233846C3
:103B40004146FCF7EFFA32460023CDE90201FCF7CB
:103B5000E9FA20600948D0F804C06068C117090478
:103B600041EA10410704624600233846FCF7DAFABE
:103B70003246002304E0000000000020545E0008EC
:103B8000CDE90201FCF7CEFA60601148D0F804C01C
:103B9000A068C117090441EA1041070462460023E6
:103BA0003846FCF7BFFA32460023CDE90201FCF7A4
:103BB000B9FAA060A068002804DDA068A0F58030F4
:103BC000A06003E0A06800F58030A0600020E2E57E
:103BD000545E00082DE9FC5F0746884600263F49F1
:103BE0004968087801AB03220D21FDF794FD10B15F
:103BF0000720BDE8FC9F9DF8040000F01F008DF831
:103C000004009DF8050000F01F008DF805009DF8E8
:103C1000060000F01F008DF80600002459E057F858
:103C2000240058F82410A0EB010BBBF1000F01DBBE
:103C3000594601E0CBF100010846FCF713FD4FF0B7
:103C40008F410090FCF748FB824601A8005D78B3E5
:103C500023490868FCF70FFD834659462148FCF7C5
:103C60003BFB814604E020494846FCF703FB8146C4
:103C700001A8005D401EC0B201A908550028F2D17C
:103C800049465046FCF728FB83464FF07E51FCF72F
:103C9000EBFA054600BF25F00040834610488169D5
:103CA0005846FCF765FD13D20120A04006430FE003
:103CB000FFE70B4801695046FCF750FD05D3084863
:103CC00041695046FCF754FD02D20120A040064352
:103CD000641C032CA3DB30468BE7000000000020AF
:103CE000545E000800B04C4554E3853F10B50446CF
:103CF000204600F00FF80346E01C00F00BF843EA02
:103D0000C00083B2A01D00F005F843EA801083B222
:103D1000184610BD014691F90020002A01DD00205F
:103D20001EE091F90020002A01DA042018E091F940
:103D30000120002A01DD012012E091F90120002A72
:103D400001DA05200CE091F90220002A01DD0220B1
:103D500006E091F90220002A01DA062000E007209F
:103D6000704700004FF44070FDF748FD3A48006886
:103D70004FF47A72B0FBF2F1B1F1807F00D31DE015
:103D800021F07F40401E4FF0E022506150170F227B
:103D9000002807DA13071D0E304B00F00F04241F14
:103DA0001D5503E013071C0E2D4B1C5400BF0020B3
:103DB0004FF0E02290610720106100BF4FF4E13026
:103DC000FDF7AAFEFCF752FEFDF726FAFDF75EFBB3
:103DD000002240212348FDF7BDF906E0402121489B
:103DE000FDF7B4F96420FEF751FEFDF7F9FB00285A
:103DF000F4D107E040211B48FDF7A8F94FF4967075
:103E0000FEF744FE00F07EF90028F3D101224021A4
:103E10001448FDF79FF91EE0134AA2F10801081D9E
:103E200000F05EF8B8B9FDF7A7FB0446FCF71AFCF2
:103E30000D490839886101F116021431881EFDF719
:103E40004BFB094A0832911E881EFDF76DFB80214D
:103E50000448FDF77BF9DFE75400002018ED00E08F
:103E600000E400E0000801408C00002070470000E2
:103E700070B50446002624F00104184890F8240088
:103E800008B1002070BD1548807A10B94FF0FF309E
:103E9000F8E71248057C807A2040104908740846EB
:103EA000007CA04202D04FF0FF3600E0002614B99B
:103EB0000A48007D18B1012001F04EF902E000200F
:103EC00001F04AF93CB100F0A9FC20B103480574A7
:103ED0004FF0FF30D6E73046D4E700000000002066
:103EE0002DE9F04F99B004460D4616464FF07E5727
:103EF0004FF000084FF000094FF0000A12A813A974
:103F000018AB0EAACDE9001014A916A8FEF764FF9D
:103F100018B1012019B0BDE8F08FBDF84C0000F4D5
:103F2000807000287ED00E98FCF79CFB83464FF0F3
:103F30009D41FCF7D1F907460F98FCF793FB8346A8
:103F40004FF09D41FCF7C8F980461098FCF78AFBBA
:103F500083464FF09D41FCF7BFF981461198FCF76D
:103F600081FB83464FF09D41FCF7B6F98246394606
:103F70004FF08040FCF77EF949460590FCF77AF94E
:103F8000414607904FF04040FCF774F951460590C8
:103F9000FCF770F906900799FCF714F98346FCF7D3
:103FA000ADFBCDE90801FEF737FA4FF06632544B0E
:103FB000CDE90A01FCF775FACDE90C01FCF7B1FB7C
:103FC000206049464FF08040FCF754F94946029082
:103FD000FCF750F9414604904FF04040FCF74AF995
:103FE00041460290FCF746F903900499FCF73CF92E
:103FF00083464FF07E51FCF7E5F80590FCF77EFB19
:10400000CDE9080139464FF08040FCF733F94146CD
:104010000390FCF72FF9494604904FF08040FCF7DD
:1040200029F900E068E051460390FCF723F9834644
:104030000499FCF7C7F80590FCF760FBCDE9060191
:10404000DDE90823FEF730FC4FF066322C4BCDE95A
:104050000A01FCF726FACDE90C01FCF762FB2860A7
:1040600051465046FCF706F9494604904846FCF78D
:1040700001F9414603904046FCF7FCF839460190AF
:104080003846FCF7F7F800900199FCF79BF802908E
:104090000399FCF7E9F883460499FCF7E5F80590E5
:1040A000FCF72CFBCDE9080151463846FCF7E2F855
:1040B000494604904046FCF7DDF803900499FCF76C
:1040C00081F84FF080410590FCF7D4F88346FCF767
:1040D00015FBCDE90601DDE90823FEF7E5FB4FF00E
:1040E0006632074BCDE90A01FCF7DBF9CDE90C019B
:1040F000FCF717FB306001E002200BE7002009E726
:1041000066A64C4070B5002400F024F9002840D188
:10411000782000F02FFFC4B20CB1012070BD7820D0
:10412000FFF7A6FEC4B20CB10220F7E7642000F04E
:10413000D3FEC4B20CB10320F0E7FEF741FEC4B2D7
:104140000CB10420EAE71548FFF7D0FD0546FFF75C
:1041500091F8C4B20CB10520E0E740F27310FEF70D
:10416000D7FCC4B20CB10620D8E76420FEF7B2FF3A
:10417000C4B20CB10720D1E700F0A4FF04460CB193
:104180000820CBE7012000F0A3FDC4B21CB1092038
:10419000C4E70A20C2E70020C0E700002C0000208E
:1041A00001461148407A30B1012807D0022808D0D2
:1041B00003280CD108E0022008700BE004200870EE
:1041C00008E00820087005E01020087002E04FF0B9
:1041D000FF30704700BF0448C07C18B10878400623
:1041E000000E08700020F4E700000020014613488C
:1041F000407A30B1012808D002280AD0032810D113
:104200000BE04FF4804008800EE041F69C7008807F
:104210000AE04FF48050088006E04FF40060088008
:1042200002E04FF0FF30704700BF0448C07C10B17F
:104230000888401008800020F5E7000000000020FA
:1042400001460248007C08700020704700000020F2
:1042500001460F48007A30B1012807D0022809D062
:1042600003280FD10AE0FA2008800EE04FF4FA701C
:1042700008800AE04FF47A70088006E04FF4FA6094
:10428000088002E00020088000BF00BF00207047C7
:104290000000002001460E48007A30B1012807D006
:1042A000022808D003280CD108E00A4808600BE077
:1042B0000948086008E00948086005E00848086007
:1042C00002E04FF0FF30704700BF0020FBE7000026
:1042D0000000002000000343000083423333034208
:1042E0003333834101461248C07A082817D2DFE8E9
:1042F00000F01704070A0D101318BC20088013E003
:104300006220088010E02A2008800DE01420088038
:104310000AE00A20088007E00520088004E000BFCA
:1043200000BF0020088000BF00BF002070470000D1
:10433000000000200146064890F8240010B14FF01C
:10434000FF3070470248C08908800020F9E700006C
:10435000000000201CB580208DF80000654A12681E
:10436000917C644A526810786B460122FDF7E5F9AA
:1043700010B14FF0FF301CBD6420FEF787FB00201A
:104380008DF800005B4A1268917C5A4A5268107896
:104390006B460122FDF7D1F910B14FF0FF30EAE78B
:1043A000544A1268917D534A526810786B4606222F
:1043B000FDF7B1F910B14FF0FF30DCE79DF80500D3
:1043C000C007400F9DF8031001F0010140EA4100D1
:1043D0009DF8011001F0010140EA010494B1012CA3
:1043E00003D101214348C17431E0022C03D10021E3
:1043F0004048C1742BE021463FA0FDF7E3FC4FF09D
:10440000FF30B8E73B4A1268D1783A4A52681078D0
:104410006B460122FDF77FF910B14FF0FF30AAE79C
:104420009DF8000000F00F042CB93D48FDF7CAFCD0
:104430004FF0FF309FE7042C06D13AA0FDF7C2FCF5
:1044400001212C48C17402E000212A48C174FF21D7
:1044500028488172FF2027490872FF2125484172B0
:10446000C1724FF6FF71C181FF2101748174012176
:10447000017380F82210002180F823104175017526
:104480001630016041608160163880F8241080F891
:104490002510C1844FF4FA6000F062FC10B14FF0B7
:1044A000FF3068E7022000F02BFB10B14FF0FF3027
:1044B00061E72A2000F0CEFC10B14FF0FF305AE740
:1044C000322000F009FD10B14FF0FF3053E700201B
:1044D000FFF7CEFC10B14FF0FF304CE7002000F0AA
:1044E00051FB10B14FF0FF3045E7002000F042FDD6
:1044F000002040E700000020556E737570706F72E9
:1045000074656420736F6674776172652070726F72
:1045100064756374207265762025642E0A0000009D
:10452000705F000848616C662073656E736974691A
:1045300076697479207061727420666F756E642E6E
:104540000A0000002DE9F04385B005460E4690466E
:104550009946294890F8250020B14FF0FF3005B06A
:10456000BDE8F08316B94FF0FF30F8E7002423E0F0
:10457000281B102801DD102000E0281B87B232190B
:104580003946204600F05EFD10B14FF0FF30E6E7FF
:1045900001AA3946204600F001F910B14FF0FF3072
:1045A000DDE730193A4601A9FBF7FFFD10B16FF0C6
:1045B0000100D4E7E01984B2AC42D9DB4FEA2820ED
:1045C0008DF8000008F0FF008DF801000A4A12681B
:1045D000917E094A526810786B460222FDF7ADF8C9
:1045E00010B14FF0FF30BAE70121034880F82510E1
:1045F000A0F826900020B2E70000002038B504465D
:10460000282C02DD4FF0FF3038BDDCB9002000F06F
:10461000EBFB00208DF8000007208DF801002E4AEA
:104620001268917C2C4A526810786B460222FDF782
:1046300084F810B14FF0FF30E6E7002126480175FD
:104640000020E1E7012000F0CFFB20208DF80000E2
:10465000012C06D100208DF80100052000F0FAFBA6
:1046600017E0052C06DC01208DF80100052000F084
:10467000F1FB0EE0142C06DC02208DF801000A206C
:1046800000F0E8FB05E003208DF80100142000F0A5
:10469000E1FB9DF80100072101EB8010C0B28DF80D
:1046A00001000D4A1268917C0B4A526810786B46E3
:1046B0000222FDF742F810B14FF0FF30A4E70821C5
:1046C0000548817200210173012101750020FFF767
:1046D000CFFB002098E7000000000020F8B504465A
:1046E0000F4616462C4890F8240010B94FF0FF30C2
:1046F000F8BD2948807A10B94FF0FF30F8E7264A14
:104700001268917A244A526810786B460222FDF7AB
:1047100002F810B14FF0FF30EAE79DF801009DF874
:10472000001040EA0125A54203DA00203070401E47
:10473000DEE7194840684088B5EB600F17DD164A80
:104740001268517C144A526810786B460122FCF7BB
:10475000E2FF10B14FF0FF30CAE79DF8000000F013
:10476000100020B100F05AF86FF00100C0E7E2B28B
:10477000094B1B68D97A084B5B6818783B46FCF7F5
:10478000CAFF10B14FF0FF30B2E795FBF4F0401EC6
:1047900030700020ACE7000000000020F8B50446AF
:1047A0000D46164616B94FF0FF30F8BD1A48807A0C
:1047B00010B94FF0FF30F8E720128DF80000E0B29A
:1047C0008DF801009DF80100284413494968498982
:1047D000884202DD4FF0FF30E7E70F4A1268117E92
:1047E0000D4A526810786B460222FCF7A6FF10B102
:1047F0004FF0FF30D9E7EAB2074B1B68597D064BF3
:104800005B6818783346FCF786FF10B14FF0FF3035
:10481000CBE70020C9E700000000002008B5704881
:10482000807A10B94FF0FF3008BD002000906C4A2C
:104830001268D17B6A4A526810786B460122FCF7F5
:104840007CFF10B14FF0FF30EEE7654A12685179F6
:10485000634A526810786B460122FCF76EFF10B174
:104860004FF0FF30E0E75E4A126811795C4A526807
:1048700010786B460122FCF760FF10B14FF0FF305B
:10488000D2E7574890F82400002853D00C2000901D
:10489000534A12681179524A526810786B460122C5
:1048A000FCF74BFF10B14FF0FF30BDE73220FEF7B1
:1048B000EDF8C02000904A48807A00F0010020B155
:1048C0009DF8000040F020000090454A12681179E0
:1048D000434A526810786B460122FCF72EFF10B154
:1048E0004FF0FF30A0E73E48407C10B1022000901E
:1048F00001E0002000903A4A1268D17B384A5268A1
:1049000010786B460122FCF718FF10B14FF0FF3012
:104910008AE700200090324A12685179304A526882
:1049200010786B460122FCF708FF002855D04FF0A5
:10493000FF3079E704200090294A12681179284A4B
:10494000526810786B460122FCF7F7FE10B14FF069
:10495000FF3069E72248807C20B92148807A00F046
:10496000010010B94020009001E0602000901C4A36
:10497000126811791A4A526810786B460122FCF7C6
:10498000DCFE10B14FF0FF304EE73220FEF77EF82C
:104990001348407C10B10120009001E000200090FD
:1049A0000F4A1268D17B0E4A526810786B4601227A
:1049B000FCF7C3FE10B14FF0FF3035E7084A12682C
:1049C0005179074A52681078054B10330122FCF7E1
:1049D000B4FE10B14FF0FF3026E7002024E70000BE
:1049E000000000202DE9F04F8DB083460F460220D5
:1049F0000C90424890F8240020B1002000F068F9A3
:104A0000012600E0002603A8FFF722FC05A8FFF717
:104A1000C7FB01A8FFF766FC02A8FFF78BFC37482D
:104A200090F80AA004A8FFF70BFC002407E000227E
:104A300039465846FEF796FE00B902E0641C022C87
:104A4000F5DB00BF022C01D1002528E0002407E09F
:104A5000012206A909A8FEF785FE00B902E0641C40
:104A6000022CF5DB00BF022C01D1002517E006A9BE
:104A70003846FDF77BFC00F0FF0809A95846FFF710
:104A8000A9F800F0FF090025B9F1000F01D145F0A8
:104A90000105B8F1000F01D145F0020500BFFF206C
:104AA00016490872FF2115484172C1724FF6FF7115
:104AB000C181FF218172017401210173BDF80C00D5
:104AC00000F04EF99DF8140000F01AF8BDF804004B
:104AD00000F0C0F9BDF8080000F0FEF9504600F003
:104AE00049FA9DF81000FFF7C3F916B1012000F054
:104AF000EFF828460DB0BDE8F08F00000000002060
:104B000038B504461E48807A10B94FF0FF3038BDE2
:104B1000022C06D0042C07D0082C08D0102C0CD165
:104B200008E0002000900BE00820009008E0102032
:104B3000009005E01820009002E04FF0FF30E6E71B
:104B400000BF0F48407A9DF80010B0EBE10F01D193
:104B50000020DCE70A4A1268D179094A52681078C5
:104B60006B460122FCF7E9FD10B14FF0FF30CEE7B4
:104B70009DF80000C110024841720020C7E7000004
:104B80000000002038B504465048807CA04201D186
:104B9000002038BD002C46D04C4A126811794B4A8F
:104BA000526810786B460122FCF7B5FD10B14FF04A
:104BB000FF30EEE79DF8000020F020000090434A0F
:104BC00012681179414A526810786B460122FCF74D
:104BD000B4FD10B14FF0FF30DBE70320FDF756FFC7
:104BE00002200090394890F8220020B19DF8000082
:104BF00040F080000090354890F8230020B19DF8E7
:104C0000000040F030000090304A1268117D2F4AB9
:104C1000526810786B460122FCF78FFD002851D0B6
:104C20004FF0FF30B5E7294A12681179274A5268D8
:104C300010786B460122FCF76EFD10B14FF0FF308B
:104C4000A7E72248807A00F0010028B19DF8000013
:104C500040F02000009004E09DF8000020F02000CB
:104C600000901A4A12681179184A526810786B46F7
:104C70000122FCF762FD10B14FF0FF3089E70320FD
:104C8000FDF704FF114890F8220010B18020009039
:104C900001E0002000900D4890F8230020B19DF81D
:104CA000000040F030000090084A1268117D074A69
:104CB000526810786B460122FCF73FFD10B14FF0AF
:104CC000FF3066E701488474002062E7000000209E
:104CD00038B50446214890F82400A04201D10020B4
:104CE00038BD24B31D4890F8250010B94FF0FF30AF
:104CF000F6E7002000F030FA0020FFF743FF1749E5
:104D0000C88C00F0E9F80020009014494968087840
:104D10006B4601222321FCF710FD01210F4880F88A
:104D20002410012000F018FAFFF778FD13E00020AE
:104D300000F012FA0948007C009008494968087898
:104D40006B4601222321FCF7F8FC0021034880F880
:104D50002410FFF763FD0020C2E7000000000020E0
:104D600038B504461F48807A10B94FF0FF3038BD7F
:104D7000FA2C09D0B4F5FA7F09D0B4F57A7F09D0BE
:104D8000B4F5FA6F0CD108E0002000900BE0082089
:104D9000009008E01020009005E01820009002E04C
:104DA0004FF0FF30E3E700BF0E48007A9DF8001097
:104DB000B0EBE10F01D10020D9E70A4A12689179DE
:104DC000084A526810786B460122FCF7B6FC10B115
:104DD0004FF0FF30CBE79DF80000C010014908728A
:104DE0000020C4E70000002038B50446184890F8B9
:104DF0002300A04201D1002038BD14B13020009022
:104E000001E0002000901248807C20B19DF8000055
:104E100040F0020000900E4890F8220020B19DF86A
:104E2000000040F080000090094A1268117D084A95
:104E3000526810786B460122FCF77FFC10B14FF0EE
:104E4000FF30D9E7024880F823400020D4E7000073
:104E50000000002038B504461E48807A10B94FF093
:104E6000FF3038BDBC2C02DB0120009015E0622C25
:104E700002DB0220009010E02A2C02DB03200090CD
:104E80000BE0142C02DB0420009006E00A2C02DB6D
:104E90000520009001E0062000900E48C07A9DF8A1
:104EA0000010884201D10020DBE70A4A126891789D
:104EB000084A526810786B460122FCF73EFC10B19C
:104EC0004FF0FF30CDE79DF800100248C17200207E
:104ED000C7E700000000002038B504462448807A67
:104EE00010B94FF0FF3038BD214890F8240010B1C0
:104EF0004FF0FF30F7E71E48007D50B134B1282C49
:104F000004DCE0B2FFF77AFB0020ECE70020FFF7BB
:104F100075FB042C01DA042404E0B4F57A7F01DD8A
:104F20004FF47A744FF47A7090FBF4F0401EC0B2E4
:104F300000900F4A126851780D4A526810786B46FB
:104F40000122FCF7FAFB10B14FF0FF30CBE79DF8E0
:104F50000000401C4FF47A7191FBF0F081B20448DC
:104F6000C1810146C9894810FFF774FF0020BAE7E4
:104F70000000002038B5044604F0700010B1012094
:104F8000009005E014B10020009001E04020009066
:104F90002B4A1268917C2A4A526810786B4601228B
:104FA000FCF7CBFB20B1002125488172481E38BD9B
:104FB0009DF8000020F0400121480173002000907E
:104FC00004F0400020B99DF8000040F0040000907B
:104FD00004F0200020B99DF8000040F0020000908D
:104FE00004F0100020B99DF8000040F0010000908E
:104FF00004F0080020B99DF8000040F0380000904F
:105000000F4A1268D17C0E4A526810786B46012212
:10501000FCF793FB20B1002109488172481EC6E7C6
:1050200024B1082C02D00020FFF7DEFE0448847271
:10503000002101753220FDF729FD0020B7E70000AF
:1050400000000020F8B504460D46164616B94FF08C
:10505000FF30F8BD1A48807A10B94FF0FF30F8E7FA
:1050600020128DF80000E0B28DF801009DF80100DB
:105070002844134949684989884202DD4FF0FF30CE
:10508000E7E70F4A1268117E0D4A526810786B46A6
:105090000222FCF752FB10B14FF0FF30D9E7EAB221
:1050A000074B1B68597D064B5B6818783346FCF745
:1050B00044FB10B14FF0FF30CBE70020C9E7000000
:1050C0000000002070B588B002A905A8FFF78AFC8F
:1050D0000446032C3ED101A8FFF7DCF80598FBF746
:1050E000C1FA06460199FBF7C5F80546FBF7D9FA60
:1050F00005900698FBF7B6FA06460199FBF7BAF851
:105100000546FBF7CEFA06900798FBF7ABFA064682
:105110000199FBF7AFF80546FBF7C3FA079005A81E
:10512000FEF710F86846FFF761F8BDF80010029826
:1051300048430290BDF80010039848430390BDF81F
:10514000001004984843049002A8FDF72BFF0020AC
:1051500008B070BD0120FBE738B50446214890F83F
:105160002400C0B114B10220009001E000200090A2
:105170001C4A1268D17B1B4A526810786B46012288
:10518000FCF7DBFA10B14FF0FF3038BD9DF800108E
:105190001448417423E01348807A10B94FF0FF306F
:1051A000F3E724B10F48407C08B10020EDE714B1CB
:1051B0000120009001E0002000900A4A1268D17B93
:1051C000084A526810786B460122FCF7B6FA10B113
:1051D0004FF0FF30D9E79DF80010024841740020DD
:1051E000D3E70000000000202DE9F04106460F46FD
:1051F000FBF7E8FB041E0D4618BF0120284320F0F2
:105200000040C0F17F6000F1E040C00F0ED0301CC4
:1052100018BF0120384320F00040C0F17F6000F14A
:10522000E040C00F04BF0120FCF768FE204629467D
:10523000BDE8F081000070000000002400000002C2
:105240000003000000650054FFEF0000FA80000B2F
:1052500012820001030C30C30E8C8CE914D540027D
:1052600013710F8E3883F8833000F883258EF8830E
:105270003000F883FFFFFFFF0FFEA9D624000400D3
:105280001A8279A10000003CFFFF0000001000001E
:1052900038836FA2003E03304000000002CAE309D9
:1052A0003E800000200000000000000040000000E0
:1052B00060000000000C0000000C186E0000069258
:1052C0000A16C0DFFFFF0256FD8CD377FFE1C496BC
:1052D000E0C5BEAA00000000FFFF0B2B0000165720
:1052E000000003594000000000001DFA00026C1D80
:1052F000000000003FFFDFEB003EB3B6000D227858
:1053000000002F3C00000000001942B5000039A247
:105310000000B365D90E9FC91DCF4C34300000008A
:10532000500000003BB67AE80064000000C80000AE
:1053300000000000100000001000FA921000225E31
:10534000000D229F0001000000320000FF46000017
:1053500063D400001000000004D6000004CC00005C
:1053600004CC0000000010720000004000000000AB
:105370000000000000060002000500070000000019
:10538000006400000000000000000005000500644B
:1053900000200000000000000000000000004000AD
:1053A0000000030000000032F8980000FF650000D4
:1053B000830F0000FF9BFC000000000000000000C5
:1053C00000000000000000000000000000000000DD
:1053D00000000000000000000000000000000000CD
:1053E0000000100040000000000000060000B26A4B
:1053F000000200000001FB830068000000D9FC00EF
:105400007CF1FF830000000000650000006403E8F9
:1054100000640028000000250000000016A0000025
:105420000000100000001000002F0000000001F438
:105430000000100000280000FFFF4581FFFFFA7206
:105440000000000000000000004400050005BAC68E
:10545000004778A2000000010000000000000600E4
:10546000000000140000254D002F706D000005AEF7
:10547000000C02D00000000000000000000000004E
:1054800000000000001B0000000000000000000001
:1054900000000000006400000008000000000000A0
:1054A00000000000000000000000000000000000FC
:1054B00000000000000000000000000000000000EC
:1054C00000000000000000000000000000000000DC
:1054D00000000000000000000000000000000000CC
:1054E00000000000000000000000000000000000BC
:1054F00000000000001B0000000000000000000091
:10550000000E000E00000AC7000400000000003278
:10551000FFFFFF9C00000B2B0000000200000001B9
:1055200000000064FFE50000000000000000000033
:105530000000000000000001000000000001000069
:1055400000000000000180000001800000018000D8
:10555000002426D300000000000000000006001018
:105560000096003C00000000000000000000000069
:10557000000000000C0A4E68CDCF7709501667591D
:10558000C619CE82000000000000000000000000EC
:1055900000000000000000000000000017D7840099
:1055A000030000000000000000000000C7938F9D72
:1055B0001E1B1C190000000000000000000000007D
:1055C0000000000000000000000000000203188539
:1055D0000000400000000003000000030000000085
:1055E000000000004000000000000000000000007B
:1055F00000000000000000000000000000000000AB
:10560000000000000000000000000000000000009A
:105610000000000000000000677DDF7E72902E55C4
:105620004CF6E688000000000000000000000000CA
:1056300000000000D8DCB4B8B0D8B9ABF3F8FAB3C6
:10564000B7BB8E9EAEF132F51BF1B4B8B08097F1C6
:10565000A9DFDFDFAADFDFDFF2AAC5CDC7A90CC94A
:105660002C97F1A989264666B28999A92D557DB056
:10567000B08AA896365676F1BAA3B4B280C0B8A85C
:105680009711B28398BAA3F0240844106418B2B9F1
:10569000B49883F1A329557DBAB5B1A38393F000E3
:1056A0002850F5B2B6AA839328547CF1B9A382930B
:1056B00061BAA2DADEDFDB819AB9AEF5606870F11B
:1056C000DABAA2DFD9BAA2FAB9A38292DB31BAA2BE
:1056D000D9BAA2F8DF85A4D0C1BBAD83C2C5C7B813
:1056E000A2DFDFDFBAA0DFDFDFD8D8F1B8AAB38D41
:1056F000B4980D355DB2B6BAAF8C96198F9FA70ED0
:10570000161EB49AB8AA872C547CBAA4B08AB69153
:10571000325676B28494A4C808CDD8B8B4B0F19902
:1057200082A82D557D98A80E161EA22C547C92A4FA
:10573000F02C5078F184A898C4CDFCD80DDBA8FCDF
:105740002DF3D9BAA6F8DABAA6DED8BAB2B68696DA
:10575000A6D0F3C841DAA6C8F8D8B0B4B882A892E7
:10576000F52C548898F135D9F418D8F1A2D0F8F96D
:10577000A884D9C7DFF8F883C5DADF69DF83C1D829
:10578000F40114F1A8824EA884F311D182F5D992C4
:10579000289788F109F41C1CD884A8F3C0F9D1D942
:1057A0009782F129F40DD8F3F9F9D1D982F4C20323
:1057B000D8DEDF1AD8F1A2FAF9A88498D9C7DFF8A1
:1057C000F8F883C7DADF69DFF883C3D8F40114F18E
:1057D00098A8822EA884F311D182F5D99250978887
:1057E000F109F41CD884A8F3C0F8F9D1D99782F153
:1057F00049F40DD8F3F9F9D1D982F4C403D8DEDF26
:10580000D8F1AD8898CCA809F9D98292A8F57CF195
:10581000883ACF944A6E98DB6931DAADF2DEF9D876
:105820008795A8F221D1DAA5F9F417D9F1AE8ED077
:10583000C0C3AE82C684C3A88595C8A588F2C0F14E
:10584000F4010EF18E9EA8C63E56F554F18872F40E
:105850000115F19845856EF58E9E0488F142985A9F
:105860008E9E068869F4011CF1981E1108D0F5047B
:10587000F11E970202983625DBF9D985A5F3C1DA26
:1058800085A5F3DFD88595A8F309DAA5FAD8829221
:10589000A8F578F1881A849F26889821DAF41DF3F8
:1058A000D8879F39D1AFD9DFDFFBF9F40CF3D8FAF1
:1058B000D0F8DAF9F9D0DFD9F9D8F40BD8F3879F0B
:1058C00039D1AFD9DFDFF41DF3D8FAFCA869F9F9B3
:1058D000AFD0DADEFAD9F88F9FA8F1CCF398DB4588
:1058E000D9AFDFD0F8D8F18F9FA8CAF38809DAAF13
:1058F0008FCBF8D8F2AD978D0CD9A5DFF9BAA6F306
:10590000FAF412F2D8950DD1D9BAA6F3FADAA5F2C3
:10591000C1BAA6F3DFD8F1BAB2B68696A6D0CAF35A
:1059200049DAA6CBF8D8B0B4B8D8AD84F2C0DFF16C
:105930008FCBC3A8B2B68696C8C1CBC3F3B0B48828
:1059400098A821DB718D9D71859521D9ADF2FAD88A
:105950008597A828D9F408D8F28D29DAF405D9F268
:1059600085A4C2F2D8A88D9401D1D9F411F2D887B8
:1059700021D8F40AD8F28498A8C801D1D9F411D852
:10598000F3A4C8BBAFD0F2DEF8F8F8F8F8F8F8F8EE
:10599000D8F1B8F6B5B9B08A95A3DE3CA3D9F8D84A
:1059A0005CA3D9F8D87CA3D9F8D8F8F9D1A5D9DF68
:1059B000DAFAD8B18530F7D9DED8F830ADDADED8EA
:1059C000F2B48C99A32D557DA083DFDFDFB591A0C4
:1059D000F629D9FBD8A0FC29D9FAD8A0D051D9F8FA
:1059E000D8FC51D9F9D879D9FBD8A0D0FC79D9FA0B
:1059F000D8A1F9F9F9F9F9A0DADFDFDFD8A1F8F8D1
:105A0000F8F8F8ACDEF8ADDE8393AC2C547CF1A84A
:105A1000DFDFDFF69D2CDAA0DFD9FADB2DF8D8A87E
:105A200050DAA0D0DED9D0F8F8F8DB55F8D8A8784D
:105A3000DAA0D0DFD9D0FAF8F8F8F8DB7DF8D89CF6
:105A4000A88CF530DB38D9D0DEDFA0D0DEDFD8A8D7
:105A500048DB58D9DFD0DEA0DFD0DED8A868DB7005
:105A6000D9DFDFA0DFDFD8F1A888902C547C98A87C
:105A7000D05C38D1DAF2AE8CDFF9D8B087A8C1C1DA
:105A8000B188A8C6F9F9DA36D8A8F9DA36D8A8F96B
:105A9000DA36D8A8F9DA36D8A8F9DA36D8F78D9DEB
:105AA000ADF818DAF2AEDFD8F7ADFA30D9A4DEF9E6
:105AB000D8F2AEDEFAF983A7D9C3C5C7F1889BA790
:105AC0007AADF7DEDFA4F8849408A797F300AEF26E
:105AD0009819A488C6A39488F632DFF28393DB0971
