:020000040800F2
:100000004805002001010008A9110008D70C0008CC
:10001000A5110008E10500086519000800000000AE
:100020000000000000000000000000007113000844
:10003000930B000800000000591200085D1400082E
:100040001B0100081B0100081B0100081B01000820
:100050001B0100081B0100081B0100081B01000810
:100060001B0100081B0100081B0100081B01000800
:100070001B0100081B0100081B0100081B010008F0
:100080001B0100081B0100081B0100081B010008E0
:100090002D1900081B0100081B0100081B010008A6
:1000A0001B0100081B0100081B0100081B010008C0
:1000B0001B0100081B010008151500081B010008A2
:1000C0001B0100081B0100081B0100081B010008A0
:1000D0001B010008611600081B0100081B01000835
:1000E0001B0100081B0100081B010008DFF80CD0F1
:1000F00000F054FA00480047451C0008480500205D
:100100000648804706480047FEE7FEE7FEE7FEE7B1
:10011000FEE7FEE7FEE7FEE7FEE7FEE76114000804
:10012000ED000008D2B201E000F8012B491EFBD21D
:1001300070470022F6E710B513460A4604461946F2
:10014000FFF7F0FF204610BD2DE9FE4F804681EA03
:100150000300C00F0C46009021F0004123F0004541
:10016000B8EB0200A94105D24046214690461C4604
:100170000B46024623F00040104347D0270DC7F33B
:100180000A00C3F30A510290401A019040286BDA2A
:10019000C3F3130040F4801B0098924620B1002363
:1001A000D2EB030A63EB0B0B01985946C0F14002F6
:1001B000504600F03DF906460D4650465946019A14
:1001C00000F045F910EB08006141002487EA115264
:1001D00084EAE7731A4340D0009A62B3019A012A75
:1001E0004FEA075215DC001B61EB02014FF00042A1
:1001F00002EA0752CDE90042001C41F58011324667
:100200002B4600F07CF903B0BDE8F08F4046214654
:10021000F9E7001B61EB0201001C41F58013001897
:100220005B412018A2F5001747EB030140EAD570A7
:10023000B6196D4111E06D084FEA360645EAC07502
:100240004FEA0752001B61EB0201001C41F58011CF
:1002500049084FEA30000019514132462B4603B09D
:10026000BDE8F04F00F03CB90098012240000023A7
:10027000D0EB020263EBE073009821464FEAE07492
:10028000B8EB000061EB0401E9E783F000435BE7B2
:1002900081F0004158E72DE9F04D81EA030404F0B4
:1002A000004B21F0004514464FF0000A23F00041B6
:1002B00050EA050220D054EA01021DD0C5F30A57C6
:1002C0000246C5F31303C1F31300C1F30A5640F409
:1002D000801543F48013A7EB0608101BD64608F2DE
:1002E000FD3873EB050002D308F1010801E0921814
:1002F0005B41B8F1000F03DA00200146BDE8F08D44
:1003000000204FF48011064684460EE0171B73EB65
:10031000050705D3121B63EB050306434CEA010CEA
:1003200049084FEA300092185B4150EA0107EDD1CD
:1003300052EA030012D082EA040083EA050108436E
:1003400005D0101BAB4106D20122002306E000229B
:100350004FF0004302E06FF0010253101AEB060069
:100360004CEB085110EB0A0041EB0B01BDE8F04DDE
:1003700000F0B6B80EB5C10F80EAE0700844CA07B5
:10038000002140F233438DE80E000A460B4600F090
:10039000B6F803B000BD01F0004330B421F00041D5
:1003A00050EA010206D00A0DA2F56072C1F31301F2
:1003B000002A02DC30BC00207047440F44EAC1042C
:1003C000C100E01830BC00EBC25000F052B82DE97B
:1003D000F05F0546002092469B46884606468146C9
:1003E00040241BE0284641464746224600F0E8F8F4
:1003F00053465A46C01A914110D311461846224618
:1004000000F016F82D1A67EB01084F46224601202E
:10041000002100F00DF817EB00094E41201EA4F159
:100420000104DFDC484631462A464346BDE8F09FDA
:10043000202A04DB203A00FA02F1002070479140A4
:10044000C2F1200320FA03F3194390407047202A99
:1004500006DBCB17203A41FA02F043EAE07306E0EC
:1004600041FA02F3D040C2F12002914008431946FC
:1004700070470029A8BF7047401C490008BF20F002
:100480000100704710B4B0FA80FC00FA0CF050EA9A
:10049000010404BF10BC704749B1CCF1200421FA1B
:1004A00004F411FA0CF118BF012121430843A3EB16
:1004B0000C01CB1D4FEA00614FEA102042BF002023
:1004C00010BC704700EBC35010440029A4BF10BCFF
:1004D0007047401C490008BF20F0010010BC704765
:1004E00010B5141E73F1000408DA401C41F100013C
:1004F00092185B411A4301D120F0010010BD2DE993
:10050000F04D92469B4611B1B1FA81F202E0B0FA89
:1005100080F220329046FFF78BFF04460F4640EAF8
:100520000A0041EA0B0153465A46084313D01146CC
:1005300053EA010019D0C8F14002504600F040F8DB
:1005400005460E46504659464246FFF771FF08439E
:1005500005D0012004E020463946BDE8F08D00209A
:10056000054346EAE0762C4337430A986305E40ADC
:10057000A0EB08000022FD0A44EA47540A3002D5E5
:1005800000200146E9E7010510196941DDE9084548
:1005900000196941BDE8F04DA2E70000064C074D87
:1005A00006E0E06840F0010394E807009847103443
:1005B000AC42F6D3FFF79EFDEC1C00080C1D0008B2
:1005C000202A04DB203A21FA02F00021704721FAA8
:1005D00002F3D040C2F1200291400843194670470F
:1005E00000BFFEE700B589B00121052000F046FEFE
:1005F0000121480600F032FE03208DF82200182069
:100600008DF823004FF48050ADF8200008A925484C
:1006100000F0C0FA48208DF823004FF40060ADF8D8
:10062000200008A91F4800F0B5FA00208DF81A0034
:1006300001208DF81B008DF81C0000208DF81D0096
:100640008DF81E008DF81F008DF8160001208DF822
:10065000170004208DF8180002208DF819000420DE
:10066000ADF8140005A9104800F088F900208DF8B5
:100670000E008DF80F0001208DF810000020ADF85D
:100680000C0001208DF811000020ADF80400ADF839
:100690000600ADF80800ADF80A0001A800F05AF80D
:1006A00009B000BD0008014000640040B1F5007FC2
:1006B0003AD00FDC202928D006DC01291CD00429DF
:1006C0001DD0082940D11DE0402921D0B1F5807FFF
:1006D0003AD126E0B1F5004F31D006DCB1F5806F9C
:1006E00025D0B1F5006F2FD124E0B1F5803F12D0B5
:1006F000B1F5003F28D111E0154A826025E00822BB
:10070000C26022E01022C2601FE0082202611CE0E9
:100710001022026119E00822426016E010224260B5
:1007200013E00422426010E0042242600DE0042243
:1007300042600AE0002282610422426005E0002259
:1007400082610422426000E000BF00BF70470000E9
:100750000101010010B50021837A012202FA03F1A0
:100760003D4A126842F001023B4B1A603A4A1C3281
:1007700012688A43384B1C331A60027BCAB9364A66
:100780000C3212688A43344B0C331A604288C38897
:1007900042EA0343304A4032847A42F834300288D5
:1007A000838842EA03432C4A4032847A02EBC40233
:1007B0005360027B012A19D1274A0C3212680A437E
:1007C000254B0C331A604288038842EA0343224ACD
:1007D0004032847A42F83430C288838842EA034344
:1007E0001D4A4032847A02EBC4025360C27A3AB99D
:1007F000194A121D12688A43174B1B1D1A6006E026
:10080000154A121D12680A43134B1B1D1A600289F8
:1008100032B9114A143212688A430F4B14331A60EA
:100820000289012A06D10C4A143212680A430A4B83
:1008300014331A60427B012A06D1074A1C3212681F
:100840000A43054B1C331A60034A126822F0010266
:10085000014B1A6010BD00000066004070B50446F0
:100860000D46002660692840002871D0B5F5807FCC
:100870005CD010DC082D35D006DC012D20D0022DF7
:1008800024D0042D72D127E0102D31D0202D35D069
:10089000402D6BD138E0B5F5004F60D009DCB5F5DF
:1008A000007F49D0B5F5806F4CD0B5F5006F5DD1B4
:1008B0004FE0B5F5803F2DD0B5F5003F56D12FE084
:1008C000A0682D4900F05CF9064651E0E06803217C
:1008D00000F056F906464BE0E068082100F050F9B8
:1008E000064645E0E068102100F04AF906463FE080
:1008F0002069032100F044F9064639E02069082107
:1009000000F03EF9064633E02069102100F038F986
:1009100006462DE06068082100F032F9064627E01F
:100920006068102100F02CF9064621E0A069012141
:1009300000F026F906461BE0A069022100F020F92C
:10094000064615E0A069042100F01AF906460FE0FA
:100950000FE0A069702100F013F9064608E0606816
:10096000042100F00DF9064602E0FFE7002600BF73
:1009700000E00026304670BD0101010030B502469E
:1009800000200023146824F002041460146844F06A
:100990000104146000E05B1C546804F001041CB9FD
:1009A0004FF6FF74A342F6D1546804F001040CB969
:1009B00000206CE08C79012C04D1146844F0800490
:1009C000146003E0146824F080041460CC79012CD6
:1009D00004D1146844F04004146003E0146824F067
:1009E000400414600C7A012C04D1146844F02004F3
:1009F000146003E0146824F0200414604C7A012C85
:100A000004D1146844F01004146003E0146824F066
:100A1000100414608C7A012C04D1146844F008048A
:100A2000146003E0146824F008041460CC7A012CEC
:100A300004D1146844F00404146003E0146824F042
:100A4000040414608C78A407CD7844EA05640D7919
:100A500044EA05444D7944EA05540D886D1E2C4343
:100A6000D461146824F001041460002300E05B1CCE
:100A7000546804F001041CB14FF6FF74A342F6D190
:100A8000546804F001040CB1002000E0012030BDE6
:100A900010B500F5D87303EB01131B6803F00403D2
:100AA0001372137A53B900F5D87303EB01131B6863
:100AB00040F2FF7404EA5353136009E000F5D87361
:100AC00003EB01131B686FF0604404EAD303536027
:100AD00000F5D87303EB01131B6803F00203537294
:100AE00000F5D87303EB01135B6803F00F039372F7
:100AF00000F5D87303EB01135B681B0AD37400F590
:100B0000D87303EB01139B68D37200F5D87303EB22
:100B100001139B681C0A147300F5D87303EB0113CF
:100B20009B681C0C547300F5D87303EB01139B688E
:100B30001B0E937300F5D87303EB0113DB68D373BB
:100B400000F5D87303EB0113DB681C0A147400F57D
:100B5000D87303EB0113DB681C0C547400F5D873D5
:100B600003EB0113DB681B0E937421B9C36843F0D8
:100B70002003C36003E0036943F02003036110BD59
:100B80000246002002EA01030BB1012000E0002030
:100B9000704770472DE9F0410246002500260020ED
:100BA00000230024002791F803C00CF00F0591F8F2
:100BB00003C00CF0100CBCF1000F03D091F802C080
:100BC0004CEA050591F800C0BCF1000F31D0146863
:100BD00000202BE04FF0010C0CFA00F3B1F800C03C
:100BE0000CEA03069E4220D183004FF00F0C0CFA52
:100BF00003F7BC4305FA03FC4CEA040491F803C074
:100C0000BCF1280F06D14FF0010C0CFA00FCC2F821
:100C100014C00AE091F803C0BCF1480F05D14FF0B1
:100C2000010C0CFA00FCC2F810C0401C0828D1D3FB
:100C30001460B1F800C0BCF1FF0F34DD546800202F
:100C40002EE000F1080C4FF0010808FA0CF3B1F89F
:100C500000C00CEA03069E4221D183004FF00F0C26
:100C60000CFA03F7BC4305FA03FC4CEA040491F8C0
:100C700003C0BCF1280F05D100F1080C08FA0CF8EC
:100C8000C2F8148091F803C0BCF1480F07D100F1FD
:100C9000080C4FF0010808FA0CF8C2F81080401C4C
:100CA0000828CED35460BDE8F08102460020936846
:100CB0000B400BB1012000E00020704741617047FC
:100CC00001617047C2684A40C26070470AB1016161
:100CD00000E04161704700BFFEE7000010B58021D1
:100CE0000A48FFF7EBFF00F013F840210748FFF731
:100CF000E7FF00F00DF840210448FFF7DFFF00F0A8
:100D000007F880210148FFF7DBFF10BD000C014010
:100D1000002001E0411CC8B20428FBDB7047000042
:100D200010B580210848FFF7CBFFFFF7F1FF402106
:100D30000548FFF7C5FFFFF7EBFF40210248FFF72B
:100D4000BDFFFFF7E5FF10BD000C014070B50024AA
:100D5000002516E06006040E40210C48FFF7B0FFA6
:100D6000FFF7D6FF80210948FFF79FFF08B1601CFD
:100D7000C4B240210548FFF7A1FFFFF7C9FF681C77
:100D8000C5B2082DE6DB204670BD0000000C014016
:100D900008B50121082000F071FA14208DF8030035
:100DA00003208DF802004020ADF800006946064897
:100DB000FFF7F0FE8020ADF8000069460248FFF71B
:100DC000E9FE00F04BF808BD000C014070B5044688
:100DD000002523E004F0800020B180211148FFF7B6
:100DE0006FFF03E080210F48FFF768FFFFF790FFD8
:100DF00040210C48FFF764FFFFF78AFF40210948B4
:100E0000FFF75CFF072D03D180210648FFF758FF4D
:100E10006006040EFFF77CFF681CC5B2082DD9DB05
:100E200070BD0000000C014010B580210A48FFF79A
:100E300047FF40210848FFF743FFFFF769FF802184
:100E40000548FFF73BFFFFF763FF40210248FFF72C
:100E500035FFFFF75DFF10BD000C014010B580218C
:100E60000648FFF72BFF40210448FFF729FFFFF753
:100E70004FFF80210148FFF723FF10BD000C014008
:100E800010B50446FFF7EAFF214602A000F06CFD12
:100E9000002010BD4932432054696D656F75742080
:100EA0004572726F72436F6465203D2025640A00AD
:100EB00010B580210D48FFF703FFFFF729FF402100
:100EC0000A48FFF7FDFEFFF723FF80210748FFF7E1
:100ED000ECFE08B1012400E0002440210348FFF7A4
:100EE000EDFEFFF715FF204610BD0000000C01408D
:100EF0002DE9F04105460E4614461F464FF0000806
:100F0000FFF792FF002141EA4501C8B2FFF75EFFFB
:100F1000FFF7CEFF012805D10420FFF7B1FFC0B2D3
:100F2000BDE8F0813046FFF751FFFFF7C1FF012810
:100F300004D10520FFF7A4FFC0B2F1E7FFF774FF6B
:100F4000012101EB4501C8B2FFF740FFFFF7B0FFF9
:100F5000012804D10620FFF793FFC0B2E0E710E0BC
:100F6000FFF7F4FE07F80800012C02D1FFF7D8FEC6
:100F700001E0FFF7B3FE08F1010000F0FF08601E7A
:100F800084B2002CECD1FFF769FF0120C8E770B5EF
:100F900005460E4614462346012231462846FFF7F1
:100FA000A7FF70BD2DE9F04105460E46174698464D
:100FB000FFF73AFF002141EA4501C8B2FFF706FFFB
:100FC000FFF776FF012804D1FFF75AFFC0B2BDE852
:100FD000F0813046FFF7FAFEFFF76AFF012804D1DF
:100FE0000220FFF74DFFC0B2F1E700240EE018F831
:100FF0000400FFF7EBFEFFF75BFF012804D103209D
:10100000FFF73EFFC0B2E2E7601CC4B2BC42EEDBB9
:10101000FFF724FF0120DAE737B504460D4602AB9F
:10102000012229462046FFF7BDFF3EBD08B501213C
:10103000042000F023F910208DF8030003208DF820
:1010400002004020ADF8000069460A48FFF7A2FD03
:101050008020ADF8000069460648FFF79BFD01229D
:1010600080210448FFF732FE012240210148FFF7AA
:101070002DFE08BD0008014038B500200090002476
:101080000A2000F0A7FD6A4675216820FFF77FFF60
:101090009DF80000682818D100226B21FFF7BCFFE3
:1010A000072219216820FFF7B7FF06221A216820BE
:1010B000FFF7B2FFE8221B216820FFF7ADFF0122F6
:1010C0001C216820FFF7A8FF0124204638BD00003E
:1010D0002DE9FF5F4FF0000AD3466B460E223B21FD
:1010E0006820FFF705FF82469DF801009DF800107B
:1010F00000EB012000B2274908809DF803009DF80D
:10110000021000EB012000B2224948809DF8050042
:101110009DF8041000EB012000B21E4988809DF864
:1011200009009DF8081000EB012000B21949C880A1
:101130009DF80B009DF80A1000EB012000B2154944
:1011400008819DF80D009DF80C1000EB0120A0F621
:10115000077000B20F4948819DF807009DF80610FE
:1011600000EB01200FFA80FB5846FFF703F9804699
:101170000022094BFFF78FF80646084A084BFEF796
:10118000E3FF0446FFF707F90249C860504604B080
:10119000BDE8F09F3800002000407540A4703D0A73
:1011A000D743424000BFFEE77047F8B506460C46FD
:1011B0001546F0B28DF80000E0B28DF80100E8B2FB
:1011C0008DF8020001208DF80300684600F002F857
:1011D000F8BD000070B5002100230F22C47804B3CD
:1011E000154C246804F4E064C4F5E064210AC1F1FC
:1011F0000403CA40447804FA03F18478144021437C
:1012000009010E4C0678A155047804F01F0501244D
:10121000AC4005786D11AD0005F1E025C5F8004141
:1012200009E0047804F01F050124AC40044D067861
:10123000761145F8264070BD0CED00E000E400E0BA
:1012400080E100E002490143024A1160704700005A
:101250000000FA050CED00E07047000029B1064AD5
:10126000D2690243044BDA6104E0034AD269824343
:10127000014BDA61704700000010024029B1064AB4
:1012800092690243044B9A6104E0034A92698243E3
:10129000014B9A61704700000010024030B50021F8
:1012A0000022002400232D4D6D6805F00C0121B1B2
:1012B000042905D0082923D105E0294D056022E045
:1012C000274D05601FE0254D6D6805F47012234D14
:1012D0006D6805F48034022505EB92421CB9214D5E
:1012E000554305600BE01D4D6D6805F400351DB1DB
:1012F0001C4D5543056002E0194D5543056002E061
:10130000174D056000BF00BF144D6D6805F0F0017A
:101310000909154D6B5C0568DD4045600F4D6D6832
:1013200005F4E061090A104D6B5C4568DD4085609D
:101330000A4D6D6805F46051C90A0B4D6B5C456838
:10134000DD40C560054D6D6805F44041890B074DD2
:101350006B5CC568B5FBF3F5056130BD001002405C
:1013600000127A0000093D00090000201900002049
:10137000704710B500F002F810BD00000CB5002059
:10138000019000903348006840F480303149086093
:1013900000BF3048006800F4003000900198401C05
:1013A0000190009818B90198B0F5A06FF1D12948C3
:1013B000006800F4003010B10120009001E000202E
:1013C00000900098012843D12348006840F01000A5
:1013D000214908600846006820F0030008600846BC
:1013E000006840F0020008601A48406819494860E7
:1013F0000846406848600846406840F4806048609D
:101400000846406820F47C1048600846406840F474
:10141000E81048600846006840F08070086000BF2F
:101420000C48006800F000700028F9D009484068B6
:1014300020F00300074948600846406840F0020079
:10144000486000BF0348406800F00C000828F9D14C
:101450000CBD000000100240002002407047000058
:1014600010B51348006840F00100114908600846B3
:101470004068104908400E494860084600680E4917
:1014800008400B4908600846006820F48020086086
:101490000846406820F4FE0048604FF41F00886052
:1014A000FFF767FF4FF000600449086010BD0000BF
:1014B000001002400000FFF8FFFFF6FE08ED00E01C
:1014C0003EB505460C4601210420FFF7C7FEADF8E6
:1014D0000050ADF804400020ADF80600ADF8020061
:1014E00069460B4800F06AF80121094800F030F81D
:1014F0000121074800F03BF801221146044800F0A2
:1015000053F8002202211E20FFF74FFE3EBD0000CF
:101510000008004010B50121084800F034F858B127
:101520000748B0F90A100748026807A000F01CFA43
:101530000121024800F018F810BD0000000800402A
:10154000380000200000002025642C256C64000079
:1015500021B1028842F08002028004E002884FF646
:101560007F731A4002807047CA430282704721B1DC
:10157000028842F00102028004E002884FF6FE7306
:101580001A400280704730B5024600200023002434
:10159000158A05EA0103958905EA010413B10CB126
:1015A000012000E0002030BD1AB183890B43838104
:1015B00002E083898B438381704700000022028808
:1015C0001D4B98420ED01D4B98420BD0B0F1804F6E
:1015D00008D01B4B984205D01A4B984202D01A4BA8
:1015E000984204D14FF68F731A404B881A43174B19
:1015F000984207D0164B984204D04FF6FF431A404A
:10160000CB881A4302808B8883850B8803850A4B1D
:1016100098420BD0094B984208D00E4B984205D007
:101620000D4B984202D00D4B984201D10B7A0386A4
:101630000123838270470000002C014000340140E8
:101640000004004000080040000C00400010004072
:1016500000140040004001400044014000480140A7
:1016600010B540F22551124800F09AF8F0B1104838
:1016700000F052F9C1B20F4802780078401C0D4BBF
:1016800018700D48815418460078401E0A49085CBD
:101690000A2806D1FF210848FEF74BFD0020054926
:1016A000087040F22551024800F052F810BD0000C9
:1016B00000380140080000204800002010B586B026
:1016C000044601210520FFF7D9FD01218803FFF71A
:1016D000D5FD03208DF8160018208DF817004FF463
:1016E0000070ADF8140005A91748FFF753FA04205D
:1016F0008DF817000002ADF8140005A91248FFF795
:1017000049FA01940020ADF80800ADF80A00ADF8E0
:101710000C00ADF810000C20ADF80E0001A90B482C
:1017200000F08EF8002206212520FFF73EFD012261
:1017300040F22551054800F05DF80121034800F012
:1017400016F806B010BD0000000801400038014046
:1017500010B50022002340F66A14A14200D100BF58
:101760000A1201249440A3B2DC43048010BD21B1CD
:10177000828942F40052828104E082894DF6FF732F
:101780001A408281704702460020B1F5007F00D1E7
:1017900000BF13880B400BB1012000E00020704710
:1017A00070B50246002400230025002040F66A168A
:1017B000B14200D100BFC1F3421501F01F03012661
:1017C00006FA03F3012D02D19689334006E0022D7B
:1017D00002D1168A334001E0968A33400C1201266A
:1017E00006FA04F41688344013B10CB1012000E06D
:1017F000002070BDF0B5034600240026002500201F
:1018000040F66A17B94200D100BF1846C1F342142E
:1018100001F01F06012707FA06F5012C01D10C3053
:1018200004E0022C01D1103000E014301AB1076836
:101830002F43076002E00768AF430760F0BD000078
:101840002DE9F04786B005460E460024A24600BFAB
:10185000A1460027B08900B100BF2F462C8A4CF664
:10186000FF700440F08804432C82AC894EF6F310DC
:101870000440B08831890843718908430443AC812E
:10188000AC8A4FF6FF400440B0890443AC8201A803
:10189000FFF704FD1F48874202D1DDF810A001E0E8
:1018A000DDF80CA0A88900F4004040B10AEBCA00A2
:1018B00000EB0A1031684900B0FBF1F807E00AEBD1
:1018C000CA0000EB0A1031688900B0FBF1F864200F
:1018D000B8FBF0F004012009642101FB1089A889FC
:1018E00000F4004040B1322000EBC900B0FBF1F041
:1018F00000F00700044308E0322000EB09106421E7
:10190000B0FBF1F000F00F0004432C8106B0BDE8FD
:10191000F08700000038014001468888C0F30800C5
:101920007047C1F3080282807047000000B585B09F
:1019300002210A48FEF792FF68B16A460021074873
:10194000FFF7A6F880210648FFF7BCF902210348FB
:10195000FEF7ACFE00BF05B000BD00000064004013
:101960000008014000BFFEE70FB4054B10B503A906
:10197000044A029800F018F810BC5DF814FB00004F
:101980001D1C00083400002002E008C8121F08C116
:10199000002AFAD170477047002001E001C1121FF0
:1019A000002AFBD1704700002DE9FF4F8BB09A460B
:1019B0000F460446002606E025280BD052460D9916
:1019C0009047641C761C20780028F5D10FB0304673
:1019D000BDE8F08F0025A94601227D4900E00543BE
:1019E00014F8013F203B02FA03F00842F7D12078B7
:1019F0002E2817D114F8010F45F004052A280ED01F
:101A00006FF02F022078A0F1300109290AD809EBE4
:101A1000890102EB410100EB0109641CF2E757F870
:101A2000049B641C20786C280DD004DC4C2812D058
:101A30006A2811D104E074280DD07A280CD10AE06C
:101A400045F4001507E0617845F48015814202D124
:101A5000641C05F58015641C207869283ED006DCDE
:101A60000028B3D063280BD0642804D136E0732853
:101A700010D075285CD052460D999047761CA5E091
:101A800017F8040B8DF8000000208DF80100E846DF
:101A9000012003E057F8048B4FF0FF3069074FF047
:101AA000000501D40AE06D1C4D450DDA8542FADBD4
:101AB00018F805100029F6D106E06D1C8542FCDB04
:101AC00018F805100029F8D12E4404E018F8010B8D
:101AD00052460D9990476D1EF8D277E000200A908B
:101AE000C5F302504FF00A0B02280CD001CFC117EA
:101AF000021E71F100020CDA0023D0EB030063EB4D
:101B000001012D2208E0FF1D27F00707F7E8020179
:101B1000EEE72A0504D52B228DF82420012203E0CC
:101B2000EA070FD02022F7E70DF12008089218E00D
:101B300000200A90C5F302504FF00A0B022803D090
:101B400001CF00210022EFE7FF1D27F00707F7E88C
:101B50000201F7E75A460A9BFEF739FC303208F8D3
:101B6000012D50EA0102F5D1ADEB080000F1200B88
:101B7000680701D44FF00109D94502DDA9EB0B003C
:101B800000E000208146002506E009A85246405D9D
:101B90000D9990476D1C761C08988542F5DB04E092
:101BA000302052460D999047761CB9F10001A9F1F9
:101BB0000109F5DC05E018F8010B52460D99904734
:101BC000761CBBF10001ABF1010BF4DC641CFAE6FE
:101BD0000928010030B50446002504E04FF47A706E
:101BE00000F004F86D1CA542F8D330BD30B54FF0BD
:101BF000E024A3690021074C2468074DB4FBF5F4E9
:101C000004FB00F203E04FF0E024A469191B9142A9
:101C1000F9D330BD2000002040420F0070B50446CB
:101C20000D46E1B206480068FFF77BFE00BF802149
:101C300003480068FFF7A7FD0028F8D0204670BDD4
:101C4000040000204FF44070FFF7FCFA22480068BF
:101C50004FF47A72B0FBF2F1B1F1807F00D31DE056
:101C600021F07F40401E4FF0E022506150170F22BC
:101C7000002807DA13071D0E184B00F00F04241F6D
:101C80001D5503E013071C0E154B1C5400BF00200C
:101C90004FF0E02290610720106100BF4FF4E13067
:101CA000FFF70CFDFEF79EFCFFF772F8FFF7BEF999
:101CB000FFF7E2F942F20F714720FFF701FC0AE05B
:101CC000FFF706FA38B10748B0F90A000649096873
:101CD000084405490860F3E72000002018ED00E003
:101CE00000E400E038000020000000200C1D000887
:101CF000000000203800000088190008441D00087A
:101D000038000020100500009819000800000000AD
:101D1000003801400000000000010203040102033A
:101D200004060708090204060800000000A24A048D
:101D3000000000000000000001020304060708097B
:041D4000000000009F
:04000005080000ED02
:00000001FF
